:020000040800F2
:10000000E079002039030008A32E00082D2A0008FB
:10001000A12E00084D090008B541000800000000AD
:10002000000000000000000000000000790200084D
:10003000790B000800000000D5020008753A00089E
:100040005303000853030008530300085303000838
:100050005303000853030008530300085303000828
:10006000530300085303000853030008410A000823
:100070004D0A000853030008530300085303000807
:1000800053030008530300085303000853030008F8
:1000900053030008530300085303000853030008E8
:1000A00053030008530300085303000853030008D8
:1000B00053030008530300085303000853030008C8
:1000C00053030008530300085303000853030008B8
:1000D00053030008530300085303000853030008A8
:1000E0005303000853030008530300085303000898
:1000F0005303000853030008530300085303000888
:10010000530300085303000853030008C12F0008DD
:10011000530300085303000853030008153B00086D
:100120005303000853030008530300085303000857
:100130005303000853030008530300085303000847
:100140005303000853030008530300085303000837
:100150005303000853030008530300085303000827
:100160005303000853030008530300085303000817
:100170005303000853030008530300085303000807
:1001800053030008530300085303000853030008F7
:100190005303000800000000530300085303000845
:1001A00053030008530300085303000853030008D7
:1001B00053030008530300085303000853030008C7
:1001C00053030008530300085303000853030008B7
:1001D000530300085303000800F002F800F03CF855
:1001E0000AA090E8000C82448344AAF10107DA4592
:1001F00001D100F031F8AFF2090EBAE80F0013F0A8
:10020000010F18BFFB1A43F00103184728740000C0
:1002100048740000103A24BF78C878C1FAD8520751
:1002200024BF30C830C144BF04680C607047000070
:100230000023002400250026103A28BF78C1FBD8EF
:10024000520728BF30C148BF0B6070471FB507F089
:10025000B3F81FBD10B510BD00F0DCF91146FFF773
:10026000F5FF04F0DFFE00F0FAF903B4FFF7F2FF48
:1002700003BC00F0FDF900002C4B19680868B0E8D9
:10028000F04F80F30988BFF36F8F4FF0000080F3C9
:10029000118870470000000008480068006880F37B
:1002A00008884FF0000080F3148862B661B6BFF38F
:1002B0004F8FBFF36F8F00DF00BF00BF08ED00E07E
:1002C000DFF80C00016841F470010160704700BF65
:1002D00088ED00E0EFF30980BFF36F8F134B1A68CE
:1002E0001EF0100F08BF20ED108A20E9F04F1060BB
:1002F00009B44FF0500080F31188BFF34F8FBFF364
:100300006F8F05F0A1FD4FF0000080F3118809BC4C
:1003100019680868B0E8F04F1EF0100F08BFB0EC85
:10032000108A80F30988BFF36F8F70474400002064
:10033000EFF30580704700000948804709480047EF
:10034000FEE7FEE7FEE7FEE7FEE7FEE7FEE7FEE785
:10035000FEE7FEE704480549054A064B70470000E2
:10036000053B0008D9010008E0670020E079002083
:10037000E0690020E069002053EA020C00F0698087
:100380002DE9F04B4FF00006002B1FBFB3FA83F5A9
:1003900003FA05F424FA05F65E4012BF1643B2FADA
:1003A00082F502FA05F4C5F120051EBF22FA05FC0C
:1003B00044EA0C04203556EA044C4FEA144418BFB2
:1003C000641C4FF000084FF00009904271EB030CE1
:1003D00039D3002919BFB1FA81F701FA07F6B0FA4B
:1003E00080F700FA07F6C7F120071EBF20FA07FCC6
:1003F00046EA0C062037B6FBF4FCA7EB0507103FD6
:1004000007F01F0BCBF120060CFA0BFB2CFA06F6BB
:1004100044BFB3460026202FA4BF5E464FF0000B1A
:100420005BEA060C08BF4FF0010B19EB0B09ABFBA5
:10043000027C48EB0608C01B06FB02CC0BFB03CC7E
:1004400071EB0C01C1E70B46024641464846BDE848
:10045000F08B13B54FF000004FF00001AFF30080B8
:10046000BDE81C407047032A40F2308010F0030CB6
:1004700000F0158011F8013BBCF1020F624498BFF7
:1004800011F801CB00F8013B38BF11F8013BA2F194
:10049000040298BF00F801CB38BF00F8013B11F00F
:1004A000030300F02580083AC0F0088051F8043BAF
:1004B000083A51F804CBA0E80810F5E7121D5CBF1C
:1004C00051F8043B40F8043BAFF30080D20724BF4F
:1004D00011F8013B11F801CB48BF11F8012B24BFE3
:1004E00000F8013B00F801CB48BF00F8012B704732
:1004F00010B5203AC0F00B80B1E81850203AA0E8BF
:100500001850B1E81850A0E81850BFF4F5AF5FEAF2
:10051000027C24BFB1E81850A0E8185044BF18C9A5
:1005200018C0BDE810405FEA827C24BF51F8043B4C
:1005300040F8043B08BF7047D20728BF31F8023BA0
:1005400048BF11F8012B28BF20F8023B48BF00F834
:10055000012B70474FF000020429C0F0128010F008
:10056000030C00F01B80CCF1040CBCF1020F18BF8F
:1005700000F8012BA8BF20F8022BA1EB0C0100F022
:100580000DB85FEAC17C24BF00F8012B00F8012BF5
:1005900048BF00F8012B70474FF0000200B513462A
:1005A00094469646203922BFA0E80C50A0E80C5093
:1005B000B1F12001BFF4F7AF090728BFA0E80C5044
:1005C00048BF0CC05DF804EB890028BF40F8042B3D
:1005D00008BF704748BF20F8022B11F0804F18BFAA
:1005E00000F8012B704770477047704710B500F056
:1005F00009F8006810BD10B5044600F003F8046067
:1006000010BD000000487047806700200048704718
:10061000806700207546FFF7F9FFAE460500694682
:10062000534620F00700854618B020B5FFF792FE2C
:10063000BDE820404FF000064FF000074FF00008E3
:100640004FF0000B21F00701AC46ACE8C009ACE864
:10065000C009ACE8C009ACE8C0098D46704710B5C8
:100660000446AFF300802046BDE81040FFF7FDBD13
:1006700001491820ABBEFEE72600020070470000CB
:1006800070B51F4C00220221204600F0BCFD012065
:1006900000F0C4FC0122C0211A4800F0B4FD002281
:1006A0000121204600F0AFFD4FF48045002229468D
:1006B000154800F0A8FD154E01225103304600F008
:1006C000A2FD01222946304600F09DFD0022A9101E
:1006D000304600F098FD0022E910304600F093FD0E
:1006E00000222911304600F08EFD01220221204611
:1006F00000F089FDBDE87040042000F08FBC0000D0
:100700000018004800080048001000480004004895
:100710002DE9F0470D46164600F0F8F8012004F0E8
:100720006BFC2F4F4FF4804901224946384600F0B8
:100730006AFD012004F060FC00224946384600F0C2
:1007400062FD4FF400442146384600F055FD012873
:10075000F9D001224946384600F055FD012004F049
:100760004BFC00224946384600F04DFD21463846F4
:1007700000F042FD0128F9D0DFF868804FF40057FF
:1007800000223946404600F03EFD4C4600222146FC
:10079000404600F038FD012004F02EFC02F0AAFBD8
:1007A000288001222146404600F02DFD012004F062
:1007B00023FC00222146404600F025FD012004F0E4
:1007C0001BFC02F097FB308001222146404600F0DE
:1007D0001AFD39464046BDE8F047012200F013BD3E
:1007E00000100048000400487CB5054600246A4615
:1007F00001A92046FFF78CFFBDF8040025F814007E
:10080000C4F10F01BDF8000025F81100641CE4B22A
:10081000082CECD37CBD00002DE9F0410446394D95
:1008200004F001024FF48051284600F0ECFCC4F3C0
:1008300040024FF40061284600F0E5FCC4F380025A
:100840004FF48061284600F0DEFC012004F0D4FB68
:1008500001222D4F96033146384600F0D4FC01208A
:1008600004F0CAFB00223146384600F0CCFC6C0193
:100870002146384600F0C0FC0128F9D0012231465B
:10088000384600F0C0FC012004F0B6FB00223146DF
:10089000384600F0B8FC2146384600F0ADFC01288F
:1008A000F9D04FF4005400222146284600F0ABFC5A
:1008B00000223146284600F0A6FC012004F09CFBF3
:1008C00002F018FB074601223146284600F09BFC47
:1008D000012004F091FB00223146284600F093FCF1
:1008E000012004F089FB02F005FB01223146284675
:1008F00000F089FC01222146284600F084FC38469D
:10090000BDE8F081000400480010004870B50446BE
:10091000072C00D900240C4DC4F380024FF48061F1
:10092000284600F070FCC4F340024FF400612846F2
:1009300000F069FC04F001022846BDE870404FF465
:10094000805100F060BC000000040048FEE770B574
:100950004FF6FF7200244AF201050EE0035D5A4093
:100960000023D60702D085EA520200E052085B1C41
:10097000DBB2082BF5D3641CE4B28C42EED3100A30
:1009800000EB022080B270BD7047704770470000D6
:1009900070B504460B4D4FF48066C4F380023146B7
:1009A000284600F030FCC4F340023146284600F0EF
:1009B0002AFC04F0010231462846BDE8704000F0F0
:1009C00022BC000000100048034B4FF4007100F0FF
:1009D0000102184600F017BC0010004838B500238B
:1009E000009361F31F3291B241F40041124C01288F
:1009F0001CD002281DD0032817D14FF40065080A27
:100A00008DF800008DF8011000222946204600F0E4
:100A1000FAFB40F6FF7302226946084801F0DAFB50
:100A200001222946204600F0EEFB38BD4FF4005568
:100A3000E5E74FF48055E2E700100048C0130020BE
:100A4000014800F0DAB9000088140020014800F0E5
:100A5000D4B90000E814002010B502680E4CD1B2E1
:100A600014230839A24203D20C4AB1FBF3F104E08B
:100A70000A4A2032B1FBF3F10831436C23F003033F
:100A80001A448264054A8032C26401F01F020121C7
:100A90009140016510BD00000804024000080240BA
:100AA000017901F07F01074A491E02EB810242658C
:100AB000044A4032826501F01F0201219140C16564
:100AC000704700000009024030B5D0E913546C6053
:100AD000446D002C02D0D0E916546C6090F844406C
:100AE00004F01F050124AC40056C6C600468636071
:100AF0008368102B04D0036899600068C26030BD21
:100B000003689A600068C16030BD000070B504469B
:100B1000184DE2098021284600F075FBC4F38012CD
:100B20004021284600F06FFBC4F3401220212846E4
:100B300000F069FBC4F300121021284600F063FBAB
:100B4000C4F3C0020821284600F05DFBC4F3800214
:100B50000421284600F057FBC4F340020221284636
:100B600000F051FB04F001022846BDE8704001216D
:100B700000F049BB00100048704772B6FEE7000065
:100B80002DE9F047424C4FF4007A012251462046AD
:100B900000F039FB3F4D01225146284600F033FB5F
:100BA00001221021284600F02EFB01223A4F960226
:100BB0003146384600F027FB01224FF090481103E0
:100BC000404600F020FBDFF8D49001220421484683
:100BD00000F019FB01224021204600F014FB012205
:100BE0005146484600F00FFB0122D102404600F07A
:100BF0000AFB01221146484600F005FB01220821AC
:100C0000284600F000FB01228021284600F0FBFA74
:100C10004FF4807A01225146204600F0F4FA012276
:100C20005146484600F0EFFA01222021204600F00C
:100C3000EAFA01220821484600F0E5FA002231468E
:100C4000404600F0E0FA00220221484600F0DBFABC
:100C500000222021284600F0D6FA00224021284612
:100C600000F0D1FA00228021204600F0CCFA0022C8
:100C70001021204600F0C7FA00224021384600F03B
:100C8000C2FA3846BDE8F0470022042100F0BBBAA2
:100C900000180048000400480014004800080048FC
:100CA0000B4B012809D002280CD003280FD10022B9
:100CB0004FF48071074800F0A6BA002208211846B8
:100CC00000F0A1BA00228021184600F09CBA7047BB
:100CD000000400480018004830B41D4B01290ED014
:100CE000022932D11B4C012822D0022827D0032808
:100CF0002BD12046002230BC082100F084BA012804
:100D00000AD0154B02280DD003281ED1012230BC79
:100D10000421184600F077BA012230BC1021184691
:100D200000F071BA012230BC4021184600F06BBAC5
:100D3000204630BC00224FF4807100F064BA0022DB
:100D400030BC2021184600F05EBA30BC704700006D
:100D5000001800480008004800140048012806D088
:100D600002280BD100220121054800F04CBA0022D4
:100D70004FF400614FF0904000F045BA704700001A
:100D80000008004870B5002490F8251000230122C7
:100D9000022906D0042124308161427003700124AD
:100DA00029E001680D6825F001050D6001680D68F6
:100DB00025F00E050D60816C0D6825F480750D60C1
:100DC00090F84410154601F01F018A40016C4A60FA
:100DD000D0E913215160416D31B10A6822F480726B
:100DE0000A60D0E91621516080F8255080F824303F
:100DF000816B01B18847204670BDF0B4016C0A6870
:100E000001680B6890F84440042604F01F0406FAB9
:100E100004F5154215D05D0713D50A68920603D470
:100E20000A6822F004020A6090F8441001F01F01E1
:100E300006FA01F5016C4D60016B002941D0F0BC50
:100E400008474FF0020C0CFA04F616424FF0000768
:100E50004FF0010519D09E0717D50A68920605D4F0
:100E60000A6822F00A020A6080F8255090F84410BF
:100E700001F01F010CFA01F6016C4E6080F824703D
:100E8000C16A00291DD0F0BC08470826A6401642BA
:100E900017D01A0715D50A6822F00E020A6090F8DA
:100EA0004410026C01F01F0105FA01F15160C563A5
:100EB00080F8255080F82470416B002901D0F0BCE7
:100EC0000847F0BC7047000070B50446002C0DD0F8
:100ED0002B4A2068142190420AD22A4A0244B2FBCB
:100EE000F1F189006164284921640BE0012070BDA3
:100EF000234A52420244B2FBF1F189006164204965
:100F000008392164022184F82510026847F6F0713F
:100F10008A43D4E902131943D4E904352B43194316
:100F2000A3691943E3691943236A19431143016013
:100F30002046FFF791FDA0680025B0F5804F00D155
:100F400065602079A16C00F07F000860D4E913107F
:100F500048606068401E032808D82046FFF7A0FDBF
:100F6000606D0560D4E91610486002E06565A5650E
:100F7000E5652434A561012060702570002070BDF6
:100F800008040240F8FFFDBF0000024070B50446AF
:100F9000002594F8240001280CD0012084F82400B6
:100FA00094F825600020012E06D084F82400022544
:100FB000284670BD022070BD022684F82560E063DB
:100FC0002068066826F0010606602046FFF77CFDD3
:100FD000206B28B12068016841F00E01016009E032
:100FE0002068016821F0040101602068016841F077
:100FF0000A010160A06C0168C90303D5016841F4CE
:1010000080710160606D18B1016841F48071016008
:101010002068016841F001010160C9E770B504462C
:1010200000F0F8F80546601C02D00448406804440B
:1010300000F0F0F8401BA042FAD370BD340000204D
:101040002DE9F84F0022DFF890914FF001080327B7
:101050004FF00F0C09F1040AA9F1040BB4E008FAEF
:1010600002F52B40002B6ED00C7904F00304012C08
:1010700001D0022C15D18668540007FA04FE26EA36
:101080000E06D1F80CE00EFA04FE4EEA060EC0F889
:1010900008E04468AC430D79C5F30015954025433D
:1010A00045600C79E443A40702D18C68012C08D078
:1010B000C568540007FA04F6B5438E68A6402E436F
:1010C000C6600C7904F00304022C11D1D40800EBA3
:1010D0008406356A5407E40E0CFA04FE25EA0E0570
:1010E000D1F810E00EFA04FE4EEA050EC6F820E034
:1010F0000568540007FA04F6B5430E7906F00306B6
:10110000A6402E4306604C6814F4403F5BD0334C3D
:10111000256E45F001052566246E04F00104009457
:101120002F4C22F003052E19B56894074FEA147E60
:101130000CFA0EF4A543B0F1904F05D0294CA04213
:1011400004D1012417E03EE0002414E0264CA04224
:1011500001D102240FE0254CA04201D103240AE072
:10116000234CA04201D1042405E0224CA04201D12D
:10117000052400E0062404FA0EF42C43B460D9F8E8
:1011800000409C434D68ED0200D51C43C9F8004067
:10119000DAF800409C434D68AD0200D51C43CAF804
:1011A0000040DBF800409C434D68AD0300D51C4374
:1011B000CBF80040084D083D2C689C434E68F60370
:1011C00000D51C432C60521C0B6833FA02F47FF4E8
:1011D00046AFBDE8F88F000008040140001002404F
:1011E000000001400004004800080048000C0048CE
:1011F00000100048001400480069084201D0012096
:10120000704700207047002A01D0816170478162D9
:1012100070470000014880687047000034000020DB
:1012200002488168426811448160704734000020A0
:1012300010B50024032000F09BF80F2000F008F800
:1012400008B1012401E000F047F8204610BD00007D
:1012500030B587B005461B48816D41F0200181659E
:10126000806D00F02000009001A902A800F06CFB46
:1012700000F08EFB1449B0FBF1F1491E1448134AEB
:10128000026040F2E732C26041600021016181608A
:1012900001F096F9044694B90D4801F0B9F90446F5
:1012A0006CB9372000F036F8102D07D200222946FD
:1012B000372000F03DF80748056000E0012407B042
:1012C000204630BD0010024040420F000014004094
:1012D000DC1500203400002008B50D48016E41F0F7
:1012E00001010166016E01F001010091816D41F083
:1012F00080518165806D00F08050009000220F21A8
:10130000901E00F015F8BDE8084000F0A9B80000F4
:1013100000100240002809DB00F01F02012191406B
:101320004009800000F1E020C0F800117047000083
:10133000F0B40D460D4B1B68C3F30223C3F1070441
:10134000042C00D90424191D072901D2002300E030
:10135000DB1E012606FA04F1491E294099409E40F1
:10136000761E16403143F0BC02F03DBF0CED00E0AC
:1013700000F00701054A10684FF6FF03184040EAE5
:101380000120034908431060704700000CED00E0A5
:101390000000FA052F49304B0A6832214A432F4991
:1013A00000280AD0B0F5007F2DD0086820F4C06076
:1013B00040F480600860002070470868C0F3412056
:1013C000022805D051F8800F20F480700860F2E701
:1013D000D1F8800020F48070C1F88000086820F403
:1013E000C06040F400700860B2FBF3F0401C00E005
:1013F000401E4A69520501D50028F9D148694005C7
:10140000D9D5032070470868C0F34120022805D0D1
:1014100051F8800F40F480700860CCE7D1F880006C
:1014200040F48070C1F88000086820F4C06040F487
:1014300000700860B2FBF3F0401C00E0401E4A69F7
:10144000520501D50028F9D148694005B3D50320DC
:10145000704700004000002040420F000070004034
:101460000248816841F4804181607047007000400B
:101470002DE9F84F0446002600272068BE4D0003E2
:1014800066D54FF00008A86DC00009D4A86D40F0E3
:101490008050A865A86D00F0805000904FF00108C2
:1014A000DFF8D8A2DAF8000040F48070CAF8000033
:1014B000FFF7B0FE814607E0FFF7ACFEA0EB0900A6
:1014C000022801D9032603E0DAF80000C005F3D5AD
:1014D00026B13746B8F1010F36D039E0D5F8900083
:1014E00000F4407080B1216D81420DD055F8900F0D
:1014F00020F44070296841F480312960296821F482
:101500008031296045F89009C00711D0FFF782FEAD
:10151000814641F2883A07E0FFF77CFEA0EB090024
:10152000504501D9032603E0D5F890008007F3D594
:101530000EB13746CEE7D5F89000216D20F440700B
:101540000843C5F89000C5E7A86D20F08050A86555
:101550002078C00707D0D5F88800616820F0030024
:101560000843C5F888002078800707D5D5F888009B
:10157000A16820F00C000843C5F8880020784007D7
:1015800007D5D5F88800E16820F030000843C5F899
:1015900088002078000707D5D5F88800216920F059
:1015A000C0000843C5F888002078C00607D5D5F8E4
:1015B0008800616920F440700843C5F888002078ED
:1015C000800607D5D5F88800A16920F4406008435B
:1015D000C5F888002078400607D5D5F88800E1696D
:1015E00020F440500843C5F888002078000607D54D
:1015F000D5F88800216A20F440400843C5F88800E7
:101600002088C00507D5D5F88800616A20F44030ED
:101610000843C5F888002068800307D5D5F89C00EA
:10162000A16A20F003000843C5F89C0020888005CB
:1016300007D5D5F88800E16A20F440200843C5F8B2
:101640008800208840050FD5D5F88800216B20F44C
:1016500040100843C5F88800206BB0F5801F03D107
:10166000E86840F48010E860208800050FD5D5F8C0
:101670008800616B20F440000843C5F88800606B67
:10168000B0F5800F03D1E86840F48010E86020884E
:10169000C0040FD5D5F88800A16B20F04070084336
:1016A000C5F88800A06BB0F1807F03D1E86840F4F2
:1016B0008010E86020884FF0006180040ED5D5F8D6
:1016C0008800E26B20F040601043C5F88800E06BB2
:1016D000884203D1E86840F48010E8602088400424
:1016E0000ED5D5F88800226C20F040601043C5F874
:1016F0008800206C884203D1E86840F48010E860DC
:10170000208800040FD5D5F88800616C20F0405087
:101710000843C5F88800606CB0F1805F03D1E868C9
:1017200040F48030E8602068C0030FD5D5F8880009
:10173000A16C20F040400843C5F88800A06CB0F1CF
:10174000804F03D1E86840F48030E86020684003AF
:101750000FD5D5F89C00E16C20F440100843C5F883
:101760009C00E06CB0F5001F03D1E86840F48010E5
:10177000E8603846BDE8F88F001002400070004075
:101780002DE9F04704460D460027002C17D0DFF85E
:10179000A091D9F8000000F00F00A84211D2D9F8AA
:1017A000000020F00F002843C9F80000D9F800001D
:1017B00000F00F00A84204D00120BDE8F08701200E
:1017C000FBE720785B4EC00741F2883A4ED0606854
:1017D000DFF86481032806D002281ED03068400557
:1017E00020D40120E9E73068800101D40120E4E73A
:1017F00001F058FB404520D9B06810F0F00F04D03C
:101800002078800719D5A068B8B9B06820F0F0003A
:1018100040F08000B06080270FE03068800301D482
:101820000120CAE700F0D8F8404506D9B06820F09A
:10183000F00040F08000B0608027B068616820F060
:1018400003000843B060FFF7E5FC804607E0FFF7C0
:10185000E1FCA0EB0800504501D90320ADE7B068DA
:10186000616800F00C00B0EB810FF0D120688107B7
:1018700015D5400703D5B06840F4E060B06020782B
:10188000000705D5B06820F4605040F4E060B06017
:10189000B068A16820F0F0000843B06005E0802F38
:1018A00003D1B06820F0F000B060D9F8000000F07B
:1018B0000F00A84217D9D9F8000020F00F002843E4
:1018C000C9F80000FFF7A6FC074606E0FFF7A2FCF8
:1018D000C01B504501D903206FE7D9F8000000F084
:1018E0000F00A842F2D12078400705D5B068E16822
:1018F00020F4E0600843B0602078000706D5B068A7
:10190000216920F4605040EAC100B06000F064F842
:10191000B1680A4AC1F30311515C01F01F01C840CC
:101920000749086007480068BDE8F047FFF790BC2A
:10193000002002400010024000B4C4044C750008AE
:1019400040000020340000200F2202600B4A936800
:1019500003F003034360936803F0F003836093682C
:1019600003F4E063C360926802F46052D20802613B
:101970000348006800F00F00086070470010024044
:10198000002002400148006870470000400000202D
:1019900000B5FFF7F7FF05498968054AC1F3022141
:1019A000515C01F01F01C84000BD00000010024062
:1019B0005C75000800B5FFF7E5FF05498968054A31
:1019C000C1F3C221515C01F01F01C84000BD0000FD
:1019D000001002405C75000810B51A4A9068C0F308
:1019E0008101194801290BD091684410C1F381018C
:1019F000022906D09168C1F38101032903D0002098
:101A000010BD204610BDD16801F00303D168C1F3B9
:101A10000311491C032B0DD0B0FBF1F0D168C1F3C9
:101A200006214843D168C1F34161491C4900B0FB1C
:101A3000F1F010BDB4FBF1F0D168C1F306214843C9
:101A4000F0E70000001002400024F4002DE9F84304
:101A50000446002C0CD02078FE4DC00752D0A86858
:101A600000F00C00E96801F003010C2803D004E049
:101A70000120BDE8F883032916D0082814D0606837
:101A8000B0F5803F17D0B0F5A02F19D0286820F40A
:101A900080302860286820F480202860606818B3AF
:101AA000FFF7B8FB06461BE0286880032AD560686C
:101AB00040BB0120DDE7286840F480302860EDE776
:101AC000286840F480202860286840F4803028602E
:101AD000E4E7FFF79FFB801B642801D90320C8E7D8
:101AE00028688003F5D50DE0FFF794FB064606E075
:101AF000FFF790FB801B642801D90320B9E7286811
:101B00008003F5D4207880074ED5A86800F00C003B
:101B1000E96801F003010C2801D102290BD0042847
:101B200009D0E06870B3286840F480702860FFF73F
:101B300071FB06461BE02868400501D5E06868B1E6
:101B40006868217C20F0FE4040EA01606860C2487D
:101B50000068FFF77DFB38B301208AE7012088E7A2
:101B6000FFF758FB801B022801D9032081E7286872
:101B70004005F5D56868217C20F0FE4040EA016010
:101B8000686011E0286820F480702860FFF742FB4D
:101B9000064606E0FFF73EFB801B022801D9032022
:101BA00067E728684005F5D4207800072CD56069E0
:101BB000A8B1D5F8940040F00100C5F89400FFF7F3
:101BC00029FB064606E0FFF725FB801B022801D90A
:101BD00003204EE7D5F894008007F4D514E0D5F83B
:101BE000940020F00100C5F89400FFF713FB0646AF
:101BF00006E0FFF70FFB801B022801D9032038E71E
:101C0000D5F894008007F4D4207840076FD54FF0C2
:101C10000008A86DC00009D4A86D40F08050A865E8
:101C2000A86D00F0805000904FF001088B4E306896
:101C3000C00511D4306840F480703060FFF7EAFAD4
:101C4000074606E0FFF7E6FAC01B022801D9032089
:101C50000FE73068C005F5D5A068012813D0052826
:101C600018D055F8900F20F001002860286820F067
:101C7000040045F89009A06841F2883608B3FFF7E0
:101C8000C9FA074618E0D5F8900040F00100C5F801
:101C90009000F0E755F8900F40F0040028602868A5
:101CA00040F0010045F89009E5E7FFF7B3FAC01BE3
:101CB000B04201D90320DCE6D5F890008007F4D5C6
:101CC0000EE0FFF7A7FA074606E0FFF7A3FAC01BEE
:101CD000B04201D90320CCE6D5F890008007F4D4B7
:101CE000B8F1010F03D1A86D20F08050A8652078CD
:101CF00080062CD5A069A8B1D5F8980040F0010065
:101D0000C5F89800FFF786FA064606E0FFF782FA64
:101D1000801B022801D90320ABE6D5F89800800784
:101D2000F4D514E0D5F8980020F00100C5F898002B
:101D3000FFF770FA064606E0FFF76CFA801B0228F0
:101D400001D9032095E6D5F898008007F4D4E0691E
:101D5000F0B3A9684FF0FF37C1F3810103295ED0CA
:101D6000022807D0286820F080702860FFF752FA18
:101D700004464CE0286820F080702860FFF74AFA9B
:101D8000064606E0FFF746FA801B022801D9032029
:101D90006FE628688001F5D454F8201F6068228A15
:101DA000401E41EA0010A16807EB5202090241EA15
:101DB00042510843217D07EB510140EA4160217BFC
:101DC00040EAC160E968264A11400843E86000E043
:101DD00062E0286840F080702860E86840F0807019
:101DE000E860FFF717FA044606E0FFF713FA001B56
:101DF000022801D903203CE628688001F5D54BE094
:101E0000FFF708FA001B022801D9032031E62868F1
:101E10008001F5D4E86813490840E8603CE00128F7
:101E200038D0E868226A00F00301914230D1616A3B
:101E300000F0F002491EB2EB011F29D1A26A00F4A2
:101E4000FE41B1EB022F23D100F0784194F82C2011
:101E50000AE0000000100240340000200070004042
:101E60000C809F01FCFFEEFEB1EBC26F10D1228E01
:101E700000F4C00107EB5202B1EB425F08D194F8C5
:101E8000341000F0C06007EB5101B0EB416F03D09C
:101E90000120EEE50120ECE50020EAE570470000B6
:101EA00038B50446206842688168C9434B060AD5A4
:101EB000CB0708D1D3435B0605D4E16C01B02046C3
:101EC000BDE8304008478B0708D4D3431B0605D430
:101ED000216D01B02046BDE8304008478B0603D590
:101EE0004B0601D5CB0551D4D3439B064ED44B06AC
:101EF0000AD494F85D30032B49D0236E43F00403D9
:101F00002366C368836800938B0609D4236E43F06D
:101F10000103236683680093036823F04003036092
:101F2000C80506D4206E40F008002066206880684E
:101F30000090206E002829D02068416821F0E0013F
:101F40004160012084F85D00900701D4D00722D0C1
:101F50002068416821F003014160114DA06D40B13E
:101F60008563A06DFEF70EFF18B1206E40F04000B3
:101F70002066606D002809D08563606DFEF702FF62
:101F8000002803D0206E40F04000206638BDC168B4
:101F90008068009038BD2046FFF780FF38BD000004
:101FA000CD2F000870B50446002C09D0606A0025CA
:101FB00040B125616561A56294F85D0040B10CE017
:101FC000012070BD6068B0F5827FF4D0E561F2E772
:101FD00084F85C50204600F05BF8022084F85D0035
:101FE0002068016821F040010160E1684FF4E0627F
:101FF000914201D9002001E04FF48050B1F5706F9B
:1020000002D0914200D0A562A188228901F4827198
:1020100002F404421143227C02F002021143227DA9
:1020200002F001021143228B02F400721143227F5D
:1020300002F03802114394F8202002F0800211438C
:10204000228D02F40052114322681160A16904221A
:1020500002EA114194F8242000F4805002F01002AA
:10206000114394F8342002F008021143A28902F4CB
:10207000706211430143206841602068C16921F406
:102080000061C1612566012084F85D00002070BDFB
:10209000F0B587B00446142102A8FEF77DFA464B3E
:1020A00021684648022600254FF0904299421CD1F3
:1020B000016E41F480510166016E01F4805101917D
:1020C000C16C41F00101C164C06C00F001000190DD
:1020D000E02002900396049505950520069002A93C
:1020E0001046FEF7ADFF07B0F0BD354B9942FAD16F
:1020F000816D41F400418165816D01F400410191E0
:10210000C16C41F00101C164C16C01F00101019198
:10211000C16C41F00401C164C06C00F00400019086
:10212000D81302900396049505950627069702A9F1
:102130001046FEF785FF4FF4E05002900396049599
:102140000595069702A91F48FEF77AFF1F4E1E4805
:1021500030600F2070601020B060F560802737611C
:102160007561B561F56135623046FEF7ADFE08B1C7
:10217000FEF703FD6665B4621348144E14306036F2
:1021800030600E207060B560F56037617561B561D3
:10219000F56135623046FEF797FE08B1FEF7EDFCBB
:1021A000A665B462002205213320FFF7C1F8332071
:1021B000FFF7B0F897E70000003001400010024040
:1021C000003C00400008004808000240881400203D
:1021D000704770472DE9F84F04468A4691461D46E0
:1021E000FFF718F8064694F85D00012802D0022097
:1021F000BDE8F88FBAF1000F21D05FEA09001ED0C8
:1022000094F85C0001281CD04FF0010884F85C8031
:10221000032084F85D0000272766C4F838A0A4F8DE
:102220003C90A4F83E902764A4F84470A4F846704B
:102230002765E764A068B0F5004F04D00DE00120E9
:10224000D6E70220D4E72068016821F04001016050
:102250002068016841F480410160206801684906F6
:1022600003D4016841F040010160E068B0F5E06F1F
:102270002FD9606810B1B9F1010F20D1A06B21688E
:102280000088C860A06B801CA063E08F401EE087C0
:1022900015E020688168890709D5A16B0988C160AC
:1022A000A06B801CA063E08F401EE08707E0FEF774
:1022B000B1FF801BA84201D3681C04D11DB1E08F7F
:1022C0000028E6D149E084F85D8084F85C70032042
:1022D0008EE7606810B1B9F1010F3BD1E08F0128A2
:1022E0000AD9A06B21680088C860A06B801CA0631D
:1022F000E08F801EE0872DE0A06B216800780873D6
:10230000A06B401CA063E08F401EE08722E02068A5
:102310008168890716D5E18F012909D9A16B098840
:10232000C160A06B801CA063E08F801EE08711E07D
:10233000A16B09780173A06B401CA063E08F401E65
:10234000E08707E0FEF766FF801BA84201D3681C08
:102350000ED16DB1E08F0028D9D1324629462046F2
:1023600000F0FCFE08B120202066A06830B109E032
:1023700084F85D8084F85C70032039E72068C168C8
:102380008068009084F85D8084F85C70206E08B1ED
:1023900001202DE700202BE770B5044694F85D007E
:1023A0006568012808D0B5F5827F03D1A5680DB90D
:1023B000042801D0022070BD51B34AB343B394F84E
:1023C0005C00012826D0012684F85C6094F85D004A
:1023D000042802D0052084F85D0000252566A1634D
:1023E000A387E3872264A4F84430A4F84630E56468
:1023F00025652068416821F4C0414160E068B0F57E
:10240000E06F09D92068416821F48051416033E0D0
:10241000012070BD022070BD2068416841F48051E8
:102420004160606D4FF48061806988420CD194F8FE
:102430003C00C00740D02068426842F480424260BD
:10244000E08F06EB5000E087A06D8069884213D1D1
:102450002068416821F480514160B4F84600C0070B
:1024600033D02068416841F400514160B4F846001F
:1024700006EB5000A4F8460094F85D0004282FD025
:10248000A16D34480863A16D3348C862A16D33481B
:102490004863A06D8563B4F846302168226C0C3126
:1024A000A06DFEF773FD10B3206E40F010002066A3
:1024B00084F85C50012070BD2068426822F480429C
:1024C0004260E08F4008E087BEE72068416821F461
:1024D00000514160B4F846004008A4F84600CBE73C
:1024E000A16D1F480863A16D1E48C862CEE7206831
:1024F000416841F001014160606D0563606DC56236
:10250000606D4563606D8563E38F2268A16B0C325B
:10251000606DFEF73BFD38B1206E40F01000206684
:1025200084F85C50012070BD20680168490603D41E
:10253000016841F04001016084F85C502068416806
:1025400041F0200141602068416841F00201416092
:10255000002070BD0B30000883300008DF2F00081A
:10256000013000081530000810B500680B4988429A
:1025700013D10B49142201F58070FDF774FF09484F
:10258000C078032806D0064A1423A2F580610648C5
:10259000FFF702FF05490120087010BD003C004014
:1025A000C0090020C00A00202414002000000020E0
:1025B0007047704770477047704770477047704763
:1025C00010B50446002C03D094F83D0010B107E08C
:1025D000012010BD002084F83C00204600F017F8D0
:1025E000022084F83D00211D206801F099FA0120A5
:1025F0003D34E0726070A070E07020716071A07175
:10260000E07120726072A0722070002010BD7047CF
:1026100090F83D10012901D001207047022180F877
:102620003D100168CA6842F00102CA60006815499D
:10263000884214D0B0F1804F11D0134988420ED097
:10264000124988420BD01249884208D01149884269
:1026500005D01149884202D0104988420CD18168C6
:102660000F4A114006290BD0B1F5803F08D0016810
:1026700041F00101016003E0016841F001010160E6
:1026800000207047002C014000040040000800407A
:10269000000C004000340140004001400050014067
:1026A0000700010070472DE9F04104462068C66824
:1026B00005694FF00007A90714D5B10712D5F91E17
:1026C00001610120207720688069800703D02046BF
:1026D000FFF7E8FF05E0204600F0BAF8204600F0DA
:1026E000B8F82777680717D5700715D521686FF0F8
:1026F00004000861022020772068806910F4407F80
:1027000003D02046FFF7CEFF05E0204600F0A0F8FA
:10271000204600F09EF82777280716D5300714D5F5
:1027200021686FF008000861042020772068C069E4
:10273000800703D02046FFF7B5FF05E0204600F0F4
:1027400087F8204600F085F82777E80617D5F006C9
:1027500015D521686FF010000861082020772068E7
:10276000C06910F4407F03D02046FFF79BFF05E0CF
:10277000204600F06DF8204600F06BF82777E80758
:1027800008D0F00706D021686FF0010008612046EC
:1027900000F060F8280601D4A80408D5300606D554
:1027A00021686FF4025008612046FFF703FFE80537
:1027B00008D5300606D521686FF480700861204680
:1027C000FFF7F7FE680608D5700606D521686FF09A
:1027D00040000861204600F047F8A80608D5B0067A
:1027E00006D521686FF0200008612046FFF7E3FE60
:1027F000E80208D5F00206D521686FF48010086160
:102800002046FFF7DAFEA80208D5B00206D52168F7
:102810006FF4001008612046FFF7CEFE680208D56D
:10282000700206D521686FF4800008612046FFF72A
:10283000C5FE28020AD5300208D521686FF40000D1
:1028400008612046BDE8F041FFF7B9BEBDE8F08160
:102850007047704700680349884201D1FEF7E0BC29
:102860007047000000140040704790F88410012960
:1028700018D0012180F884102421C0F88810016844
:102880000A680B6823F001030B6022F0005100225C
:102890004266036819602021C0F8881080F88420FF
:1028A000002070470220704770B5044694F88400F9
:1028B00001281DD0012084F884002420C4F8880059
:1028C00020680568026822F00102026020688268C0
:1028D00022F060620A438260204601F08FF920688E
:1028E00005602020C4F88800002084F8840070BDB2
:1028F000022070BD70B5044694F8840001281DD0F4
:10290000012084F884002420C4F888002068056829
:10291000026822F0010202602068826822F06042B0
:102920000A438260204601F069F920680560202092
:10293000C4F88800002084F8840070BD022070BDB7
:1029400010B50446002C03D0D4F8880010B107E07D
:10295000012010BD002084F88400204600F028F8F3
:102960002420C4F888002068016821F0010101607A
:10297000A06A10B1204601F065F9204601F046FA40
:10298000012813D02068416821F4904141602068FB
:10299000816821F02A0181602068016841F001010D
:1029A00001602046BDE8104001F0B0B9012010BD23
:1029B00010B59CB00446142117A8FDF7EDFD542175
:1029C00002A8FDF7E9FD16492068884226D10120BA
:1029D00002900024039402A8FEF74AFD08B1FEF716
:1029E000CCF81048016E41F480410166016E01F49B
:1029F00080410191C16C41F00401C164C06C00F0E0
:102A000004000190302017900220189019941A9415
:102A100007201B9017A90448FEF712FB1CB010BD3D
:102A2000003801400010024000080048FEE70000A6
:102A300010B50A4C012251032046FEF7E4FB0122A7
:102A4000D1032046FEF7DFFB4EF6602002F0D4FAF9
:102A5000BDE81040002000F091BA000000080048D6
:102A600008B51148816C41F004018164816C01F06A
:102A700004010091816C41F001018164806C00F0DF
:102A800001000090002205210B20FEF751FC0B20D5
:102A9000FEF740FC002205210C20FEF749FCBDE8B2
:102AA00008400C20FEF736BC0010024030B59DB047
:102AB000294D28681C90002201211CA802F024FB4B
:102AC000264C606168681B90002201211BA802F05F
:102AD0001BFBA061A8681A90002201211AA802F02D
:102AE00013FBE061142205F10C0115A8FDF700FDB0
:102AF000002115A802F0F1FA2060142205F120014E
:102B000010A8FDF7F5FC002110A802F0E6FA6060BD
:102B1000142205F134010BA8FDF7EAFC00210BA8F3
:102B200002F0DBFAA060142205F1480106A8FDF7C7
:102B3000DFFC002106A802F0D0FAE060142205F1C3
:102B40005C0101A8FDF7D4FC002101A802F0C5FA40
:102B500020611DB030BD0000B474000814000020D6
:102B60002DE9F04F87B0142102A8FDF715FD854827
:102B7000C16C41F01001C164C16C01F01001019100
:102B8000C16C41F00401C164C16C01F00401019108
:102B9000C16C41F02001C164C16C01F020010191C0
:102BA000C16C41F04001C164C16C01F04001019170
:102BB000C16C41F00101C164C16C01F001010191DE
:102BC000C16C41F00201C164C16C01F002010191CC
:102BD000C16C41F00801C164C06C00F008000190B4
:102BE000DFF8A481002244F2FF714046FEF70BFBA0
:102BF000DFF898A14AF2CF36002231465046FEF760
:102C000002FBDFF88CB1002240F254615846FEF717
:102C1000FAFADFF88091012240F202414846FEF7BD
:102C2000F2FA01224FF460415846FEF7ECFA012215
:102C30004FF460514046FEF7E6FA002249F6F8618B
:102C40005548FEF7E0FA01224FF4C0415248FEF722
:102C5000DAFA002240F2F9314846FEF7D4FA4FF48E
:102C6000F857002239464FF09040FEF7CCFA43F671
:102C7000FF7002900125039500240494059402A995
:102C80004046FEF7DDF9029603950494059402A9E7
:102C90005046FEF7D5F9AE0302960394049402A9B8
:102CA0005046FEF7CDF9282002900394049402A91F
:102CB0005846FEF7C5F94EF254600290039504940D
:102CC000059402A95846FEF7BBF940F2FA7002904B
:102CD00003950494059402A94846FEF7B1F918201B
:102CE00002900394049402A94FF09040FEF7A8F9D3
:102CF000042002900394049402A92748FEF7A0F947
:102D00000296039504940226059602A94046FEF712
:102D100097F9E80302900394049402A94046FEF751
:102D20008FF9B800029003950494059602A91A48F9
:102D3000FEF786F948F2F820029003950494059472
:102D400002A91548FEF77CF94FF6FF700290039434
:102D5000049402A91148FEF773F9029503950494AF
:102D6000059602A94846FEF76BF90297039504946D
:102D7000059402A94FF09040FEF762F907B0BDE854
:102D8000F08F0000001002400010004800080048CA
:102D9000001400480018004800040048000C0048D7
:102DA00010B51248104901604FF482714160002152
:102DB00081604FF4E062C26002220261416112024E
:102DC00082612022C2610162416281620722C26285
:102DD000016308214163FFF7E5F8002803D0BDE84F
:102DE0001040FDF7CABE10BD00300140C0130020E6
:102DF00010B510480E4901600021416081604FF418
:102E0000E062C260022202610122426181610162CC
:102E1000416281620722C26201634163FFF7C2F827
:102E2000002803D0BDE81040FDF7A7BE10BD00008C
:102E3000003C00402414002010B5184816490160D9
:102E40004FF4E131416000218160C16001610C22D9
:102E500042618161C161016241628162FFF770FD7F
:102E600008B1FDF78AFE00210C48FFF743FD08B1C9
:102E7000FDF783FE00210948FFF716FD08B1FDF7B5
:102E80007CFE0648FFF7F1FC002803D0BDE81040A7
:102E9000FDF773BE10BD000000380140481500204A
:102EA000FEE7FEE71049C86800F00302C868C0F3F7
:102EB0000310401C032A0ED00C4AB2FBF0F0CA6883
:102EC000C2F306225043C968C1F34161491C49005D
:102ED000B0FBF1F07047064AB2FBF0F0CA68C2F3EB
:102EE00006225043EFE70000001002400024F400E7
:102EF00000127A0020480068C0F3C011C0F38012AD
:102F000041EA4201C0F3401241EA8201C0F30012DB
:102F100041EAC201C0F3C00241EA0211C0F38002DB
:102F200041EA4211C0F3400241EA821100F001027D
:102F300041EAC211C0F3C03241EA0221C0F380323B
:102F400041EA4221C0F3403241EA8221C0F300321B
:102F500041EAC221C0F3C02241EA0231C0F380221B
:102F600041EA4231C0F3402241EA8231000A41EA9B
:102F7000C03000B270470000100C004810B50120AE
:102F800000F014F80120FDF71FFD0120FDF7BEFD44
:102F90000220FDF7FDFC0020FDF716FD0020FDF7E7
:102FA000B5FDBDE810400220FDF7F2BC034B4FF425
:102FB000807100F001021846FEF725B900100048A4
:102FC0000148FEF76DBF00002414002010B5806A90
:102FD0000021A0F84610C187FEF760FF10BD10B5B4
:102FE000806A01684A6822F003024A60016E41F07B
:102FF00010010166012180F85D10FEF74FFF10BD42
:1030000010B5806AFFF7E5F810BD10B5806AFFF7CC
:10301000CFFA10BD70B50546AC6AFEF7FBF8024664
:1030200028680068800628D42068416821F02001C3
:103030004160A06818B96068B0F5827F17D0206839
:10304000416821F0010141606421204600F047F809
:1030500008B1202020660020A4F84600012084F852
:103060005D00206E48B12046FEF718FF70BD206855
:10307000416821F003014160E6E72046FFF7A8F828
:1030800070BD70B50546AC6AFEF7C4F80246286804
:10309000006880061FD42068416821F0200141604B
:1030A0006421204600F05AF818B1206E40F020004C
:1030B00020662068416821F0030141600020E0871C
:1030C000A4F84600012084F85D00206E18B1204667
:1030D000FEF7E4FE70BD2046FFF746FA70BD2DE90D
:1030E000F8430446884615464FF4004660684FF49E
:1030F00082797711484509D1A068B04201D0B84221
:1031000004D12068016821F040010160434600229B
:1031100080212046009500F0C3F830B1206E40F0C9
:10312000200020660320BDE8F8836068484513D17D
:10313000A068B04201D0B8420ED1434600224FF4FD
:10314000C0612046009500F03BF828B1206E40F0A9
:10315000200020660320E6E70020E4E7F8B50446F7
:103160000E461546334600224FF4C05120460095C6
:1031700000F026F828B1206E40F0200020660320E1
:10318000F8BD3346002280212046009500F088F8E3
:1031900028B1206E40F0200020660320F8BD3346A1
:1031A00000224FF4C0612046009500F009F828B1D4
:1031B000206E40F0200020660320F8BD0020F8BDFE
:1031C0002DE9FC5F04460C9D0E46174698464FF0CD
:1031D000000BCDF800B0FEF71DF8401BA8EB000572
:1031E000FEF718F88146D4F800A00AF10C0A2B4823
:1031F0000068C0EBC00000EB8000000D6843019048
:1032000017E0B6F5C06F05D127B99AF80000009015
:103210009DF80000B8F1FF3F0BD0FDF7FBFFA0EBDE
:103220000900A8420DD265B10198A0B30198401ED3
:103230000190206880683040B842E2D10020BDE8AB
:10324000FC9F2068416821F0E00141606068B0F5B2
:10325000827F0BD1A068B0F5004F02D0B0F5806F2F
:1032600004D12068016821F040010160A06AB0F536
:10327000005F09D12068016821F4005101602068D5
:10328000016841F400510160012084F85D0084F878
:103290005CB00320D3E7FFE70025CAE74000002029
:1032A0002DE9F84304460F4691461E46089DFDF75A
:1032B000B1FF401B351AFDF7ADFF80462748006877
:1032C000C0F3CB30684300900DE0701C0BD0FDF7CD
:1032D000A1FFA0EB0800A84210D27DB10098B8B3BE
:1032E0000098401E00902068806837EA000032D0C5
:1032F00000204845E9D10020BDE8F88320684168F6
:1033000021F0E00141606068B0F5827F0BD1A068D8
:10331000B0F5004F02D0B0F5806F04D1206801688D
:1033200021F040010160A06AB0F5005F09D120687A
:10333000016821F4005101602068016841F40051E6
:10334000016001205C346070002020700320D3E70E
:10335000FFE70025C7E70120CBE700004000002081
:1033600070B505460C460120FFF720FE0120FDF751
:103370002BFB0720FDF7CAFB0220FDF709FB00200D
:10338000FDF722FB2846FDF7C1FB0220FDF700FBFD
:103390000020FDF719FB2046FDF7B8FBBDE87040A3
:1033A0000220FDF7F5BA00002DE9F0410022274E7A
:1033B000274D2DE08318402A10D2D41702EB547405
:1033C000E71024F00704141BB6F800C06744DFF8C8
:1033D00084C01CF80770E74007F001042CB30224F6
:1033E000DF1703EB977C4FEAAC072CF0030CA3EB41
:1033F0000C035B0015F807C04FF0030808FA03F848
:103400002CEA080C9C404CEA040C05F807C0521C3E
:103410008A42CFDBC21700EB927294100844401E20
:10342000C11700EB9170871006E00124D8E7295DF1
:10343000E0B2FFF795FF641CBC42F8DD0649308816
:10344000097808443080BDE8F081000010000020B9
:10345000C0040020C00000200C00002010B504466D
:103460000120FFF7A3FD0120FDF7AEFA1120FDF7C3
:103470004DFB0220FDF78CFA0020FDF7A5FA20464F
:10348000FDF744FBBDE810400220FDF781BA0000C3
:1034900070B504462DED028B0846C4F3870503F092
:1034A00045FC41EC180B04F0030003F03FFC41EC39
:1034B000110B9FED200B00F0A7FE53EC182B51ECE5
:1034C000100B03F083FC03F0EDFBC4B20120FFF707
:1034D0006DFD0120FDF778FA0520FDF717FB0220AE
:1034E000FDF756FA0020FDF76FFA2846FDF70EFBB0
:1034F0000220FDF74DFA0020FDF766FA2046FDF7A1
:1035000005FB0220FDF744FA0120FDF75DFA0820D3
:10351000FDF7FCFA0220FDF73BFA0020FDF754FA14
:103520002846FDF7F3FABDEC028B0220BDE870409F
:10353000FDF72EBA000000000000104070B50446F0
:103540002DED028B0846C4F3C70503F0EFFB41ECF9
:10355000180B04F0070003F0E9FB41EC110B9FEDA1
:10356000200B00F051FE53EC182B51EC100B03F024
:103570002DFC03F097FBC4B20120FFF717FD0120DB
:10358000FDF722FA0620FDF7C1FA0220FDF700FA46
:103590000020FDF719FA2846FDF7B8FA0220FDF7DA
:1035A000F7F90020FDF710FA2046FDF7AFFA0220E8
:1035B000FDF7EEF90120FDF707FA0920FDF7A6FA5D
:1035C0000220FDF7E5F90020FDF7FEF92846FDF79A
:1035D0009DFABDEC028B0220BDE87040FDF7D8B922
:1035E00000000000000000400A4C4FF460464FF419
:1035F000FA75012231462046FDF705FE284601F006
:103600005FFD002231462046FDF7FDFD284601F012
:1036100057FDEEE700140048DFF86082984D994CA2
:10362000994EDFF868929A4F387801287CD1DFF8FC
:1036300064A29AF8000055282BD19AF80100AA2814
:10364000FAD19AF81200AA28F6D19AF81300552850
:10365000F2D10E210AF10200FDF779F99AF8101063
:10366000B1EB102FE8D10E210AF10200FDF76FF93E
:103670009AF81110C0B28842DED19AF803000128EE
:1036800008D0022851D0032869D004286BD005281F
:103690007ED0EDE09AF805009AF8041040EA012087
:1036A000A8F800009AF807009AF8061040EA0120EE
:1036B00028809AF809009AF80810DFF8DCB140EA8F
:1036C0000120ABF800009AF80B009AF80A1040EAC3
:1036D000012172480180002089F80000012108467C
:1036E000FDF7FAFA4FF0904A00224FF480715046ED
:1036F000FDF789FD00224FF400715046FDF783FD70
:10370000002208216648FDF77EFD0221BBF800007B
:10371000FFF7BEFE0121BBF80000FFF70FFF28886E
:10372000C01DC0082070A3E0A4E09AF80200217830
:10373000884213D100205C4BDFF868C11A8809E089
:103740000AEB000B02EB000E9BF804B00CF80EB075
:10375000401CC0B28842F3D35018188088E0534907
:103760000120087084E00020FFF708FC4F4900208A
:103770000870A8F800002880474908804749088059
:103780004B4908802070484908803070494900E062
:103790001DE0087089F800004FF4806A51464148E6
:1037A000FCF7D8FE4FF400614348FCF7D3FE4FF41A
:1037B00080714248FCF7CEFE51464148FCF7CAFEF4
:1037C00000224FF400713F48FDF71DFD50E09AF8CC
:1037D00005009AF8041040EA0120A8F800009AF8C1
:1037E00007009AF8061040EA012028809AF808009D
:1037F000307030499AF809200A70FFF72FFE4FF415
:10380000807A012251463048FDF7FDFCDFF890B088
:10381000002210215846FDF7F6FC51464FF0904A21
:1038200001225046FDF7EFFC012251025046FDF700
:10383000EAFC012208215846FDF7E5FC2888C01D56
:10384000C00820704FF0000A307800EB8A1080B278
:103850000121FFF773FE0AF1010A0AF0FF0ABAF12B
:10386000100FF1D3012001F02BFC012089F800009A
:1038700000203870052001F023FCD4E6020000206F
:10388000040000200C0000200A0000200B00002093
:1038900000000020C00A00200600002008000020D0
:1038A00000180048C00000200E0000201200002078
:1038B000100000200D000020C00B0020C0040020DC
:1038C000C0050020001400480008004888B0DFF858
:1038D00064B1594F594D4FF0030A2878012851D14E
:1038E0005748007810B1012821D04BE00024554EF4
:1038F000DFF85481DFF854910EE03188B8F8000009
:10390000FFF752FD0A2001F0DBFB0020FCF784FFEB
:1039100027F81400641CA4B2BBF8000099F800104A
:10392000B0FBF1F0A042E8D8022028702AE0474816
:10393000BBF800100078B1FBF0F8002400261DE071
:103940004048018840480088FFF72EFD0A2001F01A
:10395000B7FB6846FCF748FF00203D496B460A78F4
:1039600008E0A44633F81010641CA4B227F81C1019
:10397000401CC0B29042F4D3761CB6B24645DFD3A9
:10398000022028702878022846D104242F48BBF84A
:1039900000100078B1FBF0F12948007818B12C48EC
:1039A0000078414389B22B4E4FF0550886F80080CD
:1039B0004FF0AA0986F801904800B07086F803A07D
:1039C00000200CE037F81020631C4FEA122CDBB209
:1039D00006F804C05C1CE4B2F254401C80B2884279
:1039E000F0D3A01EC1B2B01CFCF7B1FF020A611CEB
:1039F000C9B232554A1CD2B27054501CC0B206F83B
:103A00000290411CCBB206F8008085F800A0124A53
:103A100010491248FEF7C0FC2878032806D101227D
:103A200051020F48FDF7EFFB04202870052001F03C
:103A300047FB52E70E000020C00B002012000020C0
:103A40000B00002004000020020000200C000020D9
:103A50000D000020C0050020C00900202414002013
:103A6000001400481E2001F02BFBFBE71E2001F094
:103A700027FBFBE710B5502080F31188BFF34F8F71
:103A8000BFF36F8F02F022FD18B104494FF0805050
:103A90000860002080F3118810BD000004ED00E0F4
:103AA00010B594B0382106A8FCF776FD142101A8C2
:103AB000FCF772FD0020FDF76DFC0120069000046C
:103AC000079002200D9003240E940F905521109121
:103AD00011901290139006A8FDF7B8FF08B1FDF7FA
:103AE0004CF80F2001900294002003900490059060
:103AF000042101A8FDF744FE002801D0FDF73DF8A0
:103B000014B010BD0248016841F4700101607047B3
:103B100088ED00E00148FEF7C6BD0000DC1500207E
:103B20002DE9F04F02682C4EDFF8B090DFF8B0A01E
:103B3000DFF8B0B02C4B2D4C4FF0804EB0420BD084
:103B4000704509D0484507D0504505D0584503D0A9
:103B5000984201D0A04203D122F070054A682A435E
:103B6000234FDFF890C0DFF89080B04211D070454D
:103B70000FD048450DD050450BD0584509D098423C
:103B800007D0B84205D0604503D0404501D0A042DF
:103B900003D122F44075CA682A434D6922F080029D
:103BA0002A438D68C5620D688562B04209D098428B
:103BB00007D0B84205D0604503D0404501D0A042AF
:103BC00001D109690163016841F00401016001212B
:103BD00041610260BDE8F08F002C0140000400400C
:103BE00000080040000C004000340140005001403B
:103BF00000400140004401400048014030B5416EA2
:103C0000002917D002689168C1F342619268520F8F
:103C10000B4B9C5CE50003F10804A25CB5FBF2F2DF
:103C2000A0F86A205A5C615CD200B2FBF1F1A0F806
:103C3000681030BD012168304180018030BD000036
:103C40003C75000890F82810090706D501684A68F5
:103C5000836B22F400421A434A6090F82810C90787
:103C600006D001684A68C36A22F400321A434A60E7
:103C700090F82810890706D501684A68036B22F47A
:103C800080321A434A6090F82810490706D5016827
:103C90004A68436B22F480221A434A6090F8281045
:103CA000C90606D501688A68C36B22F480521A439C
:103CB0008A6090F82810890606D501688A68036C26
:103CC00022F400521A438A6090F82810490611D550
:103CD00001684A68436C22F480121A434A60416CBE
:103CE000B1F5801F06D101684A68836C22F4C002D6
:103CF0001A434A6090F82810090606D501684A68F8
:103D0000C06C22F4002202434A6070472DE9F84358
:103D100004460025C4F89050FDF77CFA80462068E0
:103D200000684FF0200600076FF07E4716D5434627
:103D3000002231042046009700F0F0F970B12068AD
:103D400050E8001F21F0800140E80012002AF6D15F
:103D50008434666025700320BDE8F883206800681D
:103D6000400720D5434600224FF4800120460097AB
:103D700000F0D4F9B8B1206850E8001F21F4907128
:103D800040E80012002AF6D12068083050E8001FF1
:103D900021F0010140E80012002AF5D18434A66028
:103DA00025700320D8E76C34E661266225606560E3
:103DB00025760020D0E7000010B5016851E8002FFB
:103DC00022F4907241E80023002BF6D10E4B0168DB
:103DD000083151E8002F1A4041E80024002CF6D1A8
:103DE000C16E012908D1016851E8002F22F01002AC
:103DF00041E80023002BF6D12021C0F88C100021CF
:103E0000C166416710BD0000FEFFFFEF2DE9F041E4
:103E100004460025B54B20682269A168E669114374
:103E20006269324311430268B14E32400A43026074
:103E300020684168E26821F4405111434160A06963
:103E40002168994201D0226A10438A68A94E324003
:103E500002438A602068C16A626A21F00F0111433F
:103E6000C162A5492268A5488A4214D1D0F88800C9
:103E700010F0030007D0012809D0022805D003283C
:103E800007D0102185E0012183E0022181E0042197
:103E90007FE008217DE09A498A4214D1D0F8880059
:103EA00010F00C0007D0042809D0082805D00C28F1
:103EB00007D010216DE000216BE0022169E00421B0
:103EC00067E0082165E08F498A4214D1D0F8880064
:103ED00010F0300007D0102809D0202805D0302855
:103EE00007D0102155E0002153E0022151E00421C8
:103EF0004FE008214DE084498A4214D1D0F888006F
:103F000010F0C00007D0402809D0802805D0C02874
:103F100007D010213DE000213BE0022139E00421DF
:103F200037E0082135E079498A4217D1D0F8880076
:103F300010F440700AD0B0F5807F0BD0B0F5007F50
:103F400006D0B0F5407F07D0102122E0002120E00C
:103F500002211EE004211CE008211AE09A4217D138
:103F6000D0F8880010F440600AD0B0F5806F0BD014
:103F7000B0F5006F06D0B0F5406F07D0102108E013
:103F8000002106E0022104E0042102E0082100E013
:103F900010215F485F4E00274FF4004C9A4239D100
:103FA000B9B1022905D0042916D0082917D000205C
:103FB000012560B3616A36F81120B0FBF2F1666842
:103FC00006EB46038B4202D8B1EB063F09D9012527
:103FD00082E0FDF7DDFCECE7FDF7FEFCE9E760467B
:103FE000E7E700231946FCF7C7F9090241EA106127
:103FF000020270081018794132460023FCF7BCF920
:10400000454AA0F54071914202D82168C86063E03A
:10401000012561E0E2694FF6EF78624530D1092968
:1040200011D2DFE801F0050812100B1010100E007D
:10403000FDF7AEFC09E0FDF7BDFC06E0FDF7CCFCAA
:1040400003E0604601E000200125E8B3616A36F82C
:104050001110B0FBF1F04100606801EB5001B1FBC1
:10406000F0F0A0F11001414508D84FF6F071014081
:10407000C0F3420001432068C1602DE001252BE020
:10408000092911D2DFE801F0050812100B101010F9
:104090000E00FDF77DFC09E0FDF78CFC06E0FDF766
:1040A0009BFC03E0604601E00020012560B1616AED
:1040B00036F81110B0FBF1F1606801EB5001B1FB73
:1040C000F0F0A0F1100100E006E0414503D82168BE
:1040D00080B2C86000E00125012068346080208043
:1040E000E76027612846BDE8F081000000800040BD
:1040F000F369FFCFFFF4FF110038014000100240C8
:104100000044004000480040004C00400050004087
:104110000024F40024750008FFFC0F002DE9F0478F
:104120000446089E0D46174698464FF0000935E0B4
:10413000701C33D0FDF76EF8A0EB0800B04219D820
:10414000C6B120680168490728D5802D26D0402DAA
:1041500024D0C169C94309070ED420680825056227
:104160002046FFF729FEC4F8905084F8849001207F
:10417000BDE8F0870320FBE7C069C04300050DD40C
:1041800021684FF4006008622046FFF715FE2020EA
:10419000C4F8900084F884900320E9E72068C0699F
:1041A00035EA000004D00020B842C1D00020DFE78B
:1041B0000120F9E7FEE703B401984100009850EAB6
:1041C000C12018BF04204A0D18BF40F0010040F282
:1041D000FF72B2EB515F08BF40F00200012808BF38
:1041E000052002B070470907090E002804DB00F122
:1041F000E02080F80014704700F00F0000F1E0208C
:1042000080F8141D704700002DE9F04D2DED040BD2
:104210002DED0E8B96B0DDE92550279CDDF890A0A2
:1042200025F0004624F00048BAF1000F14BF012128
:10423000002101EB4502FC4953184A1093422AD34E
:10424000002814BF0123002303EB44030B44F74968
:104250008B4220D358EA00019FEDF59B76D0DFF822
:10426000D8B35D4503D1BAF1000F05D188E0BAF1AA
:10427000000F08BF002100D0012101EB450111F51D
:10428000001F08D8002814BF0121002101EB4401C0
:1042900011F5001F0BD99DED261B9DED240B16B0CB
:1042A000BDEC0E8B04B0BDE8F04D00F069BE0027F8
:1042B000002DBCBFE149884521DAE1498845A8BF06
:1042C00002271CDAC3451ADCDE4901EB2851142908
:1042D00008DDC1F1340220FA02F101FA02F2824251
:1042E0000DD108E058B9C1F1140228FA02F101FA1F
:1042F00002F2424503D101F00101C1F1020756EA81
:104300000A0124D1002C22DA002D18BF022F01D07F
:10431000012F0AD00220FCF76EF916B0BDEC0E8B0F
:1043200004B0BDE8F04D00F013BE0220FCF763F9C5
:1043300000F00EFE51EC100B02F094FA41EC100B61
:1043400016B0BDEC0E8B04B0BDE8F08D18E09FED0B
:10435000BEAB9FEDBF8B002871D1B848804522D1FC
:1043600005F1804010F5801008BFBAF1000F07D0AA
:10437000B3450ADC002CA8BF9DED260BE0DA0DE06A
:10438000B0EE490AF0EE690ADAE7002C06DA9DED94
:10439000260B51EC100B02F065FA6FE0AE48784442
:1043A00090ED000BCCE7D8454DD1002C48DA2EB16A
:1043B00086423AD1BAF1000F42D126E0BAF1000F9D
:1043C00013D00220FCF717F900F0F6FD8DED020B7B
:1043D0009DED240B8DED000B10EE900A039961F317
:1043E0001E0003909DED020BAAE78DED02AB9DED43
:1043F000240B1AEE901A10EE900A8DED000B61F36B
:104400001E0003909DED020B9AE78DED028B9DED52
:10441000240B18EE901A10EE900A8DED000B61F34C
:104420001E0003909DED020B8AE709DA9DED240B37
:1044300051EC190B53EC102B02F0DCFA1EE020E0DB
:104440009DED240B7CE786421BDAB4F1804F0DD042
:10445000A4F10050B0F1FF5013D1002D11DB9DED00
:10446000240B51EC100B01F0EBFA07E09DED240B4F
:1044700053EC102B51EC100B00F0C2BC41EC100BB4
:104480005EE79DED240B51EC100B00F0BEFDBAF180
:10449000000FCDE90E0142D19FED710B46B3A6F19D
:1044A000E040B0F17F600CD05E4538D1002D00DADD
:1044B000A7B3022F0CBF01204FF0FF3002F01FFC0A
:1044C000DCE7002D01DD002C0DDA002D01DD002CD4
:1044D0001FDB002D16DA002C14DB012F08BF9FED27
:1044E000620B3FF42DAFB0EE4A0AF0EE6A0A27E7FE
:1044F000022F18BF002D0CD0012F0AD1002DFFF67E
:104500001FAF06E0002DB8BF002C08DA012F3FF4E2
:1045100017AFB0EE480AF0EE680A11E71BE0012081
:1045200000EBE57050EA070115D0791EB0EE498A1C
:10453000F0EE698A084308BF9FED4D8B4E48002579
:10454000804570DD4D494E48884514DDB0420DDB95
:10455000002C19DB2FE00120FCF74DF816B0BDEC64
:104560000E8B04B0BDE8F04D00F016BDB34502DC83
:10457000002C09DC1FE0864202DA002C1BDA03E083
:104580005E452BDD002C16DD0220FCF734F800F030
:1045900013FD8DED020B53EC1A2B51EC180B02F0AE
:1045A00015FCCDE900010399019861F31E00039009
:1045B0009DED020BC4E60220FCF71DF800F00CFD97
:1045C00010EE901A18EE900A8DED020B8DED008B17
:1045D00061F31E0003909DED020BB1E69DED0E0B05
:1045E00053EC192B51EC100B02F0FCFD9FED260B48
:1045F000CDE9080153EC102B9DED080B51EC100B8D
:1046000002F0E4FB9FED221B53EC112B02F012FD94
:104610009DED081B53EC112B02F0D8FB9FED1E1BE8
:1046200053EC112B3CE08CE0FFFF1F00FFFF0F005D
:10463000000000000000F03F0000F03F0000F07FAD
:104640000000404301FCFFFF000000000000F07F7D
:1046500000000000000000004E32000000000000DA
:104660000000000000000080000000000000F0FFDB
:10467000000000000000F0BF0000E0410000F04337
:10468000FFFFEF3F00000000000000000000D03FEF
:10469000555555555555D53F000000000000E03FE9
:1046A00002F0C8FC9DED080B41EC1A0B53EC102BEB
:1046B00051EC100B02F08AFB53EC1A2B02F086FB34
:1046C00041EC1A0B9FEDFE0B53EC102B9DED080BEC
:1046D00051EC100B02F07AFB41EC1B0B9FEDFA0B37
:1046E00051EC1A0B53EC102B02F070FB41EC1A0B3F
:1046F0009FEDF70B53EC102B9DED080B51EC100BBD
:1047000002F064FB53EC1A2B02F06CFD41EC1A0B27
:1047100051EC1B0B53EC1A2B02F0B0F80690CDE9CC
:1047200006519DED060B53EC1B2B51EC100B02F0C8
:1047300059FD53EC1A2B02F07DFC41EC100B00F0FC
:10474000A1B90020B6F5801F0EDA9FEDE30B53EC04
:10475000102B9DED0E0B51EC100B02F037FBCDE949
:104760000E016FF034000E4600EB2650A0F2FF372A
:10477000C6F31300DA4940F07F6646F0405688429F
:10478000D8BF002408DDD7498142C8BF012403DC1B
:104790000024A6F580167F1CD348784400EBC400A3
:1047A0000F9690ED00CB9DED0E0B53EC1C2B51ECB6
:1047B000100B02F017FD9DED0E0B41EC1B0B53ECA3
:1047C0001C2B51EC100B02F059F841EC100B51EC82
:1047D000190B53EC102B02F00DF941EC1D0B51ECB1
:1047E0001B0B53EC1D2B02F0F1FA41EC1A0BBF48E6
:1047F0008DED10AB7844109590ED000B4FF000500C
:1048000040EA660000EB84408DED080B00F50020C7
:1048100009909DED080B53EC1C2B51EC100B02F092
:10482000E1FC9DED0E1B53EC112B02F003FC41EC5F
:10483000100B53EC102B9DED100B51EC100B02F0F4
:10484000C5FA9DED080B41EC1C0B53EC102B9DEDB4
:10485000100B51EC100B02F0B9FA53EC1B2B02F0C9
:10486000E9FB53EC1C2B02F0BDFC53EC1D2B02F0BA
:10487000ADFA41EC1C0B53EC1A2B51EC1A0B02F065
:10488000A5FA41EC1B0B9A480621B0EE4B0AF0EE5C
:104890006B0A784400F0E0FAB0EE401AF0EE601ACD
:1048A000B0EE41DAF0EE61DA53EC1B2B51EC1B0B4E
:1048B00002F08CFA53EC1D2B02F088FA9DED100BE0
:1048C00041EC1B0B53EC1A2B51EC100B01F0D6FFF3
:1048D00053EC1C2B02F07AFA53EC1B2B01F0CEFFA9
:1048E0009DED100B41EC1B0B53EC102B51EC100BFE
:1048F00002F06CFA41EC1D0B9FED7FEB53EC1E2B8D
:1049000001F0BCFF53EC1B2B01F0B8FF0890CDE980
:1049100008519DED080B53EC1E2B51EC100B02F0CF
:1049200061FC53EC1D2B02F05DFC53EC1B2B02F0E1
:1049300081FB9DED080B41EC1D0B53EC102B9DED05
:10494000100B51EC100B02F041FA41EC1B0B53EC35
:104950001A2B51EC1D0B02F039FA9DED080B41ECBE
:104960001A0B53EC102B51EC1C0B02F02FFA53ECEA
:104970001A2B01F083FF41EC1A0B51EC1B0B53EC8B
:104980001A2B01F07BFF0C90CDE90C519DED0C0B27
:1049900053EC1B2B51EC100B02F024FC53EC1A2BA4
:1049A00002F048FB41EC1B0B9FED550B53EC102B19
:1049B0009DED0C0B51EC100B02F008FA41EC1A0BB8
:1049C0009FED510B51EC1B0B53EC102B02F0FEF939
:1049D00041EC1B0B9FED4E0B53EC102B9DED0C0B84
:1049E00051EC100B02F0F2F953EC1B2B01F046FFD7
:1049F00041EC100B4848784400EBC40090ED001BDC
:104A000051EC100B53EC112B01F038FF41EC1B0B58
:104A1000384602F074F9CDE9080153EC1B2B51EC38
:104A20001A0B01F02BFF41EC100B3C48784400EBD3
:104A3000C40090ED00CB51EC100B53EC1C2B01F09B
:104A40001DFF9DED081B53EC112B01F017FF069085
:104A5000CDE906519DED080B53EC102B9DED060B97
:104A600051EC100B02F0BEFB53EC1C2B02F0BAFB16
:104A700053EC1A2B02F0B6FB53EC1B2B02F0DAFAC4
:104A800041EC100B9DED261B53EC102B8DED001B04
:104A900000959DED260B51EC100B02F097F99DED62
:104AA000000B41EC1A0B53EC102B9DED260B51EC37
:104AB000100B02F097FB9DED061B53EC112B2FE022
:104AC000000000604715F73FFE822B654715F73F52
:104AD00044DF5DF80BAE543E000000000000404390
:104AE0008E9803007AB60B00CA2D0000F82D000046
:104AF000022D00000000000000000000000008403F
:104B0000000000E009C7EE3FFD033ADC09C7EE3FB5
:104B1000F5015B14E02F3EBE8E2B0000482B0000F9
:104B200002F054F953EC1A2B01F0A8FE9DED060B90
:104B300041EC1A0B53EC102B9DED000B51EC100BBC
:104B400002F044F9CDE90C019DED0C0B51EC1A0B70
:104B500053EC102B01F092FECDE902010C46AA495C
:104B60008C422FDB611A084318D19DED0C0B53ECDE
:104B7000102B9DED020B51EC100B02F033FB41ECBE
:104B80001B0B9FEDA30B51EC1A0B53EC102B01F0F8
:104B900075FE53EC1B2B02F017FA2DD20220FBF707
:104BA0002AFD00F009FA10EE901A18EE900A8DED29
:104BB000020B8DED008B61F31E0003909DED020B47
:104BC000FFF7BEBB944A24F00041914214D39349AD
:104BD000214408437FF4EFAC9DED0C0B53EC102BFC
:104BE0009DED020B51EC100B02F0FCFA53EC1A2B6A
:104BF00002F0EAF97FF6DFAC24F000408849894AE8
:104C0000002601EB205182422BDA481C4FF4801120
:104C100021FA00F02044844AC0F30A517A44A1F2F8
:104C2000FF3192ED000B814A8DED080BCA4020EA5E
:104C30000202C0F3130040F48010C1F1140120FA05
:104C400001F60992002CB8BF76429DED080B53EC9B
:104C5000102B9DED0C0B51EC100B02F0C3FACDE9BB
:104C60000C019DED0C0B51EC1A0B53EC102B01F0C9
:104C700005FE9FED6F0B0890CDE9085153EC102B0A
:104C80009DED080B51EC100B02F0A0F841EC1B0B52
:104C90009FED690B53EC102B9DED080B51EC100BA5
:104CA00002F094F89DED0C0B41EC1C0B53EC102B17
:104CB0009DED080B51EC100B02F094FA53EC1A2BFB
:104CC00002F0B8F99FED5E1B53EC112B02F07EF859
:104CD00053EC1C2B01F0D2FD41EC1A0B51EC1B0BD9
:104CE00053EC1A2B01F0CAFDCDE902019DED020B38
:104CF00053EC1B2B51EC100B02F074FA53EC1A2BF3
:104D000002F098F99DED020B41EC1A0B53EC102BBD
:104D100051EC100B02F05AF8CDE908014A489DED1C
:104D2000080B0521784400F097F89DED081B51EC25
:104D3000100B53EC112B02F049F89DED021B53ECC4
:104D4000112B02F077F9CDE906019DED020B53EC32
:104D50001A2B51EC100B02F039F853EC1A2B01F01E
:104D60008DFD9FED3B0B41EC1A0B53EC102B9DED91
:104D7000060B51EC100B02F035FA9DED060B41ECE1
:104D80001B0B53EC102B9DED020B51EC100B02F0A2
:104D90001DF853EC1B2B01F02DFE53EC1A2B02F0E7
:104DA00021FA9DED021B53EC112B02F01BFA53EC80
:104DB000192B02F03FF9CDE9020101EB0650011574
:104DC0000029C8BF039015DC9DED020B324651EC63
:104DD000100B02F028FBFFF7EEF9042808BF00F0E3
:104DE000FBF832469DED020B51EC100B02F01BFB61
:104DF000CDE902019DED020B51EC180B53EC102B89
:104E000001F0E4FFFFF73ABB000090400000000013
:104E1000FE822B654715973C00CC904000346F3FD5
:104E200001FCFFFF0000E03FD0290000FFFF0F0062
:104E300000000000432EE63F396CA80C615C20BEE8
:104E4000EF39FAFE422EE63FA028000000000000E5
:104E5000000000000000004070B504462DED028BFC
:104E60004D1E00EBC500B0EE408AF0EE608A90ED7A
:104E7000000B35F0060017D053EC182B51EC100B3B
:104E800001F0A4FF41EC100B6D1E04EBC50090ED8A
:104E9000001B51EC100B53EC112B01F0EFFC41EC1B
:104EA000100B35F00600E7D1022D36D0042D1CD0B2
:104EB000062D1CBFBDEC028B70BD53EC182B51ECC2
:104EC000100B01F083FF94ED0A1B53EC112B01F042
:104ED000D5FC53EC182B01F079FF94ED081B53EC33
:104EE000112B01F0CBFC41EC100B53EC182B51ECC7
:104EF000100B01F06BFF94ED061B53EC112B01F02E
:104F0000BDFC53EC182B01F061FF94ED040B53EC46
:104F1000102B01F0B3FC41EC100B53EC182B51ECAF
:104F2000100B01F053FF94ED021B53EC112B01F019
:104F3000A5FC53EC182B01F049FF94ED001B53EC3A
:104F4000112B01F09BFCBDEC028B41EC100B70BDF2
:104F50009FED070B10B553EC102B9FED070B51EC99
:104F6000100B01F047FD41EC100B10BD00000000DC
:104F70000000000000000000000000000000F03F02
:104F800010B553EC112B51EC100B01F077FC41ECF8
:104F9000100B10BD000000009FED050B10B553EC89
:104FA000102B51EC100B01F025FD41EC100B10BD46
:104FB00000000000000000009FED050B10B553EC51
:104FC000102B51EC100B01F001FF41EC100B10BD48
:104FD00000000000000000709FED050B10B553ECC1
:104FE000102B51EC100B01F0F1FE41EC100B10BD39
:104FF000000000000000001003E01E21491E89B2DD
:10500000FCD2401E80B2F8D2704782B0CDE90001D8
:1050100021F0004001909DED000B02B051EC100B0F
:1050200070470000FCF704F9FEF73AFDFDF798FD24
:10503000FDF716FDFDF7DCFEFDF7B2FEFDF7FCFE09
:105040000520FBF7EBFF194A1423A2F580611848ED
:10505000FDF7A2F94FF4FA60FBF7E0FFFDF7E8FC7B
:10506000FBF78EFD0520FBF7D9FF0120FBF718FEAB
:105070000220FBF773FE0520FBF7D0FF40F28534DA
:10508000012122460846FBF7A9FC012122460846D9
:10509000FBF7A4FCA42202210120FBF79FFCFBF7F5
:1050A000EFFAFDF703FD00F013F8FEE7C00900205A
:1050B0002414002001460020842900D0C81C704719
:1050C00010B5002800D1012000F010FE002010BD16
:1050D00010B500F079FE002010BD3EB504460D4627
:1050E000B4F90800FFF7E6FF02A9CDE90001208A24
:1050F0002B4682B2D4E9001001F0A4F9012801D0B6
:1051000000203EBD02983EBD08B5134600680090E1
:10511000012905D00022012102A001F02FFB08BDCA
:105120000122F8E7000000002DE9F04104460F4697
:10513000174EF5683068001D00F0B9FC38B93068CA
:1051400090F82C1001208840316981433161601C46
:1051500007D137B13168BDE8F041091D0D4800F0B5
:10516000DFBC2C4430684460AC4206D23168B06B7E
:10517000091DBDE8F04100F0BBBC3168706B091D32
:1051800000F0B6FCB06A844200D2B462BDE8F0819F
:10519000440000204417002070B5044600F0CCFC09
:1051A0001C4DA868401CA860286810B1686938B117
:1051B0000CE02C60A868012808D100F097F905E000
:1051C0002868E16AC06A884200D82C60686A401C7E
:1051D0006862E06A01212A698140114329610E4910
:1051E00000EB800001EB8000211D00F099FC00F035
:1051F000C3FC686900280CD02868E16AC06A88424C
:1052000007D206494FF080500860BFF34F8FBFF3BD
:105210006F8F70BD440000206816002004ED00E090
:1052200010B500F089FC0E4C2068A0B90D4800F0C4
:1052300051FC0C48143000F04DFC0A48E06014307A
:10524000206100220C210A2000F0A8FE206010B18D
:1052500005A100F015FDBDE8104000F08DBC000078
:105260008000002058170020546D7251000000008B
:1052700070B50C4D0C4E11E000F05EFCF068C46897
:10528000201D00F014FCA868401EA8606868401E3D
:10529000686000F071FC204600F053F86868002850
:1052A000EAD170BD440000203017002030B40B4616
:1052B000026C002A0CD0C1681144C1608468A1420C
:1052C00001D30168C160C16830BC1846FBF7CBB898
:1052D00030BC70472DE9F041044617460026A56B07
:1052E000226C002A10D0C7B1E068FBF7BCF8E16877
:1052F000206C091AE1602268914202D2A168081A62
:10530000E060022F16D017E02068A8B9A06801F06D
:1053100045F906460020A0600EE06068FBF7A3F8A0
:10532000216C606808446060A168884204D32068EA
:10533000606001E005B16D1E6D1CA5633046BDE8DF
:10534000F08110B50446206B00F02CFC2046BDE82F
:10535000104000F027BC00000749CA681168002906
:1053600004D00021016019B1002070470121F9E744
:10537000D068006870470000800000204FF4A04112
:105380000F48420706D0C01D20F007000C49411A03
:10539000C1F5A0410B4A1060002353600144083955
:1053A00021F00701183A11604B600B600B1A436043
:1053B00001604068906050604FF00040506170475D
:1053C00080170020AC000020074E4FF08054074D9E
:1053D000FFF74EFF30680128FAD92C60BFF34F8FDA
:1053E000BFF36F8FF4E700006816002004ED00E0C3
:1053F00003460098002905D00260C36301640121BF
:1054000000F0ECBD0060F8E72DE9F0478246DDE9E9
:1054100008580A9C9946521E206B00EB820020F02F
:105420000706700707D0502080F31188BFF34F8F15
:10543000BFF36F8FFEE7002761B1002023180A5CDD
:1054400083F834200A5C12B1401C1028F6D384F88B
:10545000437001E084F83470072D00D30625E5621F
:105460006564A764201D00F040FB04F1180000F003
:105470003CFB2461C5F10700A0616462E76484F825
:1054800050704A465146304600F0C8FA2060B8F1E4
:10549000000F01D0C8F80040BDE8F0872DE9F047C3
:1054A0000646DDE908940D4617469846002D15D0AE
:1054B000002C11D0FFF7B4FE2660A561C4F81C8053
:1054C000C4F82090201D00F010FB002F04D014F829
:1054D000240F40F004002070BDE8F087502080F3D6
:1054E0001188BFF34F8FBFF36F8FFEE770B50024B5
:1054F000124D04EB840005EB800000F0EBFA641C15
:10550000072CF6D30D488C3000F0E4FA0B48A0309D
:1055100000F0E0FA0948B43000F0DCFA0748C8307F
:1055200000F0D8FA0548DC3000F0D4FA034904480A
:105530008C3141631431816370BD00006816002016
:105540004400002030B5134900E011460A68824249
:10555000FBD34B685C18844203D140681844486010
:1055600008460D6844682318AB420DD1094B183B1F
:105570001B689A4206D05268224442600A68126848
:10558000026002E0036000E00260814200D0086037
:1055900030BD0000AC00002070B500244160006107
:1055A0000C4D91420AD8D11A8269914201D301244B
:1055B0000EE0011D286900F09BFA09E09A4203D22F
:1055C000994201D3012403E0011DE86800F090FA3C
:1055D000204670BD8000002010B5044600F0ACFAF3
:1055E000A06B20B1002400F0C7FA204610BD0124B2
:1055F000F9E710B5044600F09FFAA06BE16B884212
:1056000001D1012400E0002400F0B6FA204610BDCC
:10561000F8B505460E461748C068C068C468201D26
:1056200000F045FA94F82400410718D5A0692B46EC
:10563000411932462046FFF7AFFFA0B100200346D4
:10564000014600902A46204601F0D8F858B950206B
:1056500080F31188BFF34F8FBFF36F8FFEE720F009
:10566000010084F82400216A01B02046BDE8F04022
:10567000084700008000002030B585B0394D67E054
:105680000298002864DB049C606910B1201D00F0C2
:105690000EFA01A800F0B0F8024602980A2857D284
:1056A000DFE800F00505052D334A05052D3394F894
:1056B000240040F0010084F824000398A169034607
:1056C00001442046FFF768FF68B3216A20468847F7
:1056D00094F8240040073BD5002000900398A1696E
:1056E000002342181946204601F088F8D8B9502006
:1056F00080F31188BFF34F8FBFF36F8FFEE714F86D
:10570000240F20F00100207022E094F8240040F0E3
:10571000010084F824000398A06128B18118134681
:105720002046FFF739FF13E0502080F31188BFF3C4
:105730004F8FBFF36F8FFEE794F82400810703D4E7
:10574000204600F02FFA03E020F0010084F8240046
:10575000002202A9286800F099FD002890D105B028
:1057600030BD000080000020F8B506460D4600F070
:1057700063FB684600F040F80446009810B100F062
:1057800097FFF8BD45B9A64206D800F091FF214623
:105790003046FFF73DFFF8BD0C481DB101690968AF
:1057A00091B10025311B2A46006800F07BFA00F019
:1057B0007FFF0028EFD106494FF080500860BFF30B
:1057C0004F8FBFF36F8FF8BD0125EBE780000020FE
:1057D00004ED00E00748416B0968002905D0416BE2
:1057E000C968C9684968816270474FF0FF318162BA
:1057F000704700004400002070B5054600F060FED0
:105800000446074EB068844204D200F00BF8012031
:10581000286001E000202860B460204670BD0000D0
:1058200080000020F8B51A4E20E0C0680568C46802
:10583000201D00F03CF9216A2046884794F8240096
:10584000400713D5A0692844A84206D960602461A6
:10585000211DF06800F04CF908E0002003460146E5
:1058600000902A46204600F0C9FF40B1F068016868
:105870000029DAD1F0683169F1603061F8BD50205B
:1058800080F31188BFF34F8FBFF36F8FFEE70000E7
:105890008000002009484068401C07D0502080F359
:1058A0001188BFF34F8FBFF36F8FFEE7502080F357
:1058B0001188BFF34F8FBFF36F8FFEE7B400002056
:1058C00008B56846FFF748FD0099FFF74DFFFFF761
:1058D000D3FEF6E72DE9F041044600F02DF994F9E6
:1058E000455004F1240609E0606A48B1304600F0F2
:1058F000A1FE08B100F02AFA6D1E6DB2002DF3DC96
:105900004FF0FF3684F8456000F036F900F014F9E6
:1059100094F9445004F1100709E0206948B1384671
:1059200000F088FE08B100F011FA6D1E6DB2002D76
:10593000F3DC84F84460BDE8F04100F01DB90000DC
:105940002DE9F0410546002600F076FA324F38681E
:1059500008B9FFF713FD786905424DD18DB10835BF
:1059600068070ED005F00700C0F10800054468077D
:1059700007D0502080F31188BFF34F8FBFF36F8F94
:10598000FEE7CDB37868854236D8234918310846FA
:10599000046801E0214604466068A84202D22068FB
:1059A0000028F7D13868844226D00E68083620686F
:1059B00008606068411B10290ED96019420707D0A2
:1059C000502080F31188BFF34F8FBFF36F8FFEE736
:1059D00041606560FFF7B6FD61687868401A7860DD
:1059E000BA68904200D2B8607869014361600020D3
:1059F0002060F868401CF86000F05AFE700707D07D
:105A0000502080F31188BFF34F8FBFF36F8FFEE7F5
:105A10003046BDE8F08100009400002024384FF0AB
:105A20008073036221F00101C16104498161426018
:105A30006FF0020140F820197047000095580008E7
:105A400000B52DED048B83B041EC190B01F0FEFA8B
:105A500041EC180B18EE100A18EE901A8DED008B21
:105A6000002818BF0120084320F00040C0F17F60EB
:105A700000F1E040C00F14D019EE101A19EE900A90
:105A80008DED009B002918BF0121084320F0004044
:105A9000C0F17F6000F1E040C00F04BF0120FAF7C1
:105AA000AAFD51EC180B03B0BDEC048B00BD0169DD
:105AB000D0E901329A60D0E901235A604A688242F3
:105AC00001D182684A60002202610868401E0860B5
:105AD0000868704700F1080141604FF0FF328260B2
