:020000040800F2
:10000000087D0020E503000833550008D95000089A
:1000100031550008C91F00085961000800000000A0
:1000200000000000000000000000000025030008A0
:10003000EB2000080000000081030008195A0008A6
:10004000FF030008FF030008FF030008FF03000888
:10005000FF030008FF030008FF030008FF03000878
:10006000FF030008FF030008FF0300082120000829
:100070002D200008FF030008FF030008FF0300080D
:10008000FF030008FF030008FF030008FF03000848
:10009000FF030008FF030008FF030008FF03000838
:1000A000FF030008FF030008FF030008FF03000828
:1000B000FF030008FF030008FF030008FF03000818
:1000C000FF030008FF030008FF030008FF03000808
:1000D000FF030008FF030008FF030008FF030008F8
:1000E000FF030008FF030008FF030008FF030008E8
:1000F000FF030008FF030008FF030008FF030008D8
:10010000FF030008FF030008FF030008355600083E
:10011000FF030008FF030008FF030008B95A0008A6
:10012000FF030008FF030008FF030008FF030008A7
:10013000FF030008FF030008FF030008FF03000897
:10014000FF030008FF030008FF030008FF03000887
:10015000FF030008FF030008FF030008FF03000877
:10016000FF030008FF030008FF030008FF03000867
:10017000FF030008FF030008FF030008FF03000857
:10018000FF030008FF030008FF030008FF03000847
:10019000FF03000800000000FF030008FF03000841
:1001A000FF030008FF030008FF030008FF03000827
:1001B000FF030008FF030008FF030008FF03000817
:1001C000FF030008FF030008FF030008FF03000807
:1001D000FF030008FF03000800F002F800F092F8A7
:1001E0000AA090E8000C82448344AAF10107DA4592
:1001F00001D100F087F8AFF2090EBAE80F0013F052
:10020000010F18BFFB1A43F001031847247B0000BD
:10021000447B0000103A24BF78C878C1FAD852074E
:1002200024BF30C830C144BF04680C607047000070
:100230000023002400250026103A28BF78C1FBD8EF
:10024000520728BF30C148BF0B6070476E2900F0CD
:10025000DD82702900F02784662907F0E68365298E
:1002600007F0E383672907F0E083612907F0DF8364
:1002700003681B0A28BF41F08001692900F08A82C7
:10028000642900F08782752900F084826F2900F0CC
:10029000B483782900F0F383E92900F04F83E4293F
:1002A00000F04C83F52900F04983EF2900F0B18379
:1002B000F82900F0F2830368DB0928BF41F08001D0
:1002C000632901F0F580732901F0FA80E32901F038
:1002D0000581F32901F00A81002070471FB507F05E
:1002E0009FFB01F055F904000020002107F082FB7C
:1002F000401C60600020002107F066FBE0601FBD2D
:1003000010B510BD01F016F91146FFF7E7FF05F033
:100310005DFF01F0F3F903B4FFF7F2FF03BC01F056
:100320003BFA00002C4B19680868B0E8F04F80F3E6
:100330000988BFF36F8F4FF0000080F3118870477A
:100340000000000008480068006880F308884FF04B
:10035000000080F3148862B661B6BFF34F8FBFF31D
:100360006F8F00DF00BF00BF08ED00E0DFF80C007A
:10037000016841F470010160704700BF88ED00E042
:10038000EFF30980BFF36F8F134B1A681EF0100F45
:1003900008BF20ED108A20E9F04F106009B44FF03B
:1003A000500080F31188BFF34F8FBFF36F8F06F0BB
:1003B000FDFD4FF0000080F3118809BC1968086842
:1003C000B0E8F04F1EF0100F08BFB0EC108A80F3B9
:1003D0000988BFF36F8F70473C000020EFF3058062
:1003E000704700000948804709480047FEE7FEE7DC
:1003F000FEE7FEE7FEE7FEE7FEE7FEE7FEE7FEE7D5
:1004000004480549054A064B70470000A95A0008F0
:10041000D9010008086B0020087D0020086D00202D
:10042000086D002053EA020C00F069802DE9F04BC2
:100430004FF00006002B1FBFB3FA83F503FA05F453
:1004400024FA05F65E4012BF1643B2FA82F502FAAC
:1004500005F4C5F120051EBF22FA05FC44EA0C0490
:10046000203556EA044C4FEA144418BF641C4FF080
:1004700000084FF00009904271EB030C39D30029BA
:1004800019BFB1FA81F701FA07F6B0FA80F700FA5E
:1004900007F6C7F120071EBF20FA07FC46EA0C0644
:1004A0002037B6FBF4FCA7EB0507103F07F01F0B46
:1004B000CBF120060CFA0BFB2CFA06F644BFB34630
:1004C0000026202FA4BF5E464FF0000B5BEA060C0F
:1004D00008BF4FF0010B19EB0B09ABFB027C48EB9B
:1004E0000608C01B06FB02CC0BFB03CC71EB0C0116
:1004F000C1E70B46024641464846BDE8F08B13B5BE
:100500004FF000004FF00001AFF30080BDE81C4049
:10051000704700007CB51D4616460C00009001D0C7
:100520002044401E074B7B442A46694601903046D2
:1005300000F085F905461CB10020694600F092F9EB
:1005400028467CBD45030000032A40F2308010F0AD
:10055000030C00F0158011F8013BBCF1020F62445E
:1005600098BF11F801CB00F8013B38BF11F8013BEF
:10057000A2F1040298BF00F801CB38BF00F8013B9C
:1005800011F0030300F02580083AC0F0088051F80C
:10059000043B083A51F804CBA0E80810F5E7121D17
:1005A0005CBF51F8043B40F8043BAFF30080D20736
:1005B00024BF11F8013B11F801CB48BF11F8012B02
:1005C00024BF00F8013B00F801CB48BF00F8012B25
:1005D000704710B5203AC0F00B80B1E81850203AAF
:1005E000A0E81850B1E81850A0E81850BFF4F5AFD3
:1005F0005FEA027C24BFB1E81850A0E8185044BF5D
:1006000018C918C0BDE810405FEA827C24BF51F8C9
:10061000043B40F8043B08BF7047D20728BF31F8BD
:10062000023B48BF11F8012B28BF20F8023B48BF0E
:1006300000F8012B70474FF000020429C0F012802F
:1006400010F0030C00F01B80CCF1040CBCF1020F85
:1006500018BF00F8012BA8BF20F8022BA1EB0C015A
:1006600000F00DB85FEAC17C24BF00F8012B00F850
:10067000012B48BF00F8012B70474FF0000200B576
:10068000134694469646203922BFA0E80C50A0E8B5
:100690000C50B1F12001BFF4F7AF090728BFA0E863
:1006A0000C5048BF0CC05DF804EB890028BF40F82F
:1006B000042B08BF704748BF20F8022B11F0804F71
:1006C00018BF00F8012B704770477047704770B52E
:1006D000044685690068C10601D5302600E0202661
:1006E000C00707D070BDD4E9012130469047206A89
:1006F000401C20626D1EF6D570BD70B5044685693C
:100700000078C00707D170BDD4E9012120209047AF
:10071000206A401C20626D1EF6D570BD09684A052E
:1007200001D540B27047C905FCD500B270470968D1
:100730004A0501D5C0B27047C905FCD580B27047E3
:1007400070B50C460546012A05D02878800600D5EC
:10075000EA69002302E0012305E05B1C934202D218
:10076000E05C0028F9D1A869E618C01AA861286AD7
:10077000184428622846FFF7AAFF04E0D5E90121C2
:1007800014F8010B9047B442F8D32846FFF7B5FFA1
:1007900070BD00002DE9F04106460024106875295F
:1007A000314616A510D0FFF7B9FF002802DA404203
:1007B00013A507E031688A0701D512A502E04907B1
:1007C00004D511A5012401E0FFF7B1FF00210A22A1
:1007D00006F1240709E0B0FBF2FCB0FBF2F302FBE8
:1007E0001C00303078541846491C0028F3D12346A9
:1007F0002A463046BDE8F04100F069BA000000002A
:100800002D0000002B00000020000000116802688D
:10081000006A530501D508700AE0D30501D50880A8
:1008200006E0130603D5C217C1E9000200E0086024
:100830000120704701694A1C02610878704700B5C1
:100840008FB0CDE901310021059105497944CDE909
:1008500003101146684600F031F90FB000BD0000EA
:10086000E5FFFFFF0A6802F8010B0A607047D1E953
:1008700000239A4202D2531C0B6010707047000094
:100880002DE9FF5F15468A460446DFF8AC80F84440
:100890000027D8E900103E46CDE9001010E03AF8F4
:1008A00016106A4602A800F025FE411C07D02178E8
:1008B000890603D5E269391891420DD80744761CA0
:1008C0002078800602D5E069B84205DDAE42E6DB5D
:1008D0003AF816000028E2D1A069C01BA0612046AA
:1008E000FFF7F5FED8E90010CDE90010002017E071
:1008F0003AF818106A4602A800F0FCFDB0F1FF3F7C
:1009000081460BD000250DF1080B05E0D4E901214B
:100910001BF8050090476D1C4D45F7D308F1010009
:10092000B0428046E4DB206A384420622046FFF76C
:10093000E4FEBDE8FF9F0000D27200002DE9F04107
:100940008046D21D22F007020025D2E90002F529D7
:1009500015A614D0011E72F1000106DA0023D0EBB7
:10096000030063EB020211A608E0D8F800108B0721
:1009700001D50FA602E0490701D50EA601251146B3
:10098000002408F1240704E000F05CF930323A5505
:10099000641C50EA0102F7D12B46324621464046FC
:1009A000BDE8F04100F093B9000000002D00000008
:1009B0002B0000002000000030B4002100F12404CE
:1009C00008E002F00705D208303542EA4372DB083E
:1009D0006554491C52EA0305F3D10468002310A2B0
:1009E000250707D5A40600D421B1C46901230DA2AF
:1009F000641EC46130BC00F06AB910B504462146DB
:100A00001068FFF794FE02462046BDE81040002320
:100A1000D2E7D21D22F00701D1E90023CCE7000084
:100A20000000000030000000F0B40D460188090508
:100A300002D5214C7C4402E01F4C7C440E34002142
:100A400000F1240608E002F00F071209E75D42EA10
:100A500003721B097754491C52EA0307F3D1027849
:100A60000023120704D5702D06D009B102231134DA
:100A70002246F0BC00F02BB901231034F8E770B522
:100A800004460D4621461068FFF751FE02462946EE
:100A90002046BDE870400023C6E7D21D22F00703C0
:100AA000D3E90023C0E70368126843F02003036022
:100AB0000823C3610023B7E7347100002DE9F05F1C
:100AC000894604464FF0000ADFF874B1FB44C0F8D1
:100AD00020A02046E1688847002874D0252806D049
:100AE000D4E901219047206A401C2062F1E70026EA
:100AF0005F462046E16888472028054607DB312D00
:100B000005D2781910F8200C08B10643F1E7B007B8
:100B100001D526F00406C4F81CA00027C4F818A0CC
:100B20002A2D09D0284605F040FB38B304EB87088E
:100B3000303DC8F8185019E059F8041B204604EB62
:100B400087029161E1688847012F054618D1E06965
:100B5000002820DA26F020061DE0D8F8180000EB67
:100B6000800005EB40003038C8F818002046E168E6
:100B70008847054605F019FB0028EED1012F0AD061
:100B80002E2D08D12046E16888477F1C0546022F9C
:100B900046F02006C4DBA069002803DA404246F094
:100BA0000106A061F00701D026F010066C2D0BD0D5
:100BB000682D09D04C2D39D06A2D35D0742D35D003
:100BC0007A2D33D016E038E0E1682F46204688477A
:100BD000B842054609D16C2F26D04FF48060E168F9
:100BE000064320468847054604E06C2F1AD04FF490
:100BF000807006430DB3A5F14100192802D82035B5
:100C000046F400664A462946204626604E46FFF7CF
:100C10001DFB80B101280BD0F61D26F0070000F166
:100C2000080956E74020E4E78020D8E70020D6E70F
:100C300006F104094DE7284652E7206ABDE8F09F17
:100C4000C470000030B5B0F10A024FEA900E71F1A5
:100C500000034EEA817EB0EB0E0061EB91014FEA9A
:100C6000101E4EEA017E10EB0E0041EB11114FEA0F
:100C7000102E4EEA016E10EB0E0041EB11214FEAEF
:100C8000104E4EEA014E10EB0E0041EB11414018A0
:100C900041F100014FEAD00040EA41704FEAD10132
:100CA00010EB80054FEA810444EA907444EB0104A0
:100CB0006D1944EB0404521BA3414FF0000348BFDD
:100CC0000A3200D530BD401C41F1000130BD2DE994
:100CD000F0470D4699469246044600F12408016803
:100CE000880604D5E06921F01001216000E00120B0
:100CF000A84201DD471B00E00027A1697A1902EB39
:100D00000900081AA0612078C00602D42046FFF727
:100D1000DEFC002608E0D4E901211AF8060090471D
:100D2000206A401C761C20624E45F4DB2078C00609
:100D30000AD52046FFF7CBFC06E0D4E9012130209C
:100D40009047206A401C2062381EA7F10107F4DC9E
:100D500007E0D4E9012118F805009047206A401CFB
:100D60002062281EA5F10105F3DC2046FFF7C5FC33
:100D70002078000602D50220BDE8F0870120FBE7BD
:100D800070472DE9FF4F0C461E464FF0FF378BB0E2
:100D9000D2E90001DDF860800A908A46C1F30A5565
:100DA00005B93D46002108464FF00000BAF1000F9A
:100DB00000F4400005DA00EB80004FF4400101EA46
:100DC00050004FEA9059B9F1010F00DDB9460A9879
:100DD00050EA4A000ED044F61050A5F2FF354543C4
:100DE0002F14B8F1000F1ED07542291E1EDDC9F167
:100DF00000021CE0B8F1010F4FF0000001D03021DB
:100E000003E0F24305E02154401CB042FBDB3046D6
:100E10000022002121540B99C1F80880C1E900206B
:100E20000FB0BDE8F08FBD1B6D1CDEE74A4600DA4F
:100E3000694206A800F0F0FB06AB93E8070003AB9D
:100E400083E8070050460A9900F0ADFC8DE80700E2
:100E5000A0F500501F3800900398002D0ADD42F2E3
:100E60001F014A460844002303A90390684600F086
:100E700016FF09E0A0F500504A461F38002303A9D9
:100E80000390684600F020FF8DE807000004000C86
:100E900003D04FF0FF30410800E01046B8F1000FDA
:100EA00003D00022009215461EE0751E05D4FFF700
:100EB000C9FE303262556D1EF9D5B3460122084392
:100EC00002D000227F1C04E02078302801D10022CB
:100ED0007F1E002A099784D01DE0112D07DAFFF745
:100EE000B1FE303262556D1C50EA0102F5D1084363
:100EF00002D00098C8B10EE00021681E05E0235C16
:100F0000625C63542254401E491C8142F7DBAB46AD
:100F1000A81B401E0990002004F80B000B98099AAA
:100F2000C0F80880C0E9002B7AE711264FF00008CE
:100F300057E72DE9F04F88460446D21D22F00701FD
:100F400091B0D1E90001CDE90A0105F006F90246A8
:100F50000B98C00F01D02D2007E02068810701D534
:100F60002B2002E0202101EAC000032A099001D0D1
:100F7000072A05DB03464146204600F00DFB0BE146
:100F80002078800601D5E06900E00620B8F1650F01
:100F9000814606D0B8F1660F18D0B8F1670F70D14E
:100FA00031E00020B9F1110F009001DB112301E0C5
:100FB00009F101030AAA01A90CA8FFF7E2FEDDE985
:100FC0000C70002609F10105834647E001204B46DD
:100FD00000904FF000470AAA01A90CA8FFF7D1FE24
:100FE000DDE90DB00C995D46002610B909F101004C
:100FF0000D18B9EB050003D4C0F1FF3609F1010566
:10100000A5EB09002BE0B9F1010F01DA4FF001095E
:101010000020B9F1110F0090484601DD112300E0D6
:1010200003460AAA01A90CA8FFF7ABFEDDE90C7084
:101030004D4600268346207800070AD4AB4500DAE7
:101040005D4601A8012D04DD411911F8011C30296C
:1010500007D04F4502DA17F1040F04DA0120824667
:101060000FE06D1EEEE7002F02DCED1B3E4403E0B7
:10107000781CA84200DD7D1CB81B00F1010A4FF06E
:1010800000472078000703D4AA4501DB4FF0FF3A60
:101090000021B7F1004F0DF143088DF8431024D023
:1010A00002202B23002F01DA7F422D230A21021E6A
:1010B000A0F1010000DC5FB197FBF1FC97FBF1F2BE
:1010C00001FB1C7C17460CF1300C08F801CDEEE753
:1010D000A8F1010003702188090501D5452100E030
:1010E0006521A0F1010800F8011C09980FA9A1EBE6
:1010F0000807FF1D00B10120411901EBEA70A16949
:101100003844081A401EA0612078C00602D4204648
:10111000FFF7DDFA099828B1D4E901219047206A48
:10112000401C20622078C00622D52046FFF7CFFA67
:101130001EE0002E04DBB34502DD01A8805D00E067
:101140003020D4E901219047206A401C2062761C9F
:10115000AAF101005FEA000A0AD100F019FAC0689A
:101160000168405CD4E901219047206A401C20625C
:10117000281EA5F10105DCDC07E0D4E9012118F8FF
:10118000010B9047206A401C2062381EA7F101071E
:10119000F3DC2046FFF7B1FA032011B041E600006E
:1011A0002DE9F04F04460D46D21D22F0070089B00C
:1011B000D0E900974846394604F0CFFF0246F80FC1
:1011C00001D02D2307E02068810701D52B2302E001
:1011D000202101EAC0038DF820300BB1012000E08E
:1011E0000020032A824601D0072A04DB2946204634
:1011F00000F0D2F93FE12078800601D40D2500E00F
:10120000E569C7F30A560D2D49DA00214FEA175B4D
:1012100008464FF00000002F00F4400007DA00EB12
:1012200080004FF4400100EBD07001EA60008115AE
:10123000012901DD4FF0FF3100224FEA850CBCF19E
:10124000180F06D31346ACF118004FF08052C2407D
:1012500003E04FF4801323FA0CF30CF10C0CBCF1F7
:10126000200F04D3ACF1200C09FA0CF001E007FACE
:101270000CF000294FF0004801DD18B90FE00ED145
:1012800040450CD319EB02095F4121B9404502D119
:101290009F4329EA0209BBEB175F00D0761C208828
:1012A000000502D57B48784402E07A487844193832
:1012B00008AA302302F80A30037C0AF10101002E4B
:1012C0000AF1020A53546A4602DC4FF0300101E091
:1012D0004FF031014FF001088DF8001002D0A6F256
:1012E000FF3603E059EA470100D06B4E002D02DCC7
:1012F0002178090704D54FF002082E218DF801103E
:10130000C44600210BE0C7F303433F01C35C491C03
:101310006D1E02F80830052908F1010801DA002DD8
:10132000F1DC00210CE000EB1973491C1B786D1EE9
:10133000082902F808304FEA091908F1010801DA12
:10134000002DF0DC21688B0602D516E0A8F101081B
:10135000E04505DD02EB080313F8013C302BF5D026
:10136000B8F1000F09DD02EB080313F8013C2E2B46
:1013700003D1090701D4A8F10108002D05DD3E21A4
:1013800002F808106D1E08F10108407C002E02F8DA
:10139000080008F1010804DA2D20764202F808005E
:1013A00002E02B2002F808000A214FF47A708642EE
:1013B00008F101080BDB96FBF0F3303302F808303C
:1013C00096FBF0F308F1010800FB136601E0642EC0
:1013D0000CDB642096FBF0F3303302F8083096FB08
:1013E000F0F308F1010800FB136601E00A2E06DBAA
:1013F00096FBF1F0303002F8080008F1010896FB86
:10140000F1F001FB1060303002F80800A16908F12A
:10141000010808EB050202EB0A00081AA061207817
:10142000C00602D42046FFF752F9216A08AE01EB4C
:101430000A00206204E0D4E9012116F8010B90476C
:10144000BAF1010AF7D22078C00602D52046FFF78C
:101450003EF96E4609E016F8010B3E280FD0D4E99C
:1014600001219047206A401C2062B8F10108F2D2A5
:101470002046FFF742F909B00320BDE8F08F206A4B
:101480002844206203E0D4E90121302090476D1EFA
:10149000EBD3F8E70E69000002FCFFFF10B54369CB
:1014A00013B1AFF3008001E0FFF74AF9012010BD4E
:1014B000127800F124010A7000224A700122EDE73F
:1014C00011684FF0FF32E9E710B5436913B1AFF38C
:1014D000008001E0FFF7D4F9012010BD128800F16F
:1014E000240182840022C2840122EDE711684FF0BA
:1014F000FF32E9E770B516460C46054600F040F8A5
:10150000036893F80101012806D0FF2C0FD8185D5D
:1015100068B101202C7070BDD3F807013246214616
:1015200003F2071303442846BDE8704018474FF004
:10153000FF3070BD754600F0EBF8AE460500694619
:10154000534620F00700854618B020B5FEF758FF37
:10155000BDE820404FF000064FF000074FF00008B4
:101560004FF0000B21F00701AC46ACE8C009ACE835
:10157000C009ACE8C009ACE8C0098D46704700005E
:1015800010B500F005F8001D10BD00BF6964000033
:1015900000487047C86A00202DE9F0411F46044604
:1015A00003260168072A01F4006004DB08B116A5D0
:1015B00005E016A503E008B115A500E015A521F08A
:1015C00010002060A069C01EA0610FB1401EA06184
:1015D0002046FFF77CF84FB1D4E901213846904707
:1015E000206A401C2062C01C206206E0206AFAE7E4
:1015F000D4E9012115F8010B9047761EF8D2204658
:10160000FFF77BF8BDE8F0814E414E006E616E0041
:10161000494E4600696E66002DE9F0478146164640
:101620008AB0354878440DC88DE80D0032487844BA
:10163000801C03AC0DC884E80D0041F69B300844C3
:10164000372190FBF1F290FBF1F5A5F1800501FB4C
:1016500012041B3C02D56442012000E00020DFF8A8
:1016600098A080460027FA44AAF1BE0A0EE0E007DF
:101670000AD03246684607EB470101230AEB810195
:1016800000F022FB8DE8070064107F1C002CEED1D7
:10169000194F7F44AE3F19E0E80715D007EB04105F
:1016A0000DF1180A90E80E008AE80E00C068F042BA
:1016B00001D1981908903246012306A903A800F029
:1016C00003FB03AB83E807006D10641C002DE3D11E
:1016D0004FF0010332466946B8F1000F03A802D06B
:1016E00000F0DDFA01E000F0EFFAC9E90001C9F805
:1016F00008200AB0BDE8F0872066000010B5044657
:10170000AFF300802046BDE81040FEF704BE0000A5
:1017100000487047A86A00204FF0013C50F8042BA5
:1017200051F8043B9A4221D1A2EB0C03934313EAF4
:10173000CC1317D150F8042B51F8043B9A4215D121
:10174000A2EB0C03934313EACC130BD150F8042BF8
:1017500051F8043B9A4209D1A2EB0C03934313EADC
:10176000CC13DBD04FF00000704700BFD01A01BA95
:10177000B1FA81F101F0180122FA01F0CB40C1F178
:101780002001DBB2C0B2C01A2CFA01F3D11A914386
:1017900011EAC311E6D1704701491820ABBEFEE73C
:1017A0002600020070475FEA400C08BF91F0000F6E
:1017B0004FEA8C234FEAC12243EA51514FEA1C50B1
:1017C00018BF00F5F0404FEA300018BF41F000416B
:1017D0005FEA6C5C00F02980BCF1FF3F08BF40F07D
:1017E00080407047130C06BF12044FF0100C4FF0EE
:1017F000000C130E04BF12020CF1080C130F04BFEF
:1018000012010CF1040C930F04BF92000CF1020CB6
:10181000D30F04BF52000CF1010C11464FF000022F
:10182000A0F11F00A0EB0C00704711F0004F08BFA3
:10183000704731F000413FF4D5AF0B0C06BF0904EF
:101840004FF0100C4FF0000C0B0E04BF09020CF10E
:10185000080C0B0F04BF09010CF1040C8B0F04BF23
:1018600089000CF1020CCB0F04BF49000CF1010CF4
:10187000CCF12003A0EB0C0022FA03F302FA0CF2E5
:1018800041EA030100F10100704720F07F4C80EA3B
:10189000030023F07F47ACEB070303F57C5300F014
:1018A000004003F1FF032DE980494FEA154B09B4CD
:1018B0004FEA144325EA0B4E24EA03480FF20426AC
:1018C00006EB132749083E785FEA320203FB0667FE
:1018D000C7F5000707FB06F64FEA54374FEAD6462E
:1018E00006F1020607FB066CCCF1005C4FEA1C47D0
:1018F0002CEA074C07FB06F40CFB06F504EB154637
:101900004FEA961634BF00204FF000404FEAD1371F
:1019100006FB07FC4FEA1C4C0CFB0BF7D21B03FB2E
:101920000CF761EB07010CFB0EF7B0EB074072EB15
:1019300017420CFB08F734BFA2EB0742B2EB074299
:1019400061EB17414FEA0C444FEA910706FB07FC95
:101950004FEA1C4C0CFB0BF7B0EBC74072EB573255
:1019600003FB0CF734BFA2EBC742B2EBC74261EBFB
:1019700057310CFB0EF7B0EBC70072EB57720CFB44
:1019800008F734BFA2EBC702B2EBC70261EB577195
:10199000039F4FEA816141EA921104EBCC044FEAC4
:1019A000D1374FEA826206FB07FC42EA90124FEA07
:1019B00080604FEA1C4C0CFB0BF7D21B03FB0CF7AF
:1019C00061EB07010CFB0EF7B0EB074072EB17421F
:1019D0000CFB08F734BFA2EB0742B2EB074261EB06
:1019E00017414FEA8C554FEA910704EB9C2406FB04
:1019F00007FC4FEA1C4C0CFB0BF7B0EBC74072EB3B
:101A0000573203FB0CF734BFA2EBC742B2EBC7421D
:101A100061EB57310CFB0EF7B0EBC70072EB57725E
:101A20000CFB08F734BFA2EBC702B2EBC70261EBB5
:101A3000577115EB4C254FEA816141EA92114FEA4B
:101A400082624FEAD13742EA901206FB07FC44F16A
:101A500000044FEA80604FEA1C4C0CFB0BF7D21BD2
:101A600003FB0CF761EB07010CFB0EF7B0EB074033
:101A700072EB17420CFB08F734BFA2EB0742B2EB44
:101A8000074261EB174115EB1C154FEA813141EA22
:101A900092414FEA823242EA90424FEA80304FEA66
:101AA0000C7644F1000448EA03434EEA0B484FF039
:101AB000000EB2EB080C71EB030724BF62463946F7
:101AC0004EEB0E0E4FF0000B0018524149414BEB0C
:101AD0000B0BB2EB080C71EB03077BF1000B24BF7F
:101AE000624639464EEB0E0E4FF0000B0018524185
:101AF00049414BEB0B0BB2EB080C71EB03077BF18D
:101B0000000B24BF624639464EEB0E0E51EA020727
:101B100018BF46F0010616EB0E7655F1000254F19F
:101B2000000103D5BDE88901BDE80088BDE8890151
:101B3000BDE80048B619524141EB0101A3F1010390
:101B4000704780807F7E7D7C7B7A7978777676752A
:101B50007473727171706F6E6E6D6C6C6B6A6A69A2
:101B60006868676666656464636362616160605F3C
:101B70005F5E5E5D5D5C5C5B5B5A5A5959585857B5
:101B8000575656555555545453535252525151501D
:101B900050504F4F4F4E4E4D4D4D4C4C4C4B4B4B70
:101BA0004A4A4A49494948484847474747464646B6
:101BB00045454544444444434343434242424241F1
:101BC0004141002B9C4630D477002BD01CB54FEA06
:101BD000370703B44FF010004FF01001BAF1000FB7
:101BE00006D0BCF1000FDCBF40F0080040F0080157
:101BF0004FF000000FBCBDE810400BF1010BBBF132
:101C0000010F08BF5FEA170722BF12F1010211F1AD
:101C100001014FF0004143F1000300F0004043EAAE
:101C200000007047F9D35708D0E746EA064613F19B
:101C3000400F4FEA16461FDD13F1200FDFBF16439A
:101C40000A46002120335B42BED0C3F1200746EA9A
:101C5000064602FA07F74FEA164646EA0706C3F1B8
:101C6000200722FA03F201FA07F721FA03F14FF0F5
:101C7000000342EA0702A7E746EA020646EA0646EA
:101C80004FEA164646EA0106BCBF46EA0646360C4F
:101C90004FF000034FF000024FF0000194E72DE9F0
:101CA000804C9A46934670B491E8380007C831EAF0
:101CB000400C48BF34EA430C03D5FFF7E6FDFFF7BD
:101CC00080FFF0BCBDE8008C2DE9804C9A4693461D
:101CD00070B491E8380007C810F0804F08BF13F0C7
:101CE000804F03D100F005F8FFF76BFFF0BCBDE8B3
:101CF000008C20F07F4780EA030023F07F4C07EB45
:101D00000C03A3F57C5300F00040A3F1FE0392F016
:101D1000000F00F0B38095F0000F00F077802DE900
:101D200001494FEA11404FEA144621EA004800FBFE
:101D300006FC24EA064708FB06F607FB08F800FB4A
:101D400007F718EB06484CEB164C4FEA124B18EB12
:101D500007484FEA15464CEB174022EA0B4E0BFBA7
:101D600006FC25EA06470EFB06F607FB0EFE0BFBFC
:101D700007F71EEB064E4CEB164C4FF000061EEB21
:101D8000074E4CEB174B18EB0B0840F1000018EB1B
:101D90000E0B58EB000840F100008F1A4FF00001C5
:101DA0003CBFC943661B14BFB5EB040C00213CBF0C
:101DB000C943F61B4FEA17444EEA8E0E27EA044544
:101DC0004FEA1C4704FB07622CEA074C05FB07F7A8
:101DD0000CFB05F604FB0CFC16EB074642EB174226
:101DE00016EB0C4642EB1C421BEB060658EB0202BC
:101DF000414146EA9E0601D5BDE80189B619524126
:101E000041EB0101A3F10103BDE801894FEA14454B
:101E10004FEA114724EA054621EA074C05FB07F47F
:101E200006FB07F70CFB06F105FB0CFC11EB074169
:101E300044EB17444FEA124711EB0C4144EB1C44AE
:101E400022EA074C05FB07F206FB07F70CFB06F638
:101E500005FB0CFC16EB074642EB174216EB0C4653
:101E600042EB1C456A1854F1000148BF7047B6198F
:101E7000524141EB0101A3F10103704795F0000FBE
:101E800037D04FEA11424FEA144721EA024624EACA
:101E9000074C02FB07F106FB07F70CFB06F402FBFD
:101EA0000CFC14EB074441EB17414FEA154714EBC8
:101EB0000C4441EB1C4125EA074C02FB07F506FBED
:101EC00007F70CFB06F602FB0CFC16EB074645EB8E
:101ED000174516EB0C4645EB1C42121951F1000157
:101EE00048BF7047B619524141EB0101A3F101030C
:101EF00070474FEA14454FEA114724EA054621EAA4
:101F0000074C05FB07F106FB07F70CFB06F24FF049
:101F1000000605FB0CFC12EB074241EB174112EBEC
:101F20000C4251EB1C4148BF7047921841EB010134
:101F3000A3F101037047000070B51F4C002202217D
:101F4000204600F016FB012000F01EFA0122C021FD
:101F50001A4800F00EFB00220121204600F009FB88
:101F60004FF4804500222946154800F002FB154E2B
:101F700001225103304600F0FCFA01222946304686
:101F800000F0F7FA0022A910304600F0F2FA002221
:101F9000E910304600F0EDFA00222911304600F039
:101FA000E8FA01220221204600F0E3FABDE8704081
:101FB000042000F0E9B900000018004800080048BB
:101FC0000010004800040048FEE770477047704763
:101FD00038B50023009361F31F3291B241F40042FF
:101FE000012817D10C4C4503130A8DF800308DF8E9
:101FF000012000222946204600F0BBFA40F6FF737C
:1020000002226946054801F09BFA01222946204632
:1020100000F0AFFA38BD000000100048E8160020BC
:10202000014800F0A0B80000B0170020014800F0FF
:102030009AB800001018002010B502680E4CD1B2FA
:1020400014230839A24203D20C4AB1FBF3F104E095
:102050000A4A2032B1FBF3F10831436C23F0030349
:102060001A448264054A8032C26401F01F020121D1
:102070009140016510BD00000804024000080240C4
:10208000017901F07F01074A491E02EB8102426596
:10209000044A4032826501F01F0201219140C1656E
:1020A000704700000009024030B5D0E913546C605D
:1020B000446D002C02D0D0E916546C6090F8444076
:1020C00004F01F050124AC40056C6C60046863607B
:1020D0008368102B04D0036899600068C26030BD2B
:1020E00003689A600068C16030BD704772B6FEE751
:1020F00070B5002490F8251000230122022906D093
:1021000004212430816142700370012429E00168B8
:102110000D6825F001050D6001680D6825F00E05BC
:102120000D60816C0D6825F480750D6090F8441089
:10213000154601F01F018A40016C4A60D0E9132165
:102140005160416D31B10A6822F480720A60D0E9B1
:102150001621516080F8255080F82430816B01B140
:102160008847204670BDF0B4016C0A6801680B68AE
:1021700090F84440042604F01F0406FA04F51542C2
:1021800015D05D0713D50A68920603D40A6822F0B9
:1021900004020A6090F8441001F01F0106FA01F5EC
:1021A000016C4D60016B002941D0F0BC08474FF035
:1021B000020C0CFA04F616424FF000074FF001052E
:1021C00019D09E0717D50A68920605D40A6822F02E
:1021D0000A020A6080F8255090F8441001F01F01AF
:1021E0000CFA01F6016C4E6080F82470C16A002977
:1021F0001DD0F0BC08470826A640164217D01A0783
:1022000015D50A6822F00E020A6090F84410026C9C
:1022100001F01F0105FA01F15160C56380F82550F6
:1022200080F82470416B002901D0F0BC0847F0BC55
:102230007047000070B50446002C0DD02B4A206872
:10224000142190420AD22A4A0244B2FBF1F18900D9
:102250006164284921640BE0012070BD234A524289
:102260000244B2FBF1F1890061642049083921641C
:10227000022184F82510026847F6F0718A43D4E9F8
:1022800002131943D4E904352B431943A3691943B5
:10229000E3691943236A1943114301602046FFF79C
:1022A000CBFEA0680025B0F5804F00D16560207995
:1022B000A16C00F07F000860D4E9131048606068EA
:1022C000401E032808D82046FFF7DAFE606D05603F
:1022D000D4E91610486002E06565A565E56524341B
:1022E000A561012060702570002070BD08040240C7
:1022F000F8FFFDBF0000024070B50446002594F8C9
:10230000240001280CD0012084F8240094F82560D2
:102310000020012E06D084F824000225284670BD36
:10232000022070BD022684F82560E06320680668FC
:1023300026F0010606602046FFF7B6FE206B28B1A6
:102340002068016841F00E01016009E02068016821
:1023500021F0040101602068016841F00A01016078
:10236000A06C0168C90303D5016841F48071016064
:10237000606D18B1016841F48071016020680168E6
:1023800041F001010160C9E770B5044600F0F8F8BA
:102390000546601C02D004484068044400F0F0F890
:1023A000401BA042FAD370BD2C0000202DE9F84F4D
:1023B0000022DFF890914FF0010803274FF00F0C37
:1023C00009F1040AA9F1040BB4E008FA02F52B4064
:1023D000002B6ED00C7904F00304012C01D0022CE8
:1023E00015D18668540007FA04FE26EA0E06D1F8D5
:1023F0000CE00EFA04FE4EEA060EC0F808E044684F
:10240000AC430D79C5F300159540254345600C7923
:10241000E443A40702D18C68012C08D0C56854009D
:1024200007FA04F6B5438E68A6402E43C6600C79C1
:1024300004F00304022C11D1D40800EB8406356AA1
:102440005407E40E0CFA04FE25EA0E05D1F810E05C
:102450000EFA04FE4EEA050EC6F820E005685400A8
:1024600007FA04F6B5430E7906F00306A6402E439C
:1024700006604C6814F4403F5BD0334C256E45F049
:1024800001052566246E04F0010400942F4C22F00F
:1024900003052E19B56894074FEA147E0CFA0EF462
:1024A000A543B0F1904F05D0294CA04204D101249E
:1024B00017E03EE0002414E0264CA04201D10224A3
:1024C0000FE0254CA04201D103240AE0234CA04296
:1024D00001D1042405E0224CA04201D1052400E0F2
:1024E000062404FA0EF42C43B460D9F800409C434F
:1024F0004D68ED0200D51C43C9F80040DAF80040F1
:102500009C434D68AD0200D51C43CAF80040DBF87F
:1025100000409C434D68AD0300D51C43CBF8004000
:10252000084D083D2C689C434E68F60300D51C43BB
:102530002C60521C0B6833FA02F47FF446AFBDE8FE
:10254000F88F000008040140001002400000014024
:102550000004004800080048000C00480010004833
:10256000001400480069084201D001207047002093
:102570007047002A01D08161704781627047000076
:1025800001488068704700002C00002002488168E4
:1025900042681144816070472C00002010B500246F
:1025A000032000F09BF80F2000F008F808B1012488
:1025B00001E000F047F8204610BD000030B587B0BC
:1025C00005461B48816D41F020018165806D00F05A
:1025D0002000009001A902A800F06CFB00F08EFB27
:1025E0001449B0FBF1F1491E1448134A026040F24D
:1025F000E732C260416000210161816001F096F91B
:10260000044694B90D4801F0B9F904466CB9372075
:1026100000F036F8102D07D200222946372000F0AE
:102620003DF80748056000E0012407B0204630BDB2
:102630000010024040420F00001400400419002026
:102640002C00002008B50D48016E41F00101016623
:10265000016E01F001010091816D41F080518165B1
:10266000806D00F08050009000220F21901E00F03D
:1026700015F8BDE8084000F0A9B8000000100240BD
:10268000002809DB00F01F02012191404009800071
:1026900000F1E020C0F8001170470000F0B40D46D2
:1026A0000D4B1B68C3F30223C3F10704042C00D9AC
:1026B0000424191D072901D2002300E0DB1E012696
:1026C00006FA04F1491E294099409E40761E1640A4
:1026D0003143F0BC03F059BD0CED00E000F0070100
:1026E000054A10684FF6FF03184040EA01200349ED
:1026F00008431060704700000CED00E00000FA0590
:102700002F49304B0A6832214A432F4900280AD00A
:10271000B0F5007F2DD0086820F4C06040F48060E0
:102720000860002070470868C0F34120022805D0E7
:1027300051F8800F20F480700860F2E7D1F8800033
:1027400020F48070C1F88000086820F4C06040F474
:1027500000700860B2FBF3F0401C00E0401E4A69C4
:10276000520501D50028F9D148694005D9D5032083
:1027700070470868C0F34120022805D051F8800F47
:1027800040F480700860CCE7D1F8800040F480709D
:10279000C1F88000086820F4C06040F40070086050
:1027A000B2FBF3F0401C00E0401E4A69520501D51F
:1027B0000028F9D148694005B3D5032070470000CF
:1027C0003800002040420F0000700040024881683D
:1027D00041F4804181607047007000402DE9F84F5E
:1027E0000446002600272068BE4D000366D54FF042
:1027F0000008A86DC00009D4A86D40F08050A865FD
:10280000A86D00F0805000904FF00108DFF8D8A2CA
:10281000DAF8000040F48070CAF80000FFF7B0FE5C
:10282000814607E0FFF7ACFEA0EB0900022801D9C2
:10283000032603E0DAF80000C005F3D526B13746D9
:10284000B8F1010F36D039E0D5F8900000F44070AF
:1028500080B1216D81420DD055F8900F20F4407069
:10286000296841F480312960296821F48031296088
:1028700045F89009C00711D0FFF782FE814641F26A
:10288000883A07E0FFF77CFEA0EB0900504501D92C
:10289000032603E0D5F890008007F3D50EB1374644
:1028A000CEE7D5F89000216D20F440700843C5F8BC
:1028B0009000C5E7A86D20F08050A8652078C0077B
:1028C00007D0D5F88800616820F003000843C5F8F8
:1028D00088002078800707D5D5F88800A16820F007
:1028E0000C000843C5F888002078400707D5D5F8C4
:1028F0008800E16820F030000843C5F8880020789F
:10290000000707D5D5F88800216920F0C0000843EA
:10291000C5F888002078C00607D5D5F88800616919
:1029200020F440700843C5F888002078800607D559
:10293000D5F88800A16920F440600843C5F88800F4
:102940002078400607D5D5F88800E16920F440508A
:102950000843C5F888002078000607D5D5F8880018
:10296000216A20F440400843C5F888002088C0054B
:1029700007D5D5F88800616A20F440300843C5F8CF
:1029800088002068800307D5D5F89C00A16A20F054
:1029900003000843C5F89C002088800507D5D5F8BA
:1029A0008800E16A20F440200843C5F888002088A8
:1029B00040050FD5D5F88800216B20F4401008435E
:1029C000C5F88800206BB0F5801F03D1E86840F49B
:1029D0008010E860208800050FD5D5F88800616B6D
:1029E00020F440000843C5F88800606BB0F5800F04
:1029F00003D1E86840F48010E8602088C0040FD557
:102A0000D5F88800A16B20F040700843C5F8880015
:102A1000A06BB0F1807F03D1E86840F48010E860DB
:102A200020884FF0006180040ED5D5F88800E26B55
:102A300020F040601043C5F88800E06B884203D165
:102A4000E86840F48010E860208840040ED5D5F88E
:102A50008800226C20F040601043C5F88800206C8C
:102A6000884203D1E86840F48010E86020880004C0
:102A70000FD5D5F88800616C20F040500843C5F8A8
:102A80008800606CB0F1805F03D1E86840F480306A
:102A9000E8602068C0030FD5D5F88800A16C20F04D
:102AA00040400843C5F88800A06CB0F1804F03D1C6
:102AB000E86840F48030E860206840030FD5D5F81E
:102AC0009C00E16C20F440100843C5F89C00E06CC9
:102AD000B0F5001F03D1E86840F48010E860384684
:102AE000BDE8F88F00100240007000402DE9F0476B
:102AF00004460D460027002C17D0DFF8A091D9F826
:102B0000000000F00F00A84211D2D9F8000020F018
:102B10000F002843C9F80000D9F8000000F00F00AA
:102B2000A84204D00120BDE8F0870120FBE720780F
:102B30005B4EC00741F2883A4ED06068DFF864818E
:102B4000032806D002281ED03068400520D401207A
:102B5000E9E73068800101D40120E4E702F042FD9A
:102B6000404520D9B06810F0F00F04D020788007DD
:102B700019D5A068B8B9B06820F0F00040F0800026
:102B8000B06080270FE03068800301D40120CAE7DD
:102B900000F0D8F8404506D9B06820F0F00040F0C9
:102BA0008000B0608027B068616820F003000843AF
:102BB000B060FFF7E5FC804607E0FFF7E1FCA0EB23
:102BC0000800504501D90320ADE7B068616800F006
:102BD0000C00B0EB810FF0D12068810715D54007BC
:102BE00003D5B06840F4E060B0602078000705D5F8
:102BF000B06820F4605040F4E060B060B068A16854
:102C000020F0F0000843B06005E0802F03D1B068E9
:102C100020F0F000B060D9F8000000F00F00A842EA
:102C200017D9D9F8000020F00F002843C9F8000098
:102C3000FFF7A6FC074606E0FFF7A2FCC01B5045C5
:102C400001D903206FE7D9F8000000F00F00A84277
:102C5000F2D12078400705D5B068E16820F4E06043
:102C60000843B0602078000706D5B068216920F4D9
:102C7000605040EAC100B06000F064F8B1680A4AF0
:102C8000C1F30311515C01F01F01C84007490860FE
:102C900007480068BDE8F047FFF790BC00200240FD
:102CA0000010024000B4C4044C7B0008380000202F
:102CB0002C0000200F2202600B4A936803F00303EC
:102CC0004360936803F0F0038360936803F4E06368
:102CD000C360926802F46052D2080261034800683F
:102CE00000F00F0008607047001002400020024012
:102CF00001480068704700003800002000B5FFF769
:102D0000F7FF05498968054AC1F30221515C01F0CA
:102D10001F01C84000BD0000001002405C7B00089D
:102D200000B5FFF7E5FF05498968054AC1F3C221EF
:102D3000515C01F01F01C84000BD000000100240BE
:102D40005C7B000810B51A4A9068C0F381011948ED
:102D500001290BD091684410C1F38101022906D0EA
:102D60009168C1F38101032903D0002010BD2046E2
:102D700010BDD16801F00303D168C1F30311491CF0
:102D8000032B0DD0B0FBF1F0D168C1F3062148430D
:102D9000D168C1F34161491C4900B0FBF1F010BD9D
:102DA000B4FBF1F0D168C1F306214843F0E700001D
:102DB000001002400024F4002DE9F8430446002CE2
:102DC0000CD02078FE4DC00752D0A86800F00C004F
:102DD000E96801F003010C2803D004E00120BDE8FC
:102DE000F883032916D0082814D06068B0F5803F16
:102DF00017D0B0F5A02F19D0286820F480302860B3
:102E0000286820F480202860606818B3FFF7B8FBBA
:102E100006461BE0286880032AD5606840BB012075
:102E2000DDE7286840F480302860EDE7286840F44A
:102E300080202860286840F480302860E4E7FFF7AD
:102E40009FFB801B642801D90320C8E72868800302
:102E5000F5D50DE0FFF794FB064606E0FFF790FB83
:102E6000801B642801D90320B9E728688003F5D4C2
:102E7000207880074ED5A86800F00C00E96801F0C2
:102E800003010C2801D102290BD0042809D0E068E5
:102E900070B3286840F480702860FFF771FB064625
:102EA0001BE02868400501D5E06868B16868217CAE
:102EB00020F0FE4040EA01606860C2480068FFF709
:102EC0007DFB38B301208AE7012088E7FFF758FB34
:102ED000801B022801D9032081E728684005F5D529
:102EE0006868217C20F0FE4040EA0160686011E0E3
:102EF000286820F480702860FFF742FB064606E051
:102F0000FFF73EFB801B022801D9032067E72868F2
:102F10004005F5D4207800072CD56069A8B1D5F814
:102F2000940040F00100C5F89400FFF729FB064625
:102F300006E0FFF725FB801B022801D903204EE79E
:102F4000D5F894008007F4D514E0D5F8940020F06B
:102F50000100C5F89400FFF713FB064606E0FFF7F3
:102F60000FFB801B022801D9032038E7D5F8940015
:102F70008007F4D4207840076FD54FF00008A86D83
:102F8000C00009D4A86D40F08050A865A86D00F07D
:102F9000805000904FF001088B4E3068C00511D46E
:102FA000306840F480703060FFF7EAFA074606E0C8
:102FB000FFF7E6FAC01B022801D903200FE73068AB
:102FC000C005F5D5A068012813D0052818D055F8FC
:102FD000900F20F001002860286820F0040045F8D8
:102FE0009009A06841F2883608B3FFF7C9FA07468E
:102FF00018E0D5F8900040F00100C5F89000F0E727
:1030000055F8900F40F004002860286840F0010057
:1030100045F89009E5E7FFF7B3FAC01BB04201D9C4
:103020000320DCE6D5F890008007F4D50EE0FFF72A
:10303000A7FA074606E0FFF7A3FAC01BB04201D982
:103040000320CCE6D5F890008007F4D4B8F1010F46
:1030500003D1A86D20F08050A865207880062CD57B
:10306000A069A8B1D5F8980040F00100C5F8980013
:10307000FFF786FA064606E0FFF782FA801B022871
:1030800001D90320ABE6D5F898008007F4D514E009
:10309000D5F8980020F00100C5F89800FFF770FA05
:1030A000064606E0FFF76CFA801B022801D90320D0
:1030B00095E6D5F898008007F4D4E069F0B3A968E4
:1030C0004FF0FF37C1F3810103295ED0022807D0FA
:1030D000286820F080702860FFF752FA04464CE020
:1030E000286820F080702860FFF74AFA064606E05C
:1030F000FFF746FA801B022801D903206FE62868F3
:103100008001F5D454F8201F6068228A401E41EAED
:103110000010A16807EB5202090241EA425108433C
:10312000217D07EB510140EA4160217B40EAC1600B
:10313000E968264A11400843E86000E062E0286838
:1031400040F080702860E86840F08070E860FFF729
:1031500017FA044606E0FFF713FA001B022801D90C
:1031600003203CE628688001F5D54BE0FFF708FA1C
:10317000001B022801D9032031E628688001F5D41C
:10318000E86813490840E8603CE0012838D0E86866
:10319000226A00F00301914230D1616A00F0F0022E
:1031A000491EB2EB011F29D1A26A00F4FE41B1EB26
:1031B000022F23D100F0784194F82C200AE000007F
:1031C000001002402C000020007000400C809F0185
:1031D000FCFFEEFEB1EBC26F10D1228E00F4C001F5
:1031E00007EB5202B1EB425F08D194F8341000F0C3
:1031F000C06007EB5101B0EB416F03D00120EEE559
:103200000120ECE50020EAE57047000038B50446EF
:10321000206842688168C9434B060AD5CB0708D1AC
:10322000D3435B0605D4E16C01B02046BDE83040D5
:1032300008478B0708D4D3431B0605D4216D01B082
:103240002046BDE8304008478B0603D54B0601D524
:10325000CB0551D4D3439B064ED44B060AD494F8E5
:103260005D30032B49D0236E43F004032366C3680B
:10327000836800938B0609D4236E43F00103236611
:1032800083680093036823F040030360C80506D4F5
:10329000206E40F008002066206880680090206E54
:1032A000002829D02068416821F0E0014160012018
:1032B00084F85D00900701D4D00722D020684168CF
:1032C00021F003014160114DA06D40B18563A06DF7
:1032D000FEF70EFF18B1206E40F040002066606DD2
:1032E000002809D08563606DFEF702FF002803D037
:1032F000206E40F04000206638BDC16880680090B4
:1033000038BD2046FFF780FF38BD00004156000859
:1033100070B50446002C09D0606A002540B12561D3
:103320006561A56294F85D0040B10CE0012070BDBC
:103330006068B0F5827FF4D0E561F2E784F85C5014
:10334000204600F05BF8022084F85D0020680168E8
:1033500021F040010160E1684FF4E062914201D93F
:10336000002001E04FF48050B1F5706F02D091421F
:1033700000D0A562A188228901F4827102F404427E
:103380001143227C02F002021143227D02F001026D
:103390001143228B02F400721143227F02F03802A3
:1033A000114394F8202002F080021143228D02F490
:1033B0000052114322681160A169042202EA1141FE
:1033C00094F8242000F4805002F01002114394F885
:1033D000342002F008021143A28902F47062114302
:1033E0000143206841602068C16921F40061C16126
:1033F0002566012084F85D00002070BDF0B587B01F
:103400000446142102A8FDF738F9464B21684648C6
:10341000022600254FF0904299421CD1016E41F4E2
:1034200080510166016E01F480510191C16C41F03F
:103430000101C164C06C00F001000190E020029025
:103440000396049505950520069002A91046FEF7FF
:10345000ADFF07B0F0BD354B9942FAD1816D41F413
:1034600000418165816D01F400410191C16C41F021
:103470000101C164C16C01F001010191C16C41F015
:103480000401C164C06C00F004000190D8130290E4
:103490000396049505950627069702A91046FEF7A0
:1034A00085FF4FF4E050029003960495059506972A
:1034B00002A91F48FEF77AFF1F4E1E4830600F20FA
:1034C00070601020B060F560802737617561B5616C
:1034D000F56135623046FEF7ADFE08B1FEF706FE37
:1034E0006665B4621348144E1430603630600E20A6
:1034F0007060B560F56037617561B561F561356221
:103500003046FEF797FE08B1FEF7F0FDA665B462FF
:10351000002205213320FFF7C1F83320FFF7B0F870
:1035200097E700000030014000100240003C0040DE
:103530000008004808000240B0170020704770479C
:103540002DE9F84F04468A4691461D46FFF718F8C4
:10355000064694F85D00012802D00220BDE8F88FED
:10356000BAF1000F21D05FEA09001ED094F85C0088
:1035700001281CD04FF0010884F85C80032084F8F7
:103580005D0000272766C4F838A0A4F83C90A4F892
:103590003E902764A4F84470A4F846702765E76459
:1035A000A068B0F5004F04D00DE00120D6E702205E
:1035B000D4E72068016821F04001016020680168BB
:1035C00041F48041016020680168490603D4016824
:1035D00041F040010160E068B0F5E06F2FD960680C
:1035E00010B1B9F1010F20D1A06B21680088C8602B
:1035F000A06B801CA063E08F401EE08715E0206870
:103600008168890709D5A16B0988C160A06B801CFE
:10361000A063E08F401EE08707E0FEF7B1FF801B4C
:10362000A84201D3681C04D11DB1E08F0028E6D167
:1036300049E084F85D8084F85C7003208EE7606860
:1036400010B1B9F1010F3BD1E08F01280AD9A06B6D
:1036500021680088C860A06B801CA063E08F801E7A
:10366000E0872DE0A06B216800780873A06B401CF8
:10367000A063E08F401EE08722E020688168890710
:1036800016D5E18F012909D9A16B0988C160A06B0A
:10369000801CA063E08F801EE08711E0A16B097899
:1036A0000173A06B401CA063E08F401EE08707E021
:1036B000FEF766FF801BA84201D3681C0ED16DB1D6
:1036C000E08F0028D9D132462946204602F080F802
:1036D00008B120202066A06830B109E084F85D8040
:1036E00084F85C70032039E72068C1688068009026
:1036F00084F85D8084F85C70206E08B101202DE7AD
:1037000000202BE770B5044694F85D006568012839
:1037100008D0B5F5827F03D1A5680DB9042801D082
:10372000022070BD51B34AB343B394F85C00012842
:1037300026D0012684F85C6094F85D00042802D04D
:10374000052084F85D0000252566A163A387E38733
:103750002264A4F84430A4F84630E5642565206866
:10376000416821F4C0414160E068B0F5E06F09D9DB
:103770002068416821F48051416033E0012070BD30
:10378000022070BD2068416841F480514160606D45
:103790004FF48061806988420CD194F83C00C007E6
:1037A00040D02068426842F480424260E08F06EBDD
:1037B0005000E087A06D8069884213D1206841687D
:1037C00021F480514160B4F84600C00733D020682E
:1037D000416841F400514160B4F8460006EB5000E6
:1037E000A4F8460094F85D0004282FD0A16D344859
:1037F0000863A16D3348C862A16D33484863A06D6A
:103800008563B4F846302168226C0C31A06DFEF758
:1038100073FD10B3206E40F01000206684F85C50F9
:10382000012070BD2068426822F480424260E08F2F
:103830004008E087BEE72068416821F400514160FC
:10384000B4F846004008A4F84600CBE7A16D1F4835
:103850000863A16D1E48C862CEE72068416841F048
:1038600001014160606D0563606DC562606D456317
:10387000606D8563E38F2268A16B0C32606DFEF78B
:103880003BFD38B1206E40F01000206684F85C509B
:10389000012070BD20680168490603D4016841F029
:1038A0004001016084F85C502068416841F02001CB
:1038B00041602068416841F002014160002070BD14
:1038C0007F560008F7560008535600087556000842
:1038D0008956000810B500680B49884213D10B497E
:1038E000142201F58070FCF72FFE0948C0780328E8
:1038F00006D0064A1423A2F580610648FFF702FFAE
:1039000005490120087010BD003C0040E51400206E
:10391000E51500204C170020040000207047704778
:1039200070477047704770477047704710B504463E
:10393000002C03D094F83D0010B107E0012010BD29
:10394000002084F83C00204600F017F8022084F89C
:103950003D00211D206802F0B5F801203D34E072E1
:103960006070A070E07020716071A071E0712072D1
:103970006072A0722070002010BD704790F83D105A
:10398000012901D001207047022180F83D10016813
:10399000CA6842F00102CA6000681549884214D022
:1039A000B0F1804F11D0134988420ED0124988429D
:1039B0000BD01249884208D01149884205D01149DC
:1039C000884202D0104988420CD181680F4A1140C8
:1039D00006290BD0B1F5803F08D0016841F0010104
:1039E000016003E0016841F00101016000207047BF
:1039F000002C01400004004000080040000C004082
:103A00000034014000400140005001400700010027
:103A100070472DE9F04104462068C66805694FF0FB
:103A20000007A90714D5B10712D5F91E01610120BD
:103A3000207720688069800703D02046FFF7E8FFE1
:103A400005E0204600F0BAF8204600F0B8F82777E5
:103A5000680717D5700715D521686FF00400086155
:103A6000022020772068806910F4407F03D0204630
:103A7000FFF7CEFF05E0204600F0A0F8204600F05A
:103A80009EF82777280716D5300714D521686FF0E0
:103A900008000861042020772068C069800703D0EF
:103AA0002046FFF7B5FF05E0204600F087F82046E6
:103AB00000F085F82777E80617D5F00615D52168B8
:103AC0006FF010000861082020772068C06910F4AA
:103AD000407F03D02046FFF79BFF05E0204600F023
:103AE0006DF8204600F06BF82777E80708D0F0075C
:103AF00006D021686FF001000861204600F060F8F0
:103B0000280601D4A80408D5300606D521686FF42C
:103B1000025008612046FFF703FFE80508D530068C
:103B200006D521686FF4807008612046FFF7F7FE24
:103B3000680608D5700606D521686FF04000086158
:103B4000204600F047F8A80608D5B00606D521683B
:103B50006FF0200008612046FFF7E3FEE80208D579
:103B6000F00206D521686FF4801008612046FFF747
:103B7000DAFEA80208D5B00206D521686FF400105D
:103B800008612046FFF7CEFE680208D5700206D510
:103B900021686FF4800008612046FFF7C5FE280207
:103BA0000AD5300208D521686FF40000086120466C
:103BB000BDE8F041FFF7B9BEBDE8F081704770473E
:103BC00000680349884201D1FEF7E0BC704700005D
:103BD00000140040704790F88410012918D001218A
:103BE00080F884102421C0F8881001680A680B68E6
:103BF00023F001030B6022F00051002242660368AB
:103C000019602021C0F8881080F8842000207047B7
:103C10000220704770B5044694F8840001281DD036
:103C2000012084F884002420C4F8880020680568F6
:103C3000026822F0010202602068826822F060625D
:103C40000A438260204601F0ABFF20680560202017
:103C5000C4F88800002084F8840070BD022070BD84
:103C600070B5044694F8840001281DD0012084F822
:103C700084002420C4F8880020680568026822F0C7
:103C8000010202602068826822F060420A4382607A
:103C9000204601F085FF206805602020C4F88800D8
:103CA000002084F8840070BD022070BD10B5044669
:103CB000002C03D0D4F8880010B107E0012010BD1B
:103CC000002084F88400204600F028F82420C4F85E
:103CD00088002068016821F001010160A06A10B12C
:103CE000204601F081FF204602F062F8012813D03F
:103CF0002068416821F4904141602068816821F08A
:103D00002A0181602068016841F0010101602046BC
:103D1000BDE8104001F0CCBF012010BD10B59CB033
:103D20000446142117A8FCF7A8FC542102A8FCF7AC
:103D3000A4FC16492068884226D101200290002464
:103D4000039402A8FEF74AFD08B1FEF7CFF9104828
:103D5000016E41F480410166016E01F480410191E0
:103D6000C16C41F00401C164C06C00F0040001901A
:103D7000302017900220189019941A9407201B9055
:103D800017A90448FEF712FB1CB010BD0038014013
:103D900000100240000800482DE9F84F04460E4686
:103DA00015461F46D4F88800202802D00220BDE81E
:103DB000F88F9EB195B10020C4F890004FF0210813
:103DC000C4F88880FEF7DCFB8246A4F85450A4F8BF
:103DD0005650A068B0F5805F02D003E00120E6E70E
:103DE000206920B1354600264FF0200925E0002546
:103DF000FAE75346002280212046009702F060F93E
:103E000018B1C4F888900320D1E755B1216815F89E
:103E1000010B8862D4F8880038EA000008D001203D
:103E2000C5E736F8020B2168C0F308008862F1E7A5
:103E3000B4F85600401EA4F85600B4F85600002806
:103E4000D7D15346002240212046009702F038F98E
:103E500018B1C4F888900320A9E7C4F8889000201E
:103E6000A5E770B504460D46164600F053F8002845
:103E70000AD132462946204600F008F8044600F0F0
:103E80005FF8002C00D0204670BD000070B50C46D5
:103E90001546002C11D085B10A49097879B108B1CD
:103EA00002F08AF9204600F00FF8002804D12078AB
:103EB00000F05AF82870002070BD022070BD032069
:103EC00070BD00000000002070B50646002E06D030
:103ED00000F00EFB0546A80903D0032070BD0220A8
:103EE00070BD0124012002F067F900F001FB810997
:103EF00001D0032070BDA84204D100F03F00307013
:103F0000002070BD0546641CE4B2042CEAD30120F5
:103F100070BD000010B5094C2078002801D00320A6
:103F200010BD802001F043F80028F9D10D2000F0E9
:103F3000D7FB01202070002010BD000000000020F1
:103F400010B5084C207800280AD0002000F0C8FBEB
:103F5000802001F02CF8002801D10021217010BD33
:103F6000032010BD0000002030B50146002001F004
:103F70003F030021012505FA01F42A461C4204D022
:103F8000C1F10504A240D2B21043491CC9B20629AE
:103F9000F1D330BD10B5002000F0BAFB002000F0D6
:103FA000ABFB002000F0D0FBBDE8104000224FF436
:103FB00080610148FEF7DDBA001000487CB5064676
:103FC0000C461546802000F0F2FF00281AD16B46FF
:103FD00001AA3146012000F0DBFF00229DF800100D
:103FE0009DF8040000F00FF800280BD16B4601AAE1
:103FF000214600F0CDFF2A469DF800109DF80400F0
:1040000000F001F87CBD002801D1914201D00320CD
:1040100070470020704770B50546002403E000F0AB
:1040200005F8641CA4B2AC42F9D370BD70B5012090
:1040300002F0C2F80122084D940221462846FEF7FC
:1040400098FA012002F0B8F821462846BDE87040F1
:104050000022FEF78EBA0000001000482DE9F04162
:1040600004460D46012002F0A7F801220A4F9602ED
:1040700031463846FEF77DFA012002F09DF8002215
:1040800031463846FEF775FA00F01CFB207000F050
:104090002FFA2870BDE8F0810010004870B5044682
:1040A0000D46164600F074F800280AD1324629461B
:1040B000204600F02BF8044600F080F8002C00D0D9
:1040C000204670BD70B50C461546072803D81F2C36
:1040D00001D81F2D01D9022070BD03460422702192
:1040E0002A2000F07FF80028F6D1234600221F2165
:1040F0002B2000F077F80028EED12B46BDE8704069
:1041000000221F212C2000F06DB8000070B50C4675
:104110001546002C11D085B10A49497879B108B10A
:1041200002F04AF8204600F00FF8002804D1207869
:1041300000F001002870002070BD022070BD032037
:1041400070BD00000000002070B50646002E06D0AD
:1041500000F0CEF90546680803D0032070BD0220A8
:1041600070BD0124012002F027F800F0C1F94108D8
:1041700001D0032070BDA84202D13070002070BD74
:104180000546641CE4B2042CECD3012070BD000091
:1041900010B5094C6078002801D0032010BD8020A4
:1041A00000F005FF0028F9D10C2000F099FA012059
:1041B0006070002010BD00000000002010B5084C09
:1041C000607800280AD0002000F08AFA802000F0F1
:1041D000EEFE002801D10021617010BD032010BD4A
:1041E000000000202DE9FC4106460D4617461C46FE
:1041F00001A9304600F09AF8002816D1BC402C40A6
:104200009DF80410A9432143304600F0F1FE002838
:104210000BD16946304600F089F8002805D19DF899
:1042200000002840A04202D10020BDE8FC8104200B
:10423000FBE710B50446002000F052FA802000F0A1
:10424000B6FE204610BD2DE9FC478146DDE90A7522
:10425000884616461C46B9F1010F0AD8B8F17F0FFF
:1042600007D8012E05D8402C03D8032F01D8072DDD
:1042700002D90220BDE8FC87802000F098FE0028CB
:10428000F8D16B4601AA0321012000F081FE002233
:104290009DF800109DF8040000F0AAF810B1FFF797
:1042A000C8FFE7E73021484600F0FBF910B1FFF7FF
:1042B000C0FFDFE73121404600F0F3F910B1FFF70E
:1042C000B8FFD7E73221304600F0EBF910B1FFF725
:1042D000B0FFCFE7012E00D000242046332100F0AC
:1042E000E0F910B1FFF7A5FFC4E73421384600F02C
:1042F000D8F910B1FFF79DFFBCE73521002000F091
:10430000D0F910B1FFF795FFB4E7002409E036219A
:10431000002000F0C6F910B1FFF78BFFAAE7641C7C
:10432000E4B2AC42F3D30020A4E700007CB504461D
:104330000D462D2C1CD2DDB1F02200210F20FFF7FD
:104340003DFE002813D16B4601AA214600F020FE55
:104350009DF8040070B19DF800002870802000F0E6
:1043600026FE002803D1044A9DF8001011557CBD9B
:1043700002207CBD03207CBDB80000207CB5054632
:10438000002D22D0F02201210F20FFF717FE002878
:104390001AD1002400216B4601AA084600F0F8FD5E
:1043A0009DF8040098B19DF800202A55641CE4B2E1
:1043B0002D2CEFD300216B4601AA084600F0E8FD42
:1043C0009DF8040028B103207CBD02207CBD0320A1
:1043D0007CBD802000F0EBFD044624B92D22294647
:1043E0000248FCF7B1F820467CBD0000B800002070
:1043F000002801D1914201D003207047002070476E
:10440000F0B599B00446002C11D0607A07280ED878
:10441000A07A0F280BD8E07A072808D8207B1F281D
:1044200005D8607B072802D8207A400802D00220F5
:1044300019B0F0BD0DA8FFF7A1FF0028F8D10921A0
:1044400011A8FCF71AF90122012310260DAD11461F
:10445000204600F069F858B1501E014606EBD00026
:10446000C0B201F0070703FA07F12F5C0F432F5486
:10447000521CD2B2412AEAD30021204600F054F85F
:1044800008B1012000E00020617A0E2202EA410119
:104490000843A17A40EA01108DF84C00E07A217BB4
:1044A00000F0070040EAC1008DF84D009DF84E0075
:1044B000617B00F0F80001F0070108438DF84E0021
:1044C0000DA800F0C9FD0028B2D101A8FFF756FFE2
:1044D0000028ADD1102001A92B5C0A5C9A4201D0C2
:1044E0000420A5E7401CC0B21A28F5D900209FE798
:1044F0002DE9F041002500240A4E012706EBC400F7
:10450000818856F83400FEF72DF8012803D107FA08
:1045100004F0C0B20543641CE4B2082CEED3284674
:10452000BDE8F081747A0008002801D0412901D348
:104530000020704700EBD10001F007010078C8406F
:1045400000F00100704710B50446002C09D00E2180
:104550002046FCF770F800206072A072E0722073B1
:10456000607310BD2DE9FF410A9D002D1CD0002471
:104570002C606C602C72CDE9002300231A46FFF7F3
:1045800062FE00280DD10127002102AB03AA0846D4
:1045900000F0FEFC9DF80C00012807D00320FFF777
:1045A00048FE04B0BDE8F0810220FAE7002000EBED
:1045B000C401491CC9B29DF8082007FA00F616424A
:1045C00008D005EBD10201F00701137807FA01F6D4
:1045D00033431370401CC0B20828E8D3641CE4B213
:1045E000082CD1D3002102AB03AA084600F0D0FC6E
:1045F0009DF80C00012803D19DF80800410803D064
:104600000320FFF716FECCE7297800F001000143F4
:104610002970802000F0CBFCC3E710B5002803D040
:10462000412901D2012A01D9022010BD01F007045D
:104630000123A340DBB200EBD1001AB1017819438A
:10464000017002E0017899430170002010BD7FB530
:10465000DDE90854002C12D0CDE9003513460122C3
:10466000FFF7F1FD00280BD1002102AB03AA084699
:1046700000F08EFC9DF80C00012807D102E002201A
:1046800004B070BD9DF80800410803D00320FFF777
:10469000D0FDF5E700F001002070802000F087FCDD
:1046A000EEE71CB50C4601466B4601AA002000F05F
:1046B0006FFC22469DF800109DF80400FFF798FE5D
:1046C0001CBD000010B54FF400710448FDF74AFF0F
:1046D000012801D0002010BD012010BD00040048B9
:1046E00010B50446012000F007F8204600F010F84D
:1046F000BDE81040FFF79ABC002801D0012200E07D
:1047000000224FF400710148FDF733BF001000484C
:104710002DE9F041064600240A4D012707FA04F06E
:10472000304201D0012200E0002205EBC400818864
:1047300055F83400FDF71DFF641CE4B2082CEDD3DE
:10474000BDE8F081347A0008002801D0012200E0A1
:1047500000224FF480710148FDF70BBF00100048A4
:10476000002805D000224FF480410248FDF701BF28
:104770000122F8E7001400482DE9FC41064688466E
:10478000002E02D0B6F5805F02D90220BDE8FC8180
:104790000024124F12E06A4601A94046FFF761FB70
:1047A000054635B12A4621460DA000F0C3FE284635
:1047B000ECE79DF800003855641CA4B2B442EAD37B
:1047C0004246314613A000F0B5FE3146034800F0E2
:1047D000C9FE1AA000F0AEFE0020D7E7E5000020D9
:1047E0004144435F5445535420636F6E74696E7542
:1047F0006F7573206661696C65643A20696E6465E3
:10480000783D2575207374617475733D25750D0AA7
:10481000000000004144435F444154415F4245472A
:10482000494E20636F756E743D25752077616974FC
:104830005F75733D25750D0A000000004144435F1C
:10484000444154415F454E440D0A0000F8B5064608
:104850000D4600200090002D0CD02A4669463046B7
:10486000FFF7FFFA04463CB1214608A000F062FEC3
:104870002046F8BD0220F8BD2B789DF80020314677
:104880000BA000F057FE0020F8BD00004144435F3C
:10489000544553542073696E676C65206661696C7A
:1048A00065643A207374617475733D25750D0A0053
:1048B0004144435F544553542073696E676C6520CF
:1048C0007061737365643A20776169745F75733DD5
:1048D0002575207261773D30782530325820636F1E
:1048E00064653D25750D0A0010B58CB06846FFF76C
:1048F00045FD044634B121460EA000F01BFE2046C3
:104900000CB010BD2D21684600F050FE0021684615
:10491000425C2AB1425C0FA000F00CFE0420EFE7DD
:10492000491CC9B22D29F3D319A000F003FE0020C1
:10493000E6E700004346475F44454641554C542056
:104940006661696C65643A207374617475733D25A2
:10495000750D0A004346475F44454641554C542077
:104960006661696C65643A20616464723D257520F6
:1049700065787065637465643D30783030206163BC
:104980007475616C3D3078253032580D0A00000096
:104990004346475F44454641554C5420706173730C
:1049A00065643A2034352072656769737465727383
:1049B0002061726520307830300D0A007CB50646E3
:1049C0000D46002001902946304600F011FB0446B8
:1049D00023462A46314612A000F0ACFD0CB1204619
:1049E0007CBD01A93046FFF7A1FC044600949DF868
:1049F00004302A46314615A000F09CFD0CB120463B
:104A00007CBD9DF80400A84204D01FA000F092FDD8
:104A100004207CBD21A000F08DFD00207CBD0000A5
:104A200057524954455F43464720616464723D25AF
:104A3000752076616C75653D30782530325820736D
:104A400074617475733D25750D0A0000524541442B
:104A50005F43464720616464723D25752065787028
:104A600065637465643D3078253032582061637425
:104A700075616C3D307825303258207374617475DF
:104A8000733D25750D0A00004346475F53494E4765
:104A90004C45206661696C65640D0A004346475FBA
:104AA00053494E474C45207061737365640D0A008D
:104AB00030B599B000200DACC10711D0AA21215406
:104AC000401CC0B22D28F7D30DA800F0C5FA05464A
:104AD000294617A000F02EFD25B1284619B030BD9B
:104AE0005521ECE701A8FFF749FC0546294617A028
:104AF00000F020FD0DB12846F0E72D2101A800F0BF
:104B000055FD002101A8635C425C9A4206D0435CDB
:104B1000625C15A000F00EFD0420DFE7491CC9B25D
:104B20002D29F0D31FA000F005FD0020D6E70000DE
:104B300057524954455F43464720746F74616C2057
:104B40007374617475733D25750D0A0052454144B7
:104B50005F43464720746F74616C20737461747591
:104B6000733D25750D0A00004346475F544F54417D
:104B70004C206661696C65643A20616464723D250D
:104B8000752065787065637465643D3078253032D2
:104B9000582061637475616C3D3078253032580D52
:104BA0000A0000004346475F544F54414C20706157
:104BB000737365643A203435207265676973746570
:104BC0007273206D6174636865640D0A00000000F3
:104BD0007CB50020FFF7C4FDFFF7DCF90720FFF7E5
:104BE0001AFA694601A8FFF739FA9DF8041019B9B5
:104BF0009DF80000A52806D09DF8002010A000F028
:104C000099FC04207CBD0120FFF79EFD802000F070
:104C1000CEF904465CB1FFF76BFC0546FFF752FD89
:104C200001462A4614A000F085FC20467CBD0120E8
:104C3000FFF796FD1EA000F07DFC00207CBD00006B
:104C4000494E495449414C5F544553542072657351
:104C500065742D7374617465206661696C65643A6E
:104C60002056414C49443D257520444154413D3036
:104C700078253032580D0A00494E495449414C5F5D
:104C8000544553542069646C652D737461746520B8
:104C90006661696C65643A2056414C49443D25750E
:104CA00020444154413D3078253032580D0A0000EF
:104CB000494E495449414C5F5445535420706173E7
:104CC0007365640D0A0000002DE9F04385B081464C
:104CD0000C9C0E461746984600200490002C0ED0DF
:104CE0003A4631464846FFF7EDF905464DB12946AB
:104CF0001AA000F01FFC284605B0BDE8F083022092
:104D0000FAE7224604A94046FFF7C8F905462DB147
:104D100029461CA000F00EFC2846EDE7BE4201D259
:104D2000012500E0002520789DF81010CDE9025003
:104D3000CDE900813B46324649461C4800F0FAFB6B
:104D40002078A84204D01AA000F0F4FB0420D3E796
:104D50001CA000F0EFFB0020CEE700004F435444BE
:104D6000435F5445535420636F6E666967206661E4
:104D7000696C65643A207374617475733D25750DB3
:104D80000A0000004F435444435F5445535420638A
:104D9000617074757265206661696C65643A207330
:104DA00074617475733D25750D0A0000607C000800
:104DB0004F435444435F54455354206661696C65C6
:104DC000640D0A004F435444435F544553542070CC
:104DD00061737365640D0A0070B505460C4616468E
:104DE000002D03D0012C01D8412E01D3022070BD2B
:104DF0002846FFF7A8FB00206872A872E8722873A3
:104E0000687364B10024012221462846FFF705FC9F
:104E10000028ECD1641CE4B2412CF4D306E001225A
:104E200031462846FFF7F9FB0028E0D1002070BD8D
:104E300010B588B00022012104A8FFF7CDFF044679
:104E40001CB904A8FFF7DCFA044644B9002301A802
:104E500000901A4619461846FFF784FB044634B101
:104E600021460FA000F066FB204608B010BD0023CD
:104E70001A46194612A000F05DFB0024214601A845
:104E8000FFF752FB024621461AA000F053FB641CB8
:104E9000E4B2412CF2D319A000F04CFB0020E4E76F
:104EA000524541445F524F57206661696C65643AD0
:104EB000207374617475733D25750D0A0000000040
:104EC000524541445F524F575F444154415F424510
:104ED00047494E20726F773D25752063656C6C3DA8
:104EE00025752061646170746976653D25750D0ACC
:104EF0000000000025752C25750D0A00524541441F
:104F00005F524F575F444154415F454E440D0A0084
:104F100030B587B0002502950022114603A8FFF79F
:104F20005BFF04461CB903A8FFF76AFA04464CB9B4
:104F300002A80023CDE900501A4619461846FFF78B
:104F400086FB044634B1214608A000F0F3FA20465F
:104F500007B030BD9DF808000023CDE900501A4687
:104F600019460A4800F0E6FA0020F1E752454144AC
:104F70005F53494E474C45206661696C65643A2031
:104F80007374617475733D25750D0A00B07C00085B
:104F900070B50C4615461E46FFF7AEFB2046FFF7E0
:104FA000B7FB31462846BDE87040FFF757B87CB5DF
:104FB0000646002400250DE000216B4601AA0846A4
:104FC000FFF7E6FF9DF804109DF80000014305D0AF
:104FD00000246D1CB542EFD301207CBD641CE4B2FB
:104FE000022CF6D30120FFF716F800207CBD00004C
:104FF0007CB504460D462D2C01D302207CBDE02259
:1050000000210E20FEF7DAFF0028F7D16B4601AA37
:105010002146FFF7BDFFE1229DF800109DF8040036
:10502000FEF7F1FF0028E9D16B4601AA2946FFF7F8
:10503000AFFFE2229DF800109DF80400FEF7E3FFA9
:105040000028DBD18020FFF7B2FF0028D6D101492C
:105050000D557CBDB80000207CB50546002D2FD035
:10506000E02201210E20FEF7A9FF002829D100240B
:105070006B46295D01AA0020FFF78AFF22469DF8B2
:1050800000109DF80400FEF7BEFF002819D1641C33
:10509000E4B22D2CECD300216B4601AA0846FFF7A1
:1050A00077FF2C229DF800109DF80400FEF7ABFF5F
:1050B000002806D18020FFF77AFF044614B106E0ED
:1050C00002207CBD2D2229460248FBF73DFA2046EE
:1050D0007CBD0000B8000020FEE7000008B51148C4
:1050E000816C41F004018164816C01F00401009144
:1050F000816C41F001018164806C00F0010000903E
:10510000002205210B20FDF7C9FA0B20FDF7B8FAA4
:10511000002205210C20FDF7C1FABDE808400C2053
:10512000FDF7AEBA0010024030B59DB0294D286899
:105130001C90002201211CA801F0CEF8264C6061D1
:1051400068681B90002201211BA801F0C5F8A0612E
:10515000A8681A90002201211AA801F0BDF8E061A8
:10516000142205F10C0115A8FBF733FA002115A84C
:1051700001F09BF82060142205F1200110A8FBF734
:1051800028FA002110A801F090F86060142205F1BF
:1051900034010BA8FBF71DFA00210BA801F085F8DC
:1051A000A060142205F1480106A8FBF712FA0021BD
:1051B00006A801F07AF8E060142205F15C0101A86C
:1051C000FBF707FA002101A801F06FF820611DB07C
:1051D00030BD0000B47A00080C0000202DE9F04F2B
:1051E00087B0142102A8FBF748FA8A48C16C41F045
:1051F0001001C164C16C01F010010191C16C41F05A
:105200000401C164C16C01F004010191C16C41F061
:105210002001C164C16C01F020010191C16C41F019
:105220004001C164C16C01F040010191C16C41F0C9
:105230000101C164C16C01F001010191C16C41F037
:105240000201C164C16C01F002010191C16C41F025
:105250000801C164C06C00F008000190DFF8B8815B
:10526000002244F2FF714046FDF783F9DFF8ACA15C
:1052700048F2C036002231465046FDF77AF9DFF891
:10528000A0B100224FF404715846FDF772F90122D3
:1052900040F202416348FDF76CF901224FF460418E
:1052A0005846FDF766F9012251034046FDF761F9C2
:1052B000DFF87491002249F638414846FDF759F964
:1052C00001224FF4C0414846FDF753F90022112155
:1052D0005448FDF74EF94FF4E857002239464FF095
:1052E0009040FDF746F942F2FF70029001250395C8
:1052F00000240494059402A94046FDF757F844F2AF
:105300000F0002900394049402A95046FDF74EF852
:10531000029603950494059402A95046FDF746F8B9
:105320002C2002900394049402A95846FDF73EF8FD
:105330004EF21020029003950494059402A9584659
:10534000FDF734F840F2124002900395049405945E
:1053500002A93448FDF72AF8182002900394049417
:1053600002A94FF09040FDF721F84FF40170029030
:105370000394049402A94846FDF718F8A803029084
:10538000039504940226059602A94046FDF70EF8FF
:10539000E80302900394049402A94046FDF706F83E
:1053A0004FF4F840029003950494059602A94846EC
:1053B000FCF7FCFF48F23800029003950494059432
:1053C00002A94846FCF7F2FF4FF6FF7002900394E3
:1053D000049402A91548FCF7E9FF0295039504948B
:1053E000059602A90F48FCF7E1FF02970395049484
:1053F000059402A94FF09040FCF7D8FF4FF460707D
:1054000002900394049402A90648FCF7CFFF07B06A
:10541000BDE8F08F0010024000100048000800486E
:10542000001400480018004800040048000C004820
:1054300010B51248104901604FF48271416000219B
:1054400081604FF4E062C260022202614161120297
:1054500082612022C2610162416281620722C262CE
:10546000016308214163FDF753FF002803D0BDE825
:105470001040FCF73BBE10BD00300140E816002094
:1054800010B510480E4901600021416081604FF461
:10549000E062C26002220261012242618161016216
:1054A000416281620722C26201634163FDF730FFFE
:1054B000002803D0BDE81040FCF718BE10BD000066
:1054C000003C00404C17002010B5184816490160F8
:1054D0004FF4E131416000218160C16001610C2223
:1054E00042618161C161016241628162FEF7DEFB5E
:1054F00008B1FCF7FBFD00210C48FEF7B1FB08B139
:10550000FCF7F4FD00210948FEF784FB08B1FCF725
:10551000EDFD0648FEF75FFB002803D0BDE8104014
:10552000FCF7E4BD10BD00000038014070180020F9
:10553000FEE7FEE70FB400B5A9B02BABA02101A890
:105540002A9AFAF7E7FF00210091002806DDA0283B
:1055500000D9A02081B201A800F01AF829B05DF8A6
:1055600014FB000070B505460E46002D0AD000243D
:1055700006E02A5D214604A0FFF7DCFF641CA4B20C
:10558000B442F6D370BD000025752C25750D0A00B8
:10559000002807D0002905D00A46014664230248A6
:1055A000FEF7FABB704700007018002070B5054682
:1055B0000E46002D0AD0002406E02A5D214604A0F4
:1055C000FFF7B8FF641CE4B2B442F6D370BD00002C
:1055D0004346475B253032755D3D30782530325883
:1055E0000D0A00001049C86800F00302C868C0F343
:1055F0000310401C032A0ED00C4AB2FBF0F0CA681C
:10560000C2F306225043C968C1F34161491C4900F5
:10561000B0FBF1F07047064AB2FBF0F0CA68C2F383
:1056200006225043EFE70000001002400024F4007F
:1056300000127A000148FDF7E9BD00004C17002078
:1056400010B5806A0021A0F84610C187FDF7DCFD87
:1056500010BD10B5806A01684A6822F003024A60F2
:10566000016E41F010010166012180F85D10FDF727
:10567000CBFD10BD10B5806AFDF761FF10BD10B500
:10568000806AFEF74BF910BD70B50546AC6AFCF7B1
:1056900077FF024628680068800628D420684168A1
:1056A00021F020014160A06818B96068B0F5827FE0
:1056B00017D02068416821F0010141606421204633
:1056C00000F047F808B1202020660020A4F846002A
:1056D000012084F85D00206E48B12046FDF794FD5E
:1056E00070BD2068416821F003014160E6E7204673
:1056F000FDF724FF70BD70B50546AC6AFCF740FFAE
:1057000002462868006880061FD42068416821F09E
:10571000200141606421204600F05AF818B1206E43
:1057200040F0200020662068416821F003014160BC
:105730000020E087A4F84600012084F85D00206E78
:1057400018B12046FDF760FD70BD2046FEF7C2F897
:1057500070BD2DE9F8430446884615464FF40046CF
:1057600060684FF482797711484509D1A068B0424A
:1057700001D0B84204D12068016821F040010160E5
:105780004346002280212046009500F0C3F830B146
:10579000206E40F0200020660320BDE8F88360689A
:1057A000484513D1A068B04201D0B8420ED143465B
:1057B00000224FF4C0612046009500F03BF828B16C
:1057C000206E40F0200020660320E6E70020E4E79A
:1057D000F8B504460E461546334600224FF4C05134
:1057E0002046009500F026F828B1206E40F02000F9
:1057F00020660320F8BD3346002280212046009514
:1058000000F088F828B1206E40F0200020660320C8
:10581000F8BD334600224FF4C0612046009500F0E9
:1058200009F828B1206E40F0200020660320F8BD62
:105830000020F8BD2DE9FC5F04460C9D0E4617467E
:1058400098464FF0000BCDF800B0FCF799FE401BD6
:10585000A8EB0005FCF794FE8146D4F800A00AF1FD
:105860000C0A2B480068C0EBC00000EB8000000D64
:105870006843019017E0B6F5C06F05D127B99AF8D3
:10588000000000909DF80000B8F1FF3F0BD0FCF73E
:1058900077FEA0EB0900A8420DD265B10198A0B334
:1058A0000198401E0190206880683040B842E2D1E3
:1058B0000020BDE8FC9F2068416821F0E0014160C4
:1058C0006068B0F5827F0BD1A068B0F5004F02D0C0
:1058D000B0F5806F04D12068016821F040010160BB
:1058E000A06AB0F5005F09D12068016821F4005179
:1058F00001602068016841F400510160012084F8D2
:105900005D0084F85CB00320D3E7FFE70025CAE719
:10591000380000202DE9F84304460F4691461E4604
:10592000089DFCF72DFE401B351AFCF729FE80462A
:1059300027480068C0F3CB30684300900DE0701C2E
:105940000BD0FCF71DFEA0EB0800A84210D27DB1E1
:105950000098B8B30098401E00902068806837EA2D
:10596000000032D000204845E9D10020BDE8F8838E
:105970002068416821F0E00141606068B0F5827FF5
:105980000BD1A068B0F5004F02D0B0F5806F04D104
:105990002068016821F040010160A06AB0F5005F55
:1059A00009D12068016821F4005101602068016874
:1059B00041F40051016001205C34607000202070CF
:1059C0000320D3E7FFE70025C7E70120CBE700006E
:1059D000380000200A4C4FF400564FF4FA750122AB
:1059E00031462046FCF7C5FD284600F051FC002258
:1059F00031462046FCF7BDFD284600F049FCEEE7A5
:105A000000140048FEE7FEE71E2000F041FCFBE723
:105A10001E2000F03DFCFBE710B5502080F31188FC
:105A2000BFF34F8FBFF36F8F01F002FE18B104492F
:105A30004FF080500860002080F3118810BD0000F6
:105A400004ED00E010B594B0382106A8FAF715FE71
:105A5000142101A8FAF711FE0020FCF751FE0120E5
:105A600006900004079002200D9003240E940F90DE
:105A70005521109111901290139006A8FDF79CF9F2
:105A800008B1FCF733FB0F20019002940020039033
:105A900004900590042101A8FDF728F8002801D002
:105AA000FCF724FB14B010BD0248016841F47001FA
:105AB0000160704788ED00E00148FDF7AABF0000D3
:105AC000041900202DE9F04F02682C4EDFF8B09049
:105AD000DFF8B0A0DFF8B0B02C4B2D4C4FF0804E6B
