:020000040800F2
:10000000D06C002039030008C72800086D240008C0
:10001000C5280008AD0600083D34000800000000B7
:10002000000000000000000000000000790200084D
:10003000CF07000800000000D5020008FD2C0008D2
:100040005303000853030008530300085303000838
:100050005303000853030008530300085303000828
:100060005303000853030008530300080507000862
:100070001107000853030008530300085303000846
:1000800053030008530300085303000853030008F8
:1000900053030008530300085303000853030008E8
:1000A00053030008530300085303000853030008D8
:1000B00053030008530300085303000853030008C8
:1000C00053030008530300085303000853030008B8
:1000D00053030008530300085303000853030008A8
:1000E0005303000853030008530300085303000898
:1000F0005303000853030008530300085303000888
:10010000530300085303000853030008192900088B
:100110005303000853030008530300089D2D0008F3
:100120005303000853030008530300085303000857
:100130005303000853030008530300085303000847
:100140005303000853030008530300085303000837
:100150005303000853030008530300085303000827
:100160005303000853030008530300085303000817
:100170005303000853030008530300085303000807
:1001800053030008530300085303000853030008F7
:100190005303000800000000530300085303000845
:1001A00053030008530300085303000853030008D7
:1001B00053030008530300085303000853030008C7
:1001C00053030008530300085303000853030008B7
:1001D000530300085303000800F002F800F03CF855
:1001E0000AA090E8000C82448344AAF10107DA4592
:1001F00001D100F031F8AFF2090EBAE80F0013F0A8
:10020000010F18BFFB1A43F001031847F84A00001A
:10021000184B0000103A24BF78C878C1FAD85207AA
:1002200024BF30C830C144BF04680C607047000070
:100230000023002400250026103A28BF78C1FBD8EF
:10024000520728BF30C148BF0B6070471FB504F08C
:10025000DDFC1FBD10B510BD00F0A6F91146FFF77B
:10026000F5FF03F0FDF800F0C4F903B4FFF7F2FF67
:1002700003BC00F0CBF900002C4B19680868B0E80B
:10028000F04F80F30988BFF36F8F4FF0000080F3C9
:10029000118870470000000008480068006880F37B
:1002A00008884FF0000080F3148862B661B6BFF38F
:1002B0004F8FBFF36F8F00DF00BF00BF08ED00E07E
:1002C000DFF80C00016841F470010160704700BF65
:1002D00088ED00E0EFF30980BFF36F8F134B1A68CE
:1002E0001EF0100F08BF20ED108A20E9F04F1060BB
:1002F00009B44FF0500080F31188BFF34F8FBFF364
:100300006F8F03F075FF4FF0000080F3118809BC78
:1003100019680868B0E8F04F1EF0100F08BFB0EC85
:10032000108A80F30988BFF36F8F70473400002074
:10033000EFF30580704700000948804709480047EF
:10034000FEE7FEE7FEE7FEE7FEE7FEE7FEE7FEE785
:10035000FEE7FEE704480549054A064B70470000E2
:100360008D2D0008D9010008D05A0020D06C002043
:10037000D05C0020D05C002053EA020C00F06980C1
:100380002DE9F04B4FF00006002B1FBFB3FA83F5A9
:1003900003FA05F424FA05F65E4012BF1643B2FADA
:1003A00082F502FA05F4C5F120051EBF22FA05FC0C
:1003B00044EA0C04203556EA044C4FEA144418BFB2
:1003C000641C4FF000084FF00009904271EB030CE1
:1003D00039D3002919BFB1FA81F701FA07F6B0FA4B
:1003E00080F700FA07F6C7F120071EBF20FA07FCC6
:1003F00046EA0C062037B6FBF4FCA7EB0507103FD6
:1004000007F01F0BCBF120060CFA0BFB2CFA06F6BB
:1004100044BFB3460026202FA4BF5E464FF0000B1A
:100420005BEA060C08BF4FF0010B19EB0B09ABFBA5
:10043000027C48EB0608C01B06FB02CC0BFB03CC7E
:1004400071EB0C01C1E70B46024641464846BDE848
:10045000F08B13B54FF000004FF00001AFF30080B8
:10046000BDE81C407047032A40F2308010F0030CB6
:1004700000F0158011F8013BBCF1020F624498BFF7
:1004800011F801CB00F8013B38BF11F8013BA2F194
:10049000040298BF00F801CB38BF00F8013B11F00F
:1004A000030300F02580083AC0F0088051F8043BAF
:1004B000083A51F804CBA0E80810F5E7121D5CBF1C
:1004C00051F8043B40F8043BAFF30080D20724BF4F
:1004D00011F8013B11F801CB48BF11F8012B24BFE3
:1004E00000F8013B00F801CB48BF00F8012B704732
:1004F00010B5203AC0F00B80B1E81850203AA0E8BF
:100500001850B1E81850A0E81850BFF4F5AF5FEAF2
:10051000027C24BFB1E81850A0E8185044BF18C9A5
:1005200018C0BDE810405FEA827C24BF51F8043B4C
:1005300040F8043B08BF7047D20728BF31F8023BA0
:1005400048BF11F8012B28BF20F8023B48BF00F834
:10055000012B70474FF0000200B5134694469646B3
:10056000203922BFA0E80C50A0E80C50B1F12001C6
:10057000BFF4F7AF090728BFA0E80C5048BF0CC074
:100580005DF804EB890028BF40F8042B08BF7047D2
:1005900048BF20F8022B11F0804F18BF00F8012B44
:1005A0007047704770477047754600F02BF8AE46AD
:1005B00005006946534620F00700854618B020B56F
:1005C000FFF7C8FEBDE820404FF000064FF00007DF
:1005D0004FF000084FF0000B21F00701AC46ACE8EB
:1005E000C009ACE8C009ACE8C009ACE8C0098D4658
:1005F000704710B50446AFF300802046BDE81040B8
:10060000FFF733BE00487047705A00200149182098
:10061000ABBEFEE7260002007047000070B51F4C1D
:1006200000220221204600F00FFB012000F01EFAFC
:100630000122C0211A4800F007FB002201212046B8
:1006400000F002FB4FF4804500222946154800F0D7
:10065000FBFA154E01225103304600F0F5FA012253
:100660002946304600F0F0FA0022A910304600F08A
:10067000EBFA0022E910304600F0E6FA00222911D8
:10068000304600F0E1FA01220221204600F0DCFAB7
:10069000BDE87040042000F0E9B9000000180048EF
:1006A000000800480010004800040048FEE77047BA
:1006B0007047704738B50023009361F31F3291B241
:1006C00041F40042012817D10C4C4503130A8DF860
:1006D00000308DF8012000222946204600F0B4FAAF
:1006E00040F6FF7302226946054801F093FA0122A1
:1006F0002946204600F0A8FA38BD00000010004846
:10070000B0060020014800F0A0B8000078070020E3
:10071000014800F09AB80000D807002010B5026820
:100720000E4CD1B214230839A24203D20C4AB1FBB9
:10073000F3F104E00A4A2032B1FBF3F10831436CD3
:1007400023F003031A448264054A8032C26401F034
:100750001F0201219140016510BD00000804024004
:1007600000080240017901F07F01074A491E02EBAF
:1007700081024265044A4032826501F01F02012174
:100780009140C165704700000009024030B5D0E9D2
:1007900013546C60446D002C02D0D0E916546C6088
:1007A00090F8444004F01F050124AC40056C6C60D7
:1007B000046863608368102B04D003689960006844
:1007C000C26030BD03689A600068C16030BD704788
:1007D00072B6FEE770B5002490F8251000230122C0
:1007E000022906D004212430816142700370012463
:1007F00029E001680D6825F001050D6001680D68AC
:1008000025F00E050D60816C0D6825F480750D6076
:1008100090F84410154601F01F018A40016C4A60AF
:10082000D0E913215160416D31B10A6822F4807220
:100830000A60D0E91621516080F8255080F82430F4
:10084000816B01B18847204670BDF0B4016C0A6825
:1008500001680B6890F84440042604F01F0406FA6F
:1008600004F5154215D05D0713D50A68920603D426
:100870000A6822F004020A6090F8441001F01F0197
:1008800006FA01F5016C4D60016B002941D0F0BC06
:1008900008474FF0020C0CFA04F616424FF000071E
:1008A0004FF0010519D09E0717D50A68920605D4A6
:1008B0000A6822F00A020A6080F8255090F8441075
:1008C00001F01F010CFA01F6016C4E6080F82470F3
:1008D000C16A00291DD0F0BC08470826A640164270
:1008E00017D01A0715D50A6822F00E020A6090F890
:1008F0004410026C01F01F0105FA01F15160C5635B
:1009000080F8255080F82470416B002901D0F0BC9C
:100910000847F0BC7047000070B50446002C0DD0AD
:100920002B4A2068142190420AD22A4A0244B2FB80
:10093000F1F189006164284921640BE0012070BD58
:10094000234A52420244B2FBF1F18900616420491A
:1009500008392164022184F82510026847F6F071F5
:100960008A43D4E902131943D4E904352B431943CC
:10097000A3691943E3691943236A194311430160C9
:100980002046FFF7CBFEA0680025B0F5804F00D1D0
:1009900065602079A16C00F07F000860D4E9131035
:1009A00048606068401E032808D82046FFF7DAFE3A
:1009B000606D0560D4E91610486002E06565A565C4
:1009C000E5652434A561012060702570002070BDAC
:1009D00008040240F8FFFDBF0000024070B5044665
:1009E000002594F8240001280CD0012084F824006C
:1009F00094F825600020012E06D084F824000225FA
:100A0000284670BD022070BD022684F82560E06390
:100A10002068066826F0010606602046FFF7B6FE4D
:100A2000206B28B12068016841F00E01016009E0E7
:100A30002068016821F0040101602068016841F02C
:100A40000A010160A06C0168C90303D5016841F483
:100A500080710160606D18B1016841F480710160BE
:100A60002068016841F001010160C9E770B50446E2
:100A700000F0F0F80546601C02D0044840680444C9
:100A800000F0E8F8401BA042FAD370BD240000201B
:100A90002DE9F84F0022DFF890914FF0010803276D
:100AA0004FF00F0C09F1040AA9F1040BB4E008FAA5
:100AB00002F52B40002B6ED00C7904F00304012CBE
:100AC00001D0022C15D18668540007FA04FE26EAEC
:100AD0000E06D1F80CE00EFA04FE4EEA060EC0F83F
:100AE00008E04468AC430D79C5F3001595402543F3
:100AF00045600C79E443A40702D18C68012C08D02E
:100B0000C568540007FA04F6B5438E68A6402E4324
:100B1000C6600C7904F00304022C11D1D40800EB58
:100B20008406356A5407E40E0CFA04FE25EA0E0525
:100B3000D1F810E00EFA04FE4EEA050EC6F820E0E9
:100B40000568540007FA04F6B5430E7906F003066B
:100B5000A6402E4306604C6814F4403F5BD0334CF3
:100B6000256E45F001052566246E04F0010400940D
:100B70002F4C22F003052E19B56894074FEA147E16
:100B80000CFA0EF4A543B0F1904F05D0294CA042C9
:100B900004D1012417E03EE0002414E0264CA042DA
:100BA00001D102240FE0254CA04201D103240AE028
:100BB000234CA04201D1042405E0224CA04201D1E3
:100BC000052400E0062404FA0EF42C43B460D9F89E
:100BD00000409C434D68ED0200D51C43C9F800401D
:100BE000DAF800409C434D68AD0200D51C43CAF8BA
:100BF0000040DBF800409C434D68AD0300D51C432A
:100C0000CBF80040084D083D2C689C434E68F60325
:100C100000D51C432C60521C0B6833FA02F47FF49D
:100C200046AFBDE8F88F0000080401400010024004
:100C3000000001400004004800080048000C004883
:100C40000010004800140048002A01D0816170475C
:100C500081627047014880687047000024000020CE
:100C60000248816842681144816070472400002076
:100C700010B50024032000F09BF80F2000F008F8C6
:100C800008B1012401E000F047F8204610BD000043
:100C900030B587B005461B48816D41F02001816564
:100CA000806D00F02000009001A902A800F06CFB0C
:100CB00000F08EFB1449B0FBF1F1491E1448134AB1
:100CC000026040F2E732C260416000210161816050
:100CD00001F096F9044694B90D4801F0B9F90446BB
:100CE0006CB9372000F036F8102D07D200222946C3
:100CF000372000F03DF80748056000E0012407B008
:100D0000204630BD0010024040420F000014004059
:100D1000CC0800202400002008B50D48016E41F0E9
:100D200001010166016E01F001010091816D41F048
:100D300080518165806D00F08050009000220F216D
:100D4000901E00F015F8BDE8084000F0A9B80000BA
:100D500000100240002809DB00F01F020121914031
:100D60004009800000F1E020C0F800117047000049
:100D7000F0B40D460D4B1B68C3F30223C3F1070407
:100D8000042C00D90424191D072901D2002300E0F6
:100D9000DB1E012606FA04F1491E294099409E40B7
:100DA000761E16403143F0BC02F049BB0CED00E06A
:100DB00000F00701054A10684FF6FF03184040EAAB
:100DC0000120034908431060704700000CED00E06B
:100DD0000000FA052F49304B0A6832214A432F4957
:100DE00000280AD0B0F5007F2DD0086820F4C0603C
:100DF00040F480600860002070470868C0F341201C
:100E0000022805D051F8800F20F480700860F2E7C6
:100E1000D1F8800020F48070C1F88000086820F4C8
:100E2000C06040F400700860B2FBF3F0401C00E0CA
:100E3000401E4A69520501D50028F9D1486940058C
:100E4000D9D5032070470868C0F34120022805D097
:100E500051F8800F40F480700860CCE7D1F8800032
:100E600040F48070C1F88000086820F4C06040F44D
:100E700000700860B2FBF3F0401C00E0401E4A69BD
:100E8000520501D50028F9D148694005B3D50320A2
:100E9000704700003000002040420F00007000400A
:100EA0000248816841F480418160704700700040D1
:100EB0002DE9F84F0446002600272068BE4D0003A8
:100EC00066D54FF00008A86DC00009D4A86D40F0A9
:100ED0008050A865A86D00F0805000904FF0010888
:100EE000DFF8D8A2DAF8000040F48070CAF80000F9
:100EF000FFF7B0FE814607E0FFF7ACFEA0EB09006C
:100F0000022801D9032603E0DAF80000C005F3D572
:100F100026B13746B8F1010F36D039E0D5F8900048
:100F200000F4407080B1216D81420DD055F8900FD2
:100F300020F44070296841F480312960296821F447
:100F40008031296045F89009C00711D0FFF782FE73
:100F5000814641F2883A07E0FFF77CFEA0EB0900EA
:100F6000504501D9032603E0D5F890008007F3D55A
:100F70000EB13746CEE7D5F89000216D20F44070D1
:100F80000843C5F89000C5E7A86D20F08050A8651B
:100F90002078C00707D0D5F88800616820F00300EA
:100FA0000843C5F888002078800707D5D5F8880061
:100FB000A16820F00C000843C5F88800207840079D
:100FC00007D5D5F88800E16820F030000843C5F85F
:100FD00088002078000707D5D5F88800216920F01F
:100FE000C0000843C5F888002078C00607D5D5F8AA
:100FF0008800616920F440700843C5F888002078B3
:10100000800607D5D5F88800A16920F44060084320
:10101000C5F888002078400607D5D5F88800E16932
:1010200020F440500843C5F888002078000607D512
:10103000D5F88800216A20F440400843C5F88800AC
:101040002088C00507D5D5F88800616A20F44030B3
:101050000843C5F888002068800307D5D5F89C00B0
:10106000A16A20F003000843C5F89C002088800591
:1010700007D5D5F88800E16A20F440200843C5F878
:101080008800208840050FD5D5F88800216B20F412
:1010900040100843C5F88800206BB0F5801F03D1CD
:1010A000E86840F48010E860208800050FD5D5F886
:1010B0008800616B20F440000843C5F88800606B2D
:1010C000B0F5800F03D1E86840F48010E860208814
:1010D000C0040FD5D5F88800A16B20F040700843FC
:1010E000C5F88800A06BB0F1807F03D1E86840F4B8
:1010F0008010E86020884FF0006180040ED5D5F89C
:101100008800E26B20F040601043C5F88800E06B77
:10111000884203D1E86840F48010E86020884004E9
:101120000ED5D5F88800226C20F040601043C5F839
:101130008800206C884203D1E86840F48010E860A1
:10114000208800040FD5D5F88800616C20F040504D
:101150000843C5F88800606CB0F1805F03D1E8688F
:1011600040F48030E8602068C0030FD5D5F88800CF
:10117000A16C20F040400843C5F88800A06CB0F195
:10118000804F03D1E86840F48030E8602068400375
:101190000FD5D5F89C00E16C20F440100843C5F849
:1011A0009C00E06CB0F5001F03D1E86840F48010AB
:1011B000E8603846BDE8F88F00100240007000403B
:1011C0002DE9F04704460D460027002C17D0DFF824
:1011D000A091D9F8000000F00F00A84211D2D9F870
:1011E000000020F00F002843C9F80000D9F80000E3
:1011F00000F00F00A84204D00120BDE8F0870120D4
:10120000FBE720785B4EC00741F2883A4ED0606819
:10121000DFF86481032806D002281ED0306840051C
:1012200020D40120E9E73068800101D40120E4E7FF
:1012300001F04AFB404520D9B06810F0F00F04D00F
:101240002078800719D5A068B8B9B06820F0F00000
:1012500040F08000B06080270FE03068800301D448
:101260000120CAE700F0D8F8404506D9B06820F060
:10127000F00040F08000B0608027B068616820F026
:1012800003000843B060FFF7E5FC804607E0FFF786
:10129000E1FCA0EB0800504501D90320ADE7B068A0
:1012A000616800F00C00B0EB810FF0D1206881077D
:1012B00015D5400703D5B06840F4E060B0602078F1
:1012C000000705D5B06820F4605040F4E060B060DD
:1012D000B068A16820F0F0000843B06005E0802FFE
:1012E00003D1B06820F0F000B060D9F8000000F041
:1012F0000F00A84217D9D9F8000020F00F002843AA
:10130000C9F80000FFF7A6FC074606E0FFF7A2FCBD
:10131000C01B504501D903206FE7D9F8000000F049
:101320000F00A842F2D12078400705D5B068E168E7
:1013300020F4E0600843B0602078000706D5B0686C
:10134000216920F4605040EAC100B06000F064F808
:10135000B1680A4AC1F30311515C01F01F01C84092
:101360000749086007480068BDE8F047FFF790BCF0
:10137000002002400010024000B4C404B04C000839
:1013800030000020240000200F2202600B4A9368E6
:1013900003F003034360936803F0F00383609368F2
:1013A00003F4E063C360926802F46052D208026101
:1013B0000348006800F00F0008607047001002400A
:1013C0000020024001480068704700003000002003
:1013D00000B5FFF7F7FF05498968054AC1F3022107
:1013E000515C01F01F01C84000BD00000010024028
:1013F000C04C000800B5FFF7E5FF05498968054ABC
:10140000C1F3C221515C01F01F01C84000BD0000C2
:1014100000100240C04C000810B51A4A9068C0F392
:101420008101194801290BD091684410C1F3810151
:10143000022906D09168C1F38101032903D000205D
:1014400010BD204610BDD16801F00303D168C1F37F
:101450000311491C032B0DD0B0FBF1F0D168C1F38F
:1014600006214843D168C1F34161491C4900B0FBE2
:10147000F1F010BDB4FBF1F0D168C1F3062148438F
:10148000F0E70000001002400024F4002DE9F843CA
:101490000446002C0CD02078FE4DC00752D0A8681E
:1014A00000F00C00E96801F003010C2803D004E00F
:1014B0000120BDE8F883032916D0082814D06068FD
:1014C000B0F5803F17D0B0F5A02F19D0286820F4D0
:1014D00080302860286820F480202860606818B375
:1014E000FFF7B8FB06461BE0286880032AD5606832
:1014F00040BB0120DDE7286840F480302860EDE73C
:10150000286840F480202860286840F480302860F3
:10151000E4E7FFF79FFB801B642801D90320C8E79D
:1015200028688003F5D50DE0FFF794FB064606E03A
:10153000FFF790FB801B642801D90320B9E72868D6
:101540008003F5D4207880074ED5A86800F00C0001
:10155000E96801F003010C2801D102290BD004280D
:1015600009D0E06870B3286840F480702860FFF705
:1015700071FB06461BE02868400501D5E06868B1AC
:101580006868217C20F0FE4040EA01606860C24843
:101590000068FFF77DFB38B301208AE7012088E768
:1015A000FFF758FB801B022801D9032081E7286838
:1015B0004005F5D56868217C20F0FE4040EA0160D6
:1015C000686011E0286820F480702860FFF742FB13
:1015D000064606E0FFF73EFB801B022801D90320E8
:1015E00067E728684005F5D4207800072CD56069A6
:1015F000A8B1D5F8940040F00100C5F89400FFF7B9
:1016000029FB064606E0FFF725FB801B022801D9CF
:1016100003204EE7D5F894008007F4D514E0D5F800
:10162000940020F00100C5F89400FFF713FB064674
:1016300006E0FFF70FFB801B022801D9032038E7E3
:10164000D5F894008007F4D4207840076FD54FF088
:101650000008A86DC00009D4A86D40F08050A865AE
:10166000A86D00F0805000904FF001088B4E30685C
:10167000C00511D4306840F480703060FFF7EAFA9A
:10168000074606E0FFF7E6FAC01B022801D903204F
:101690000FE73068C005F5D5A068012813D00528EC
:1016A00018D055F8900F20F001002860286820F02D
:1016B000040045F89009A06841F2883608B3FFF7A6
:1016C000C9FA074618E0D5F8900040F00100C5F8C7
:1016D0009000F0E755F8900F40F00400286028686B
:1016E00040F0010045F89009E5E7FFF7B3FAC01BA9
:1016F000B04201D90320DCE6D5F890008007F4D58C
:101700000EE0FFF7A7FA074606E0FFF7A3FAC01BB3
:10171000B04201D90320CCE6D5F890008007F4D47C
:10172000B8F1010F03D1A86D20F08050A865207892
:1017300080062CD5A069A8B1D5F8980040F001002A
:10174000C5F89800FFF786FA064606E0FFF782FA2A
:10175000801B022801D90320ABE6D5F8980080074A
:10176000F4D514E0D5F8980020F00100C5F89800F1
:10177000FFF770FA064606E0FFF76CFA801B0228B6
:1017800001D9032095E6D5F898008007F4D4E069E4
:10179000F0B3A9684FF0FF37C1F3810103295ED090
:1017A000022807D0286820F080702860FFF752FADE
:1017B00004464CE0286820F080702860FFF74AFA61
:1017C000064606E0FFF746FA801B022801D90320EF
:1017D0006FE628688001F5D454F8201F6068228ADB
:1017E000401E41EA0010A16807EB5202090241EADB
:1017F00042510843217D07EB510140EA4160217BC2
:1018000040EAC160E968264A11400843E86000E008
:1018100062E0286840F080702860E86840F08070DE
:10182000E860FFF717FA044606E0FFF713FA001B1B
:10183000022801D903203CE628688001F5D54BE059
:10184000FFF708FA001B022801D9032031E62868B7
:101850008001F5D4E86813490840E8603CE00128BD
:1018600038D0E868226A00F00301914230D1616A01
:1018700000F0F002491EB2EB011F29D1A26A00F468
:10188000FE41B1EB022F23D100F0784194F82C20D7
:101890000AE0000000100240240000200070004018
:1018A0000C809F01FCFFEEFEB1EBC26F10D1228EC7
:1018B00000F4C00107EB5202B1EB425F08D194F88B
:1018C000341000F0C06007EB5101B0EB416F03D062
:1018D0000120EEE50120ECE50020EAE5704700007C
:1018E00038B50446206842688168C9434B060AD56A
:1018F000CB0708D1D3435B0605D4E16C01B0204689
:10190000BDE8304008478B0708D4D3431B0605D4F5
:10191000216D01B02046BDE8304008478B0603D555
:101920004B0601D5CB0551D4D3439B064ED44B0671
:101930000AD494F85D30032B49D0236E43F004039E
:101940002366C368836800938B0609D4236E43F033
:101950000103236683680093036823F04003036058
:10196000C80506D4206E40F0080020662068806814
:101970000090206E002829D02068416821F0E00105
:101980004160012084F85D00900701D4D00722D087
:101990002068416821F003014160114DA06D40B104
:1019A0008563A06DFEF716FF18B1206E40F0400071
:1019B0002066606D002809D08563606DFEF70AFF20
:1019C000002803D0206E40F04000206638BDC1687A
:1019D0008068009038BD2046FFF780FF38BD0000CA
:1019E0002529000870B50446002C09D0606A00253E
:1019F00040B125616561A56294F85D0040B10CE0DD
:101A0000012070BD6068B0F5827FF4D0E561F2E737
:101A100084F85C50204600F05BF8022084F85D00FA
:101A20002068016821F040010160E1684FF4E06244
:101A3000914201D9002001E04FF48050B1F5706F60
:101A400002D0914200D0A562A188228901F482715E
:101A500002F404421143227C02F002021143227D6F
:101A600002F001021143228B02F400721143227F23
:101A700002F03802114394F8202002F08002114352
:101A8000228D02F40052114322681160A1690422E0
:101A900002EA114194F8242000F4805002F0100270
:101AA000114394F8342002F008021143A28902F491
:101AB000706211430143206841602068C16921F4CC
:101AC0000061C1612566012084F85D00002070BDC1
:101AD000F0B587B00446142102A8FEF73BFD464B43
:101AE00021684648022600254FF0904299421CD1B9
:101AF000016E41F480510166016E01F48051019143
:101B0000C16C41F00101C164C06C00F001000190A2
:101B1000E02002900396049505950520069002A901
:101B20001046FEF7B5FF07B0F0BD354B9942FAD12C
:101B3000816D41F400418165816D01F400410191A5
:101B4000C16C41F00101C164C16C01F0010101915E
:101B5000C16C41F00401C164C06C00F0040001904C
:101B6000D81302900396049505950627069702A9B7
:101B70001046FEF78DFF4FF4E05002900396049557
:101B80000595069702A91F48FEF782FF1F4E1E48C3
:101B900030600F2070601020B060F56080273761E2
:101BA0007561B561F56135623046FEF7B5FE08B185
:101BB000FEF70EFE6665B4621348144E14306036AC
:101BC00030600E207060B560F56037617561B56199
:101BD000F56135623046FEF79FFE08B1FEF7F8FD6D
:101BE000A665B462002205213320FFF7C1F8332037
:101BF000FFF7B0F897E70000003001400010024006
:101C0000003C00400008004808000240780700201F
:101C1000704770472DE9F84F04468A4691461D46A5
:101C2000FFF718F8064694F85D00012802D002205C
:101C3000BDE8F88FBAF1000F21D05FEA09001ED08D
:101C400094F85C0001281CD04FF0010884F85C80F7
:101C5000032084F85D0000272766C4F838A0A4F8A4
:101C60003C90A4F83E902764A4F84470A4F8467011
:101C70002765E764A068B0F5004F04D00DE00120AF
:101C8000D6E70220D4E72068016821F04001016016
:101C90002068016841F480410160206801684906BC
:101CA00003D4016841F040010160E068B0F5E06FE5
:101CB0002FD9606810B1B9F1010F20D1A06B216854
:101CC0000088C860A06B801CA063E08F401EE08786
:101CD00015E020688168890709D5A16B0988C16072
:101CE000A06B801CA063E08F401EE08707E0FEF73A
:101CF000B1FF801BA84201D3681C04D11DB1E08F45
:101D00000028E6D149E084F85D8084F85C70032007
:101D10008EE7606810B1B9F1010F3BD1E08F012867
:101D20000AD9A06B21680088C860A06B801CA063E2
:101D3000E08F801EE0872DE0A06B2168007808739B
:101D4000A06B401CA063E08F401EE08722E020686B
:101D50008168890716D5E18F012909D9A16B098806
:101D6000C160A06B801CA063E08F801EE08711E043
:101D7000A16B09780173A06B401CA063E08F401E2B
:101D8000E08707E0FEF766FF801BA84201D3681CCE
:101D90000ED16DB1E08F0028D9D1324629462046B8
:101DA00000F088FE08B120202066A06830B109E06C
:101DB00084F85D8084F85C70032039E72068C1688E
:101DC0008068009084F85D8084F85C70206E08B1B3
:101DD00001202DE700202BE770B5044694F85D0044
:101DE0006568012808D0B5F5827F03D1A5680DB9D3
:101DF000042801D0022070BD51B34AB343B394F814
:101E00005C00012826D0012684F85C6094F85D000F
:101E1000042802D0052084F85D0000252566A16312
:101E2000A387E3872264A4F84430A4F84630E5642D
:101E300025652068416821F4C0414160E068B0F543
:101E4000E06F09D92068416821F48051416033E096
:101E5000012070BD022070BD2068416841F48051AE
:101E60004160606D4FF48061806988420CD194F8C4
:101E70003C00C00740D02068426842F48042426083
:101E8000E08F06EB5000E087A06D8069884213D197
:101E90002068416821F480514160B4F84600C007D1
:101EA00033D02068416841F400514160B4F84600E5
:101EB00006EB5000A4F8460094F85D0004282FD0EB
:101EC000A16D34480863A16D3348C862A16D3348E1
:101ED0004863A06D8563B4F846302168226C0C31EC
:101EE000A06DFEF77BFD10B3206E40F01000206661
:101EF00084F85C50012070BD2068426822F4804262
:101F00004260E08F4008E087BEE72068416821F426
:101F100000514160B4F846004008A4F84600CBE701
:101F2000A16D1F480863A16D1E48C862CEE72068F6
:101F3000416841F001014160606D0563606DC562FB
:101F4000606D4563606D8563E38F2268A16B0C3221
:101F5000606DFEF743FD38B1206E40F01000206642
:101F600084F85C50012070BD20680168490603D4E4
:101F7000016841F04001016084F85C5020684168CC
:101F800041F0200141602068416841F00201416058
:101F9000002070BD63290008DB29000837290008EC
:101FA000592900086D29000810B500680B498842BE
:101FB00013D10B49142201F58070FEF754FA094839
:101FC000C078032806D0064A1423A2F5806106488B
:101FD000FFF702FF05490120087010BD003C0040DA
:101FE000B0040020B00500201407002000000020ED
:101FF0007047704770477047704770477047704729
:1020000010B50446002C03D094F83D0010B107E051
:10201000012010BD002084F83C00204600F017F895
:10202000022084F83D00211D206800F0BDFE012043
:102030003D34E0726070A070E07020716071A0713A
:10204000E07120726072A0722070002010BD704795
:1020500090F83D10012901D001207047022180F83D
:102060003D100168CA6842F00102CA600068154963
:10207000884214D0B0F1804F11D0134988420ED05D
:10208000124988420BD01249884208D0114988422F
:1020900005D01149884202D0104988420CD181688C
:1020A0000F4A114006290BD0B1F5803F08D00168D6
:1020B00041F00101016003E0016841F001010160AC
:1020C00000207047002C0140000400400008004040
:1020D000000C00400034014000400140005001402D
:1020E0000700010070472DE9F04104462068C668EA
:1020F00005694FF00007A90714D5B10712D5F91EDD
:1021000001610120207720688069800703D0204684
:10211000FFF7E8FF05E0204600F0BAF8204600F09F
:10212000B8F82777680717D5700715D521686FF0BD
:1021300004000861022020772068806910F4407F45
:1021400003D02046FFF7CEFF05E0204600F0A0F8C0
:10215000204600F09EF82777280716D5300714D5BB
:1021600021686FF008000861042020772068C069AA
:10217000800703D02046FFF7B5FF05E0204600F0BA
:1021800087F8204600F085F82777E80617D5F0068F
:1021900015D521686FF010000861082020772068AD
:1021A000C06910F4407F03D02046FFF79BFF05E095
:1021B000204600F06DF8204600F06BF82777E8071E
:1021C00008D0F00706D021686FF0010008612046B2
:1021D00000F060F8280601D4A80408D5300606D51A
:1021E00021686FF4025008612046FFF703FFE805FD
:1021F00008D5300606D521686FF480700861204646
:10220000FFF7F7FE680608D5700606D521686FF05F
:1022100040000861204600F047F8A80608D5B0063F
:1022200006D521686FF0200008612046FFF7E3FE25
:10223000E80208D5F00206D521686FF48010086125
:102240002046FFF7DAFEA80208D5B00206D52168BD
:102250006FF4001008612046FFF7CEFE680208D533
:10226000700206D521686FF4800008612046FFF7F0
:10227000C5FE28020AD5300208D521686FF4000097
:1022800008612046BDE8F041FFF7B9BEBDE8F08126
:102290007047704700680349884201D1FEF7E0BCEF
:1022A0007047000000140040704790F88410012926
:1022B00018D0012180F884102421C0F8881001680A
:1022C0000A680B6823F001030B6022F00051002222
:1022D0004266036819602021C0F8881080F88420C5
:1022E000002070470220704770B5044694F88400BF
:1022F00001281DD0012084F884002420C4F888001F
:1023000020680568026822F0010202602068826885
:1023100022F060620A438260204600F0B3FD20682C
:1023200005602020C4F88800002084F8840070BD77
:10233000022070BD70B5044694F8840001281DD0B9
:10234000012084F884002420C4F8880020680568EF
:10235000026822F0010202602068826822F0604276
:102360000A438260204600F08DFD20680560202031
:10237000C4F88800002084F8840070BD022070BD7D
:1023800010B50446002C03D0D4F8880010B107E043
:10239000012010BD002084F88400204600F028F8B9
:1023A0002420C4F888002068016821F00101016040
:1023B000A06A10B1204600F089FD204600F06AFEB8
:1023C000012813D02068416821F4904141602068C1
:1023D000816821F02A0181602068016841F00101D3
:1023E00001602046BDE8104000F0D4BD012010BDC2
:1023F00010B59CB00446142117A8FEF7ABF8542181
:1024000002A8FEF7A7F816492068884226D10120C5
:1024100002900024039402A8FEF74AFD08B1FEF7DB
:10242000D7F91048016E41F480410166016E01F454
:1024300080410191C16C41F00401C164C06C00F0A5
:1024400004000190302017900220189019941A94DB
:1024500007201B9017A90448FEF71AFB1CB010BDFB
:10246000003801400010024000080048FEE700006C
:1024700008B51148816C41F004018164816C01F060
:1024800004010091816C41F001018164806C00F0D5
:1024900001000090002205210B20FEF769FC0B20B3
:1024A000FEF758FC002205210C20FEF761FCBDE878
:1024B00008400C20FEF74EBC0010024030B59DB025
:1024C000294D28681C90002201211CA801F026F843
:1024D000264C606168681B90002201211BA801F056
:1024E0001DF8A061A8681A90002201211AA801F025
:1024F00015F8E061142205F10C0115A8FDF7F8FFAD
:10250000002115A800F0F3FF2060142205F120013E
:1025100010A8FDF7EDFF002110A800F0E8FF6060B3
:10252000142205F134010BA8FDF7E2FF00210BA8EE
:1025300000F0DDFFA060142205F1480106A8FDF7B8
:10254000D7FF002106A800F0D2FFE060142205F1B9
:102550005C0101A8FDF7CCFF002101A800F0C7FF36
:1025600020611DB030BD0000184C000804000020A0
:102570002DE9F04F87B0142102A8FDF7EBFF8A4840
:10258000C16C41F01001C164C16C01F010010191F6
:10259000C16C41F00401C164C16C01F004010191FE
:1025A000C16C41F02001C164C16C01F020010191B6
:1025B000C16C41F04001C164C16C01F04001019166
:1025C000C16C41F00101C164C16C01F001010191D4
:1025D000C16C41F00201C164C16C01F002010191C2
:1025E000C16C41F00801C164C06C00F008000190AA
:1025F000DFF8B881002244F2FF714046FEF724FB69
:10260000DFF8ACA148F2C036002231465046FEF752
:102610001BFBDFF8A0B100224FF404715846FEF70F
:1026200013FB012240F202416348FEF70DFB012239
:102630004FF460415846FEF707FB01225103404624
:10264000FEF702FBDFF87491002249F63841484654
:10265000FEF7FAFA01224FF4C0414846FEF7F4FAB9
:10266000002211215448FEF7EFFA4FF4E8570022F8
:1026700039464FF09040FEF7E7FA42F2FF700290C1
:102680000125039500240494059402A94046FEF711
:10269000FFF944F20F0002900394049402A95046FB
:1026A000FEF7F6F9029603950494059402A95046A4
:1026B000FEF7EEF92C2002900394049402A95846E8
:1026C000FEF7E6F94EF2102002900395049405946B
:1026D00002A95846FEF7DCF940F212400290039539
:1026E0000494059402A93448FEF7D2F91820029008
:1026F0000394049402A94FF09040FEF7C9F94FF4F7
:10270000017002900394049402A94846FEF7C0F9B0
:10271000A8030290039504940226059602A9404658
:10272000FEF7B6F9E80302900394049402A9404628
:10273000FEF7AEF94FF4F840029003950494059625
:1027400002A94846FEF7A4F948F238000290039522
:102750000494059402A94846FEF79AF94FF6FF70D3
:1027600002900394049402A91548FEF791F902958A
:1027700003950494059602A90F48FEF789F902977C
:1027800003950494059402A94FF09040FEF780F958
:102790004FF4607002900394049402A90648FEF777
:1027A00077F907B0BDE8F08F001002400010004834
:1027B00000080048001400480018004800040048C1
:1027C000000C004810B51248104901604FF48271A6
:1027D0004160002181604FF4E062C2600222026128
:1027E0004161120282612022C26101624162816202
:1027F0000722C262016308214163FFF7F3F8002852
:1028000003D0BDE81040FDF7E3BF10BD003001402C
:10281000B006002010B510480E490160002141604B
:1028200081604FF4E062C2600222026101224261D3
:1028300081610162416281620722C2620163416378
:10284000FFF7D0F8002803D0BDE81040FDF7C0BF67
:1028500010BD0000003C00401407002010B51848CF
:10286000164901604FF4E131416000218160C1608F
:1028700001610C2242618161C16101624162816238
:10288000FFF77EFD08B1FDF7A3FF00210C48FFF71D
:1028900051FD08B1FDF79CFF00210948FFF724FD19
:1028A00008B1FDF795FF0648FFF7FFFC002803D0AD
:1028B000BDE81040FDF78CBF10BD0000003801409E
:1028C00038080020FEE7FEE71049C86800F0030260
:1028D000C868C0F30310401C032A0ED00C4AB2FB98
:1028E000F0F0CA68C2F306225043C968C1F34161DF
:1028F000491C4900B0FBF1F07047064AB2FBF0F00A
:10290000CA68C2F306225043EFE7000000100240FD
:102910000024F40000127A000148FEF7E1BF000035
:102920001407002010B5806A0021A0F84610C18766
:10293000FEF7D4FF10BD10B5806A01684A6822F026
:1029400003024A60016E41F010010166012180F826
:102950005D10FEF7C3FF10BD10B5806AFFF759F98F
:1029600010BD10B5806AFFF743FB10BD70B505467A
:10297000AC6AFEF76FF9024628680068800628D422
:102980002068416821F020014160A06818B96068A2
:10299000B0F5827F17D02068416821F001014160C5
:1029A0006421204600F047F808B12020206600206E
:1029B000A4F84600012084F85D00206E48B120464E
:1029C000FEF78CFF70BD2068416821F00301416073
:1029D000E6E72046FFF71CF970BD70B50546AC6A06
:1029E000FEF738F902462868006880061FD4206880
:1029F000416821F0200141606421204600F05AF82E
:102A000018B1206E40F0200020662068416821F057
:102A1000030141600020E087A4F84600012084F80B
:102A20005D00206E18B12046FEF758FF70BD2046AD
:102A3000FFF7BAFA70BD2DE9F843044688461546FB
:102A40004FF4004660684FF482797711484509D108
:102A5000A068B04201D0B84204D12068016821F0DA
:102A6000400101604346002280212046009500F08D
:102A7000C3F830B1206E40F0200020660320BDE88E
:102A8000F8836068484513D1A068B04201D0B842CD
:102A90000ED1434600224FF4C0612046009500F05D
:102AA0003BF828B1206E40F0200020660320E6E7C6
:102AB0000020E4E7F8B504460E46154633460022EA
:102AC0004FF4C0512046009500F026F828B1206E42
:102AD00040F0200020660320F8BD3346002280210C
:102AE0002046009500F088F828B1206E40F02000C4
:102AF00020660320F8BD334600224FF4C061204613
:102B0000009500F009F828B1206E40F02000206602
:102B10000320F8BD0020F8BD2DE9FC5F04460C9DA4
:102B20000E46174698464FF0000BCDF800B0FEF762
:102B300091F8401BA8EB0005FEF78CF88146D4F80D
:102B400000A00AF10C0A2B480068C0EBC00000EBA3
:102B50008000000D6843019017E0B6F5C06F05D105
:102B600027B99AF8000000909DF80000B8F1FF3FE7
:102B70000BD0FEF76FF8A0EB0900A8420DD265B1AB
:102B80000198A0B30198401E0190206880683040F1
:102B9000B842E2D10020BDE8FC9F2068416821F0E6
:102BA000E00141606068B0F5827F0BD1A068B0F5AC
:102BB000004F02D0B0F5806F04D12068016821F089
:102BC00040010160A06AB0F5005F09D1206801688A
:102BD00021F4005101602068016841F40051016056
:102BE000012084F85D0084F85CB00320D3E7FFE7A0
:102BF0000025CAE7300000202DE9F84304460F46BF
:102C000091461E46089DFEF725F8401B351AFEF733
:102C100021F8804627480068C0F3CB306843009015
:102C20000DE0701C0BD0FEF715F8A0EB0800A842D1
:102C300010D27DB10098B8B30098401E0090206873
:102C4000806837EA000032D000204845E9D10020F2
:102C5000BDE8F8832068416821F0E00141606068C8
:102C6000B0F5827F0BD1A068B0F5004F02D0B0F56F
:102C7000806F04D12068016821F040010160A06AE2
:102C8000B0F5005F09D12068016821F400510160AE
:102C90002068016841F40051016001205C346070DB
:102CA000002020700320D3E7FFE70025C7E70120BD
:102CB000CBE70000300000200A4C4FF400564FF4E0
:102CC000FA75012231462046FDF7BEFF284600F086
:102CD00001FC002231462046FDF7B6FF284600F0F1
:102CE000F9FBEEE700140048FEE7FEE71E2000F0C7
:102CF000F1FBFBE71E2000F0EDFBFBE710B55020D9
:102D000080F31188BFF34F8FBFF36F8F01F0B2FDD7
:102D100018B104494FF080500860002080F31188FA
:102D200010BD000004ED00E010B594B0382106A8F5
:102D3000FDF710FC142101A8FDF70CFC0020FEF7A4
:102D400049F8012006900004079002200D9003240A
:102D50000E940F905521109111901290139006A887
:102D6000FEF794FB08B1FDF733FD0F2001900294AC
:102D70000020039004900590042101A8FEF720FA9A
:102D8000002801D0FDF724FD14B010BD02480168F1
:102D900041F470010160704788ED00E00148FFF7E1
:102DA000A2B90000CC0800202DE9F04F02682C4E9B
:102DB000DFF8B090DFF8B0A0DFF8B0B02C4B2D4CAE
:102DC0004FF0804EB0420BD0704509D0484507D037
:102DD000504505D0584503D0984201D0A04203D1B8
:102DE00022F070054A682A43234FDFF890C0DFF8CD
:102DF0009080B04211D070450FD048450DD050455D
:102E00000BD0584509D0984207D0B84205D060454C
:102E100003D0404501D0A04203D122F44075CA68D6
:102E20002A434D6922F080022A438D68C5620D68ED
:102E30008562B04209D0984207D0B84205D06045BB
:102E400003D0404501D0A04201D109690163016866
:102E500041F004010160012141610260BDE8F08F91
:102E6000002C01400004004000080040000C00401D
:102E70000034014000500140004001400044014046
:102E80000048014030B5416E002917D002689168B2
:102E9000C1F342619268520F0B4B9C5CE50003F159
:102EA0000804A25CB5FBF2F2A0F86A205A5C615CEF
:102EB000D200B2FBF1F1A0F8681030BD01216830FA
:102EC0004180018030BD0000A04C000890F828101F
:102ED000090706D501684A68836B22F400421A4349
:102EE0004A6090F82810C90706D001684A68C36A8A
:102EF00022F400321A434A6090F82810890706D558
:102F000001684A68036B22F480321A434A6090F8E1
:102F10002810490706D501684A68436B22F48022CD
:102F20001A434A6090F82810C90606D501688A68D5
:102F3000C36B22F480521A438A6090F828108906E5
:102F400006D501688A68036C22F400521A438A602D
:102F500090F82810490611D501684A68436C22F49C
:102F600080121A434A60416CB1F5801F06D1016896
:102F70004A68836C22F4C0021A434A6090F8281011
:102F8000090606D501684A68C06C22F40022024393
:102F90004A6070472DE9F84304460025C4F8905074
:102FA000FDF758FE8046206800684FF020060007B5
:102FB0006FF07E4716D54346002231042046009725
:102FC00000F0F0F970B1206850E8001F21F0800196
:102FD00040E80012002AF6D1843466602570032090
:102FE000BDE8F88320680068400720D543460022EA
:102FF0004FF480012046009700F0D4F9B8B1206862
:1030000050E8001F21F4907140E80012002AF6D128
:103010002068083050E8001F21F0010140E800124C
:10302000002AF5D18434A66025700320D8E76C34DB
:10303000E66126622560656025760020D0E7000005
:1030400010B5016851E8002F22F4907241E8002386
:10305000002BF6D10E4B0168083151E8002F1A40C1
:1030600041E80024002CF6D1C16E012908D1016885
:1030700051E8002F22F0100241E80023002BF6D186
:103080002021C0F88C100021C166416710BD0000EE
:10309000FEFFFFEF2DE9F04104460025B54B206807
:1030A0002269A168E66911436269324311430268EB
:1030B000B14E32400A43026020684168E26821F460
:1030C000405111434160A0692168994201D0226AB0
:1030D00010438A68A94E324002438A602068C16A60
:1030E000626A21F00F011143C162A5492268A54817
:1030F0008A4214D1D0F8880010F0030007D00128CC
:1031000009D0022805D0032807D0102185E001212D
:1031100083E0022181E004217FE008217DE09A49DB
:103120008A4214D1D0F8880010F00C0007D004288F
:1031300009D0082805D00C2807D010216DE0002107
:103140006BE0022169E0042167E0082165E08F4916
:103150008A4214D1D0F8880010F0300007D010282F
:1031600009D0202805D0302807D0102155E00021B3
:1031700053E0022151E004214FE008214DE0844951
:103180008A4214D1D0F8880010F0C00007D040283F
:1031900009D0802805D0C02807D010213DE00021AB
:1031A0003BE0022139E0042137E0082135E079498C
:1031B0008A4217D1D0F8880010F440700AD0B0F5D8
:1031C000807F0BD0B0F5007F06D0B0F5407F07D0F0
:1031D000102122E0002120E002211EE004211CE059
:1031E00008211AE09A4217D1D0F8880010F4406004
:1031F0000AD0B0F5806F0BD0B0F5006F06D0B0F5F7
:10320000406F07D0102108E0002106E0022104E011
:10321000042102E0082100E010215F485F4E0027F2
:103220004FF4004C9A4239D1B9B1022905D0042992
:1032300016D0082917D00020012560B3616A36F83E
:103240001120B0FBF2F1666806EB46038B4202D810
:10325000B1EB063F09D9012582E0FEF7B9F8ECE7AA
:10326000FEF7DAF8E9E76046E7E700231946FDF7DD
:1032700083F8090241EA10610202700810187941CE
:1032800032460023FDF778F8454AA0F54071914297
:1032900002D82168C86063E0012561E0E2694FF669
:1032A000EF78624530D1092911D2DFE801F0050835
:1032B00012100B1010100E00FEF78AF809E0FEF74E
:1032C00099F806E0FEF7A8F803E0604601E0002068
:1032D0000125E8B3616A36F81110B0FBF1F0410046
:1032E000606801EB5001B1FBF0F0A0F11001414525
:1032F00008D84FF6F0710140C0F342000143206846
:10330000C1602DE001252BE0092911D2DFE801F091
:10331000050812100B1010100E00FEF759F809E006
:10332000FEF768F806E0FEF777F803E0604601E094
:103330000020012560B1616A36F81110B0FBF1F18F
:10334000606801EB5001B1FBF0F0A0F1100100E06A
:1033500006E0414503D8216880B2C86000E001253D
:103360000120683460802080E76027612846BDE83E
:10337000F081000000800040F369FFCFFFF4FF11EF
:103380000038014000100240004400400048004066
:10339000004C0040005000400024F400884C00081D
:1033A000FFFC0F002DE9F0470446089E0D46174626
:1033B00098464FF0000935E0701C33D0FDF74AFC09
:1033C000A0EB0800B04219D8C6B1206801684907CF
:1033D00028D5802D26D0402D24D0C169C9430907A6
:1033E0000ED42068082505622046FFF729FEC4F8A0
:1033F000905084F884900120BDE8F0870320FBE71B
:10340000C069C04300050DD421684FF40060086214
:103410002046FFF715FE2020C4F8900084F8849021
:103420000320E9E72068C06935EA000004D00020E5
:10343000B842C1D00020DFE70120F9E7FEE7090725
:10344000090E002804DB00F1E02080F8001470472A
:1034500000F00F0000F1E02080F8141D704700001C
:10346000FDF706FCFFF760FCFFF782F8FFF700F8B6
:10347000FFF7D0F9FFF7A6F9FFF7F0F90520FDF700
:10348000F5FA0F4A1423A2F580610E48FEF7A4FC5A
:103490004FF4FA60FDF7EAFA0520FDF7E7FA052098
:1034A000FDF7E4FA012140F285320846FDF702F902
:1034B000FDF7B4F8FFF702F800F014F8FEE700009B
:1034C000B00400201407002001460020842900D009
:1034D000C81C704710B5002800D1012000F0DAFDAB
:1034E000002010BD10B500F043FE002010BD3EB519
:1034F00004460D46B4F90800FFF7E6FF02A9CDE93E
:103500000001208A2B4682B2D4E9001001F06EF946
:10351000012801D000203EBD02983EBD08B51346EB
:1035200000680090012905D00022012102A001F0CD
:10353000F9FA08BD0122F8E7000000002DE9F0418A
:1035400004460F46174EF5683068001D00F082FCF7
:1035500038B9306890F82C100120884031698143D7
:103560003161601C07D137B13168BDE8F041091DF8
:103570000D4800F0A8BC2C4430684460AC4206D230
:103580003168B06B091DBDE8F04100F084BC3168C2
:10359000706B091D00F07FFCB06A844200D2B462F7
:1035A000BDE8F08134000020340A002070B50446E4
:1035B00000F096FC1C4DA868401CA860286810B15B
:1035C000686938B10CE02C60A868012808D100F0C7
:1035D00097F905E02868E16AC06A884200D82C6043
:1035E000686A401C6862E06A01212A6981401143CF
:1035F00029610E4900EB800001EB8000211D00F0E5
:1036000062FC00F08DFC686900280CD02868E16A33
:10361000C06A884207D206494FF080500860BFF365
:103620004F8FBFF36F8F70BD34000020580900200A
:1036300004ED00E010B500F053FC0E4C2068A0B97A
:103640000D4800F01AFC0C48143000F016FC0A4833
:10365000E0601430206100220C210A2000F072FE8C
:10366000206010B105A100F0DFFCBDE8104000F0C3
:1036700057BC000070000020480A0020546D7251B1
:103680000000000070B50C4D0C4E11E000F028FC5D
:10369000F068C468201D00F0DDFBA868401EA8602B
:1036A0006868401E686000F03BFC204600F053F85C
:1036B00068680028EAD170BD34000020200A00208C
:1036C00030B40B46026C002A0CD0C1681144C160B2
:1036D0008468A14201D30168C160C16830BC18464A
:1036E000FCF7C1BE30BC70472DE9F04104461746D7
:1036F0000026A56B226C002A10D0C7B1E068FCF749
:10370000B2FEE168206C091AE1602268914202D29F
:10371000A168081AE060022F16D017E02068A8B947
:10372000A06801F00FF906460020A0600EE0606876
:10373000FCF799FE216C606808446060A1688842CB
:1037400004D32068606001E005B16D1E6D1CA563A7
:103750003046BDE8F08110B50446206B00F0F6FB62
:103760002046BDE8104000F0F1BB00000749CA68E0
:103770001168002904D00021016019B100207047B0
:103780000121F9E7D0680068704700007000002050
:103790004FF4A0410F48420706D0C01D20F007009B
:1037A0000C49411AC1F5A0410B4A10600023536037
:1037B0000144083921F00701183A11604B600B6091
:1037C0000B1A436001604068906050604FF0004009
:1037D00050617047700A00209C000020074E4FF097
:1037E0008054074DFFF74EFF30680128FAD92C604E
:1037F000BFF34F8FBFF36F8FF4E70000580900202D
:1038000004ED00E003460098002905D00260C36380
:103810000164012100F0B6BD0060F8E72DE9F04732
:103820008246DDE908580A9C9946521E206B00EB3F
:10383000820020F00706700707D0502080F311881F
:10384000BFF34F8FBFF36F8FFEE7002761B10020FA
:1038500023180A5C83F834200A5C12B1401C10283B
:10386000F6D384F8437001E084F83470072D00D358
:103870000625E5626564A764201D00F009FB04F1DC
:10388000180000F005FB2461C5F10700A061646227
:10389000E76484F850704A465146304600F0C8FA52
:1038A0002060B8F1000F01D0C8F80040BDE8F087F3
:1038B0002DE9F0470646DDE908940D46174698467F
:1038C000002D15D0002C11D0FFF7B4FE2660A561A5
:1038D000C4F81C80C4F82090201D00F0D9FA002FF5
:1038E00004D014F8240F40F004002070BDE8F087E5
:1038F000502080F31188BFF34F8FBFF36F8FFEE727
:1039000070B50024124D04EB840005EB800000F03C
:10391000B4FA641C072CF6D30D488C3000F0ADFAD5
:103920000B48A03000F0A9FA0948B43000F0A5FA1D
:103930000748C83000F0A1FA0548DC3000F09DFAD5
:10394000034904488C3141631431816370BD000028
:10395000580900203400002030B5134900E011461A
:103960000A688242FBD34B685C18844203D14068EA
:103970001844486008460D6844682318AB420DD1CE
:10398000094B183B1B689A4206D052682244426099
:103990000A681268026002E0036000E0026081428F
:1039A00000D0086030BD00009C00002070B50024ED
:1039B000416000610C4D91420AD8D11A826991424E
:1039C00001D301240EE0011D286900F064FA09E02A
:1039D0009A4203D2994201D3012403E0011DE86811
:1039E00000F059FA204670BD7000002010B5044662
:1039F00000F076FAA06B20B1002400F091FA204686
:103A000010BD0124F9E710B5044600F069FAA06B77
:103A1000E16B884201D1012400E0002400F080FA2B
:103A2000204610BDF8B505460E461748C068C06868
:103A3000C468201D00F00EFA94F82400410718D540
:103A4000A0692B46411932462046FFF7AFFFA0B1CF
:103A500000200346014600902A46204601F0A2F8C5
:103A600058B9502080F31188BFF34F8FBFF36F8F89
:103A7000FEE720F0010084F82400216A01B020460E
:103A8000BDE8F040084700007000002030B585B068
:103A9000394D67E00298002864DB049C606910B12E
:103AA000201D00F0D7F901A800F0B0F802460298F6
:103AB0000A2857D2DFE800F00505052D334A050531
:103AC0002D3394F8240040F0010084F8240003987A
:103AD000A169034601442046FFF768FF68B3216AE5
:103AE0002046884794F8240040073BD500200090EA
:103AF0000398A169002342181946204601F052F8A4
:103B0000D8B9502080F31188BFF34F8FBFF36F8F68
:103B1000FEE714F8240F20F00100207022E094F852
:103B2000240040F0010084F824000398A06128B12B
:103B3000811813462046FFF739FF13E0502080F329
:103B40001188BFF34F8FBFF36F8FFEE794F8240007
:103B5000810703D4204600F0F9F903E020F00100CA
:103B600084F82400002202A9286800F063FD0028E0
:103B700090D105B030BD000070000020F8B50646B9
:103B80000D4600F02DFB684600F040F80446009812
:103B900010B100F061FFF8BD45B9A64206D800F0AB
:103BA0005BFF21463046FFF73DFFF8BD0C481DB1D5
:103BB0000169096891B10025311B2A46006800F0AF
:103BC00045FA00F049FF0028EFD106494FF0805038
:103BD0000860BFF34F8FBFF36F8FF8BD0125EBE790
:103BE0007000002004ED00E00748416B09680029DF
:103BF00005D0416BC968C9684968816270474FF058
:103C0000FF318162704700003400002070B5054626
:103C100000F02AFE0446074EB068844204D200F049
:103C20000BF80120286001E000202860B4602046E5
:103C300070BD000070000020F8B51A4E20E0C0688A
:103C40000568C468201D00F005F9216A20468847F0
:103C500094F82400400713D5A0692844A84206D947
:103C600060602461211DF06800F015F908E0002073
:103C70000346014600902A46204600F093FF40B1DB
:103C8000F06801680029DAD1F0683169F1603061CB
:103C9000F8BD502080F31188BFF34F8FBFF36F8FB3
:103CA000FEE700007000002009484068401C07D073
:103CB000502080F31188BFF34F8FBFF36F8FFEE763
:103CC000502080F31188BFF34F8FBFF36F8FFEE753
:103CD000A400002008B56846FFF748FD0099FFF7EB
:103CE0004DFFFFF7D3FEF6E72DE9F041044600F063
:103CF000F7F894F9455004F1240609E0606A48B1E8
:103D0000304600F06BFE08B100F0F4F96D1E6DB2A4
:103D1000002DF3DC4FF0FF3684F8456000F000F929
:103D200000F0DEF894F9445004F1100709E020692E
:103D300048B1384600F052FE08B100F0DBF96D1EC4
:103D40006DB2002DF3DC84F84460BDE8F04100F072
:103D5000E7B800002DE9F0410546002600F040FAE2
:103D6000324F386808B9FFF713FD786905424DD125
:103D70008DB1083568070ED005F00700C0F10800C6
:103D80000544680707D0502080F31188BFF34F8F98
:103D9000BFF36F8FFEE7CDB37868854236D82349ED
:103DA00018310846046801E0214604466068A842CC
:103DB00002D220680028F7D13868844226D00E68E5
:103DC0000836206808606068411B10290ED9601908
:103DD000420707D0502080F31188BFF34F8FBFF305
:103DE0006F8FFEE741606560FFF7B6FD6168786838
:103DF000401A7860BA68904200D2B860786901438E
:103E0000616000202060F868401CF86000F024FE2B
:103E1000700707D0502080F31188BFF34F8FBFF396
:103E20006F8FFEE73046BDE8F0810000840000207F
:103E300024384FF08073036221F00101C16104490D
:103E4000816142606FF0020140F820197047000064
:103E5000A93C00080169D0E901329A60D0E9012348
:103E60005A604A68824201D182684A600022026137
:103E70000868401E08600868704700F1080141604A
:103E80004FF0FF328260C160016100210160704724
:103E900000210161704730B50C68621C02D000F14E
:103EA000080202E0026904E01A4653681D68A54250
:103EB000FAD953684B6099608A6051600861016863
:103EC000491C016030BD42684A6093688B6093680A
:103ED0005960916008610168491C016070470000E9
:103EE000502080F31188BFF34F8FBFF36F8F0A49C3
:103EF0004868401C486001280CD10848006810F050
:103F0000FF0F07D0502080F31188BFF34F8FBFF30E
:103F10006F8FFEE770470000A400002004ED00E072
:103F200009494868002806D0401E4860002801D191
:103F300080F311887047502080F31188BFF34F8FB2
:103F4000BFF36F8FFEE70000A400002070B50028CB
:103F50002AD008380446154D60686969084207D1BF
:103F6000502080F31188BFF34F8FBFF36F8FFEE7B0
:103F700022683AB1502080F31188BFF34F8FBFF30E
:103F80006F8FFEE78843606000F02AF96068696817
:103F9000084468602046FFF7DFFC2869401C286160
:103FA000BDE8704000F058BD70BD000084000020E6
:103FB0004FF0E02000210161816105494FF47A72E0
:103FC0000968B1FBF2F1491E4161072101617047A7
:103FD0003000002010B5FCF7ABF9114910280ED3C2
:103FE00000F1E02090F8F0030A78904207D25020C8
:103FF00080F31188BFF34F8FBFF36F8FFEE709483F
:104000000068896800F4E060884207D9502080F396
:104010001188BFF34F8FBFF36F8FFEE710BD000015
:10402000A40000200CED00E010B50022064B53F870
:1040300032401CB1521C082AF9D310BD43F832108B
:1040400003EBC201486010BD1809002070B504469A
:104050000D461646FFF744FF94F944304FF0000038
:104060005B1C01D184F8440094F94510491C01D12E
:1040700084F84500FFF754FFA06B28B93246294663
:1040800004F1240000F056F82046BDE87040FFF728
:104090002BBE000010B502460020002A12D00F48A7
:1040A000006B38B1502080F31188BFF34F8FBFF3FE
:1040B0006F8FFEE700F094F800211046FFF73EFAFC
:1040C00000F0CAFC002807D105494FF08050086075
:1040D000BFF34F8FBFF36F8F10BD0000340000207F
:1040E00004ED00E002490A6A0260C9684160704755
:1040F0003400002001490120C861704734000020CD
:1041000010B50C4600280AD0094909681831FFF794
:10411000C2FE2046BDE810400121FFF70FBA502033
:1041200080F31188BFF34F8FBFF36F8FFEE700005E
:104130003400002070B50D46144600280DD00B4900
:1041400009681831FFF7BFFE0CB14FF0FF3521466B
:104150002846BDE87040FFF7F1B9502080F3118880
:10416000BFF34F8FBFF36F8FFEE7000034000020D6
:104170001CB517480024CDE900402346802215A134
:10418000164800F033FB012801D100F0E5FC0128BE
:1041900009D0401C1AD1502080F31188BFF34F8FF3
:1041A000BFF36F8FFEE7502080F31188BFF34F8F6E
:1041B000BFF36F8F06484FF0FF312C388162012129
:1041C0004161C460BDE81C4000F042B81CBD000065
:1041D0006000002049444C4500000000DD37000825
:1041E0000248016B491C0163704700003400002045
:1041F000154A106B002802D00120D06170470020C2
:10420000D0611069B0FA80F0C0F11F000F4900EBD7
:10421000800051F8203073B101EB8000416849689B
:10422000416000F10803994201D14968416040684A
:10423000C06810607047502080F31188BFF34F8F23
:10424000BFF36F8FFEE70000340000205809002004
:104250001CB537480168374A914207D1502080F396
:104260001188BFF34F8FBFF36F8FFEE700683149AE
:10427000491E884207D1502080F31188BFF34F8F29
:10428000BFF36F8FFEE72C4908780190FF2008707C
:10429000087800909DF800009DF8002000F0F000E4
:1042A000904207D0502080F31188BFF34F8FBFF3A7
:1042B0006F8FFEE79DF80000204C00F0500020704A
:1042C0000720A06006E0A068401EA0609DF80000E6
:1042D000400000909DF800000006F4D4A068032878
:1042E00007D0502080F31188BFF34F8FBFF36F8F3B
:1042F000FEE74FF44070A060019808700C48203031
:10430000016841F470010160016841F07041016091
:10431000FFF74EFE00206060FBF7D2FF08480168FF
:1043200041F040410160FBF7B7FF00201CBD0000D9
:1043300000ED00E071C20F4100E400E0A4000020A5
:1043400034EF00E0F8B505460E461746002D10D0B4
:1043500005FB06F04830FFF7FDFC04463CB1224661
:1043600048323B46314628460094FFF74BFA204638
:10437000F8BD502080F31188BFF34F8FBFF36F8FCC
:10438000FEE7000070B504460D46002C25D0FFF76F
:10439000A7FDD4E90F20216802FB0011A1600021D4
:1043A000A16321686160E06B2268216C401E00FB04
:1043B0000121E1604FF0FF3084F8440084F84500AB
:1043C00004F110008DB1FFF758FD04F12400FFF750
:1043D00054FDFFF7A5FD012070BD502080F311882A
:1043E000BFF34F8FBFF36F8FFEE721690029F0D035
:1043F00000F0F4FA0028ECD004494FF08050086037
:10440000BFF34F8FBFF36F8FE3E7000004ED00E0D1
:104410002DE9FF4782B004468A461E460025002C3F
:1044200003D0BAF1000F08D011E0502080F31188BA
:10443000BFF34F8FBFF36F8FFEE7206C38B1502072
:1044400080F31188BFF34F8FBFF36F8FFEE7022E0B
:104450000AD1E06B012807D0502080F31188BFF308
:104460004F8FBFF36F8FFEE700F0F0F948B9049863
:1044700038B1502080F31188BFF34F8FBFF36F8F97
:10448000FEE74FF000094FF08057DFF8E480FFF7B8
:1044900027FDA06BE16B884205D3022E03D0049860
:1044A00008B325B327E0324651462046FFF71CF9F2
:1044B000616A59B104F1240000F090FA68B1C8F8BB
:1044C0000070BFF34F8FBFF36F8F06E028B1C8F8BD
:1044D0000070BFF34F8FBFF36F8FFFF721FD0120F7
:1044E00006B0BDE8F087FFF71BFD0020F8E768463F
:1044F000FFF7F8FD0125FFF713FDFFF771FEFFF74A
:10450000EFFC94F94400401C01D184F8449094F9E4
:104510004500401C01D184F84590FFF701FD04A936
:10452000684600F025F930B12046FFF7DDFB00F0CA
:1045300093FA0020D4E72046FFF765FA90B104F122
:1045400010000499FFF7DCFD2046FFF7CDFB00F0DB
:1045500083FA00289BD1C8F80070BFF34F8FBFF3D8
:104560006F8F94E72046FFF7BFFB00F075FA8EE7E8
:1045700004ED00E02DE9F0470446894690461F46C9
:10458000002C03D0B9F1000F08D011E0502080F3C7
:104590001188BFF34F8FBFF36F8FFEE7206C38B1E8
:1045A000502080F31188BFF34F8FBFF36F8FFEE76A
:1045B000022F0AD1E06B012807D0502080F3118828
:1045C000BFF34F8FBFF36F8FFEE7FFF703FD502060
:1045D000EFF3118680F31188BFF34F8FBFF36F8F16
:1045E000A06BE16B884206D3022F04D0002086F333
:1045F0001188BDE8F08794F94550A06B3A464946CA
:104600002046FFF771F8681C04D06D1C84F84550F3
:104610000120ECE7606A0028FAD004F1240000F0E1
:10462000DDF90028F4D0B8F1000FF1D00120C8F86E
:104630000000EDE72DE9F74783B004468A460026DF
:10464000002C03D0BAF1000F08D011E0502080F305
:104650001188BFF34F8FBFF36F8FFEE7206C38B127
:10466000502080F31188BFF34F8FBFF36F8FFEE7A9
:1046700000F0ECF848B9059838B1502080F3118863
:10468000BFF34F8FBFF36F8FFEE700274FF08058C7
:10469000DFF8D890FFF724FCA56BC5B15146204642
:1046A000FFF70EF86D1EA563206950B104F11000EC
:1046B00000F094F928B1C9F80080BFF34F8FBFF321
:1046C0006F8FFFF72DFC012006B0BDE8F08705983D
:1046D00008B126B107E0FFF723FC0020F4E701A8AA
:1046E000FFF700FD0126FFF71BFCFFF779FDFFF741
:1046F000F7FB94F94400401C01D184F8447094F90C
:104700004500401C01D184F84570FFF709FC05A95C
:1047100001A800F02DF858B12046FFF7E5FA00F0A7
:104720009BF92046FFF762F90028B3D00020CBE7C1
:104730002046FFF75BF990B104F124000599FFF7DB
:10474000DFFC2046FFF7D0FA00F086F90028A1D15F
:10475000C9F80080BFF34F8FBFF36F8F9AE72046F1
:10476000FFF7C2FA00F078F994E7000004ED00E0EA
:104770002DE9F04105460C46002D11D0C4B1FFF7DC
:10478000AFFB194EF0686B68C11A2268571C17D02E
:104790002F68366AB74215D0834213D801241DE032
:1047A000502080F31188BFF34F8FBFF36F8FFEE768
:1047B000502080F31188BFF34F8FBFF36F8FFEE758
:1047C00000240BE08A4206D9501A20602846FFF7E1
:1047D00089FC002402E0002020600124FFF7A0FBF8
:1047E0002046BDE8F0810000340000202DE9FF5F85
:1047F0008146DDE90E788A4616469B46B000FFF7F3
:10480000A9FA054628000AD05420FFF7A3FA044667
:104810000CB1256304E02846FFF798FB00E0002474
:104820008CB10020CDE90240CDE900785B463246EC
:1048300051464846FEF7F2FF2046FEF7B7FE01203C
:1048400004B0BDE8F09F4FF0FF30F9E7054841693B
:10485000002903D0006B18B1002070470120704779
:1048600002207047340000200148C06870470000F3
:10487000340000202DE9F0410026304F386B00282D
:1048800005D0B869401CB8613046BDE8F081FD68CC
:104890006D1CFD609DB9786B006838B1502080F3C5
:1048A0001188BFF34F8FBFF36F8FFEE7786BB96B43
:1048B0007963B863386A401C3862FFF795F9B86AC3
:1048C000DFF87C8085420DD3786B006838B1786B57
:1048D000C068C4686068854212D2B86202E04FF0D6
:1048E000FF30B8623868C06A00EB800058F82000DA
:1048F000012800D90126F8690028C5D00126C3E7A0
:10490000201DFFF7A7FAA06A18B104F11800FFF7FD
:10491000A1FAE06A01213A6981401143396100EB53
:10492000800008EB8000211DFFF7CDFAE06A3968AE
:10493000C96A8842C8D30126C6E7000034000020B7
:104940005809002070B504460020002C41D0214DAC
:1049500029688C4207D0502080F31188BFF34F8F15
:10496000BFF36F8FFEE7A16C71B1491EA164636C48
:10497000E26A9A422DD000292BD1201DFFF76AFA56
:10498000154A012140B112E0502080F31188BFF395
:104990004F8FBFF36F8FFEE7E06A00EB800352F8A2
:1049A000233023B901FA00F3286998432861606C29
:1049B000E062C0F10700A061E06A2B698140194301
:1049C000296100EB800002EB8000211DFFF77BFADC
:1049D000012070BD34000020580900202DE9F0416D
:1049E000C068C468002C15D004F118000746FFF712
:1049F00031FA174D2A6B0126A2B139461548FFF747
:104A000062FAE06A2968C96A88421ED90120EE610B
:104A1000BDE8F081502080F31188BFF34F8FBFF3C2
:104A20006F8FFEE7201DFFF715FAE06A2A6906FA84
:104A300000F111432961074900EB8000B43901EB13
:104A40008000211DFFF73FFADBE70020E0E70000D0
:104A5000340000200C0A00202DE9F041002400273A
:104A60002D4D286B002807D0FFF73AFA286B401E1F
:104A70002863286B40B14AE0502080F31188BFF3CF
:104A80004F8FBFF36F8FFEE7A868E8B3DFF88C8025
:104A900001261EE0D8F80C00C46804F11800FFF7E6
:104AA000D9F9201DFFF7D6F9E06A2A6906FA00F164
:104AB00011432961194900EB8000B43901EB8000F2
:104AC000211DFFF700FAE06A2968C96A884200D30D
:104AD000EE61D8F800000028DCD10CB1FFF784F8B3
:104AE000AC6944B1FFF7C6FE00B1EE61641E002C54
:104AF000F8D10020A861E86930B1012708493807DA
:104B00000860BFF34F8F00E001E0BFF36F8FFFF746
:104B100007FA3846BDE8F081340000200C0A002076
:104B200004ED00E02DE9FC4706460A9D0F4690463D
:104B300099462820FFF70EF9044654B1002084F866
:104B40002400CDE900544B46424639463046FEF734
:104B5000AFFE2046BDE8FC871CB50024FEF76AFDC9
:104B60000C48006858B10B480221001DCDE9001027
:104B7000CA01002308A10A48FFF738FE04460CB119
:104B800020461CBD502080F31188BFF34F8FBFF328
:104B90006F8FFEE770000020546D72205376630023
:104BA000D53C0008FEB50646089F9C460020002E16
:104BB00013D0154D2C68002C0ED000910192029656
:104BC000062919DAFFF742FE02280ED000231A4602
:104BD00069462868FFF71CFCFEBD502080F3118851
:104BE000BFF34F8FBFF36F8FFEE700233A4669464E
:104BF0002868FFF70DFCFEBD00236246694620468B
:104C0000FFF7B8FCFEBD0000700000204FF04070C0
:104C1000E1EE100A70470000AF060008B106000878
:104C2000B3060008F84C0008B92C0008000000008A
:104C30000000000080000000C84C0008E92C0008BB
:104C4000000000000000000000010000D44C00083B
:104C5000EB2C000800000000000000000001000034
:104C6000E04C0008ED2C0008FDFF000000000000F3
:104C700000010000EC4C0008F52C000800000000CA
:104C80000000000000010000010002000400060016
:104C900008000A000C001000200040008000000105
:104CA00001010103070100000804020408010101D9
:104CB00000000000000000000102030406070809CC
:104CC00000000000010203046D795461736B3032FF
:104CD000000000006D795461736B303300000000F8
:104CE0006D795461736B3034000000006D7954614C
:104CF000736B30350000000064656661756C745438
:104D000061736B00244D000800000020B00000001B
:104D100014020008D44D0008B0000020206C0000F0
:104D20003002000800000000000000000000000049
:104D30000000000000000000000000000000000073
:104D40000000000000000000100000000100000052
:104D5000000000000024F40000000000000000003B
:104D60000000000000000000000000000000000043
:104D70000000000000000000000000000000000033
:104D80000000000000000000000000000000000023
:104D90000000000000000000000000000000000013
:104DA0000000000000000000000000000000000003
:104DB00000000000000000000000000000000000F3
:104DC000000000000000000000000000AAAAAAAA3B
:044DD00000000000DF
:04000005080001D915
:00000001FF
