:020000040800F2
:10000000087A0020390300085D3600082D31000809
:100010005936000859090008854C00080000000006
:10002000000000000000000000000000790200084D
:10003000190C000800000000D5020008B9430008B0
:100040005303000853030008530300085303000838
:100050005303000853030008530300085303000828
:10006000530300085303000853030008E50A00087F
:10007000F50A00085303000853030008530300085F
:1000800053030008530300085303000853030008F8
:1000900053030008530300085303000853030008E8
:1000A00053030008530300085303000853030008D8
:1000B00053030008530300085303000853030008C8
:1000C00053030008530300085303000853030008B8
:1000D00053030008530300085303000853030008A8
:1000E0005303000853030008530300085303000898
:1000F0005303000853030008530300085303000888
:10010000530300085303000853030008A1370008F5
:100110005303000853030008530300086944000810
:100120005303000853030008530300085303000857
:100130005303000853030008530300085303000847
:100140005303000853030008530300085303000837
:100150005303000853030008530300085303000827
:100160005303000853030008530300085303000817
:100170005303000853030008530300085303000807
:1001800053030008530300085303000853030008F7
:100190005303000800000000530300085303000845
:1001A00053030008530300085303000853030008D7
:1001B00053030008530300085303000853030008C7
:1001C00053030008530300085303000853030008B7
:1001D000530300085303000800F002F800F03CF855
:1001E0000AA090E8000C82448344AAF10107DA4592
:1001F00001D100F031F8AFF2090EBAE80F0013F0A8
:10020000010F18BFFB1A43F00103184728850000AF
:1002100048850000103A24BF78C878C1FAD8520740
:1002200024BF30C830C144BF04680C607047000070
:100230000023002400250026103A28BF78C1FBD8EF
:10024000520728BF30C148BF0B6070471FB508F088
:1002500035F91FBD10B510BD00F0DCF91146FFF7F0
:10026000F5FF05F059FC00F0FAF903B4FFF7F2FFCF
:1002700003BC00F0FDF900002C4B19680868B0E8D9
:10028000F04F80F30988BFF36F8F4FF0000080F3C9
:10029000118870470000000008480068006880F37B
:1002A00008884FF0000080F3148862B661B6BFF38F
:1002B0004F8FBFF36F8F00DF00BF00BF08ED00E07E
:1002C000DFF80C00016841F470010160704700BF65
:1002D00088ED00E0EFF30980BFF36F8F134B1A68CE
:1002E0001EF0100F08BF20ED108A20E9F04F1060BB
:1002F00009B44FF0500080F31188BFF34F8FBFF364
:100300006F8F06F0D1FC4FF0000080F3118809BC1C
:1003100019680868B0E8F04F1EF0100F08BFB0EC85
:10032000108A80F30988BFF36F8F70476C0000203C
:10033000EFF30580704700000948804709480047EF
:10034000FEE7FEE7FEE7FEE7FEE7FEE7FEE7FEE785
:10035000FEE7FEE704480549054A064B70470000E2
:1003600055440008D901000808680020087A0020D8
:10037000086A0020086A002053EA020C00F0698035
:100380002DE9F04B4FF00006002B1FBFB3FA83F5A9
:1003900003FA05F424FA05F65E4012BF1643B2FADA
:1003A00082F502FA05F4C5F120051EBF22FA05FC0C
:1003B00044EA0C04203556EA044C4FEA144418BFB2
:1003C000641C4FF000084FF00009904271EB030CE1
:1003D00039D3002919BFB1FA81F701FA07F6B0FA4B
:1003E00080F700FA07F6C7F120071EBF20FA07FCC6
:1003F00046EA0C062037B6FBF4FCA7EB0507103FD6
:1004000007F01F0BCBF120060CFA0BFB2CFA06F6BB
:1004100044BFB3460026202FA4BF5E464FF0000B1A
:100420005BEA060C08BF4FF0010B19EB0B09ABFBA5
:10043000027C48EB0608C01B06FB02CC0BFB03CC7E
:1004400071EB0C01C1E70B46024641464846BDE848
:10045000F08B13B54FF000004FF00001AFF30080B8
:10046000BDE81C407047032A40F2308010F0030CB6
:1004700000F0158011F8013BBCF1020F624498BFF7
:1004800011F801CB00F8013B38BF11F8013BA2F194
:10049000040298BF00F801CB38BF00F8013B11F00F
:1004A000030300F02580083AC0F0088051F8043BAF
:1004B000083A51F804CBA0E80810F5E7121D5CBF1C
:1004C00051F8043B40F8043BAFF30080D20724BF4F
:1004D00011F8013B11F801CB48BF11F8012B24BFE3
:1004E00000F8013B00F801CB48BF00F8012B704732
:1004F00010B5203AC0F00B80B1E81850203AA0E8BF
:100500001850B1E81850A0E81850BFF4F5AF5FEAF2
:10051000027C24BFB1E81850A0E8185044BF18C9A5
:1005200018C0BDE810405FEA827C24BF51F8043B4C
:1005300040F8043B08BF7047D20728BF31F8023BA0
:1005400048BF11F8012B28BF20F8023B48BF00F834
:10055000012B70474FF000020429C0F0128010F008
:10056000030C00F01B80CCF1040CBCF1020F18BF8F
:1005700000F8012BA8BF20F8022BA1EB0C0100F022
:100580000DB85FEAC17C24BF00F8012B00F8012BF5
:1005900048BF00F8012B70474FF0000200B513462A
:1005A00094469646203922BFA0E80C50A0E80C5093
:1005B000B1F12001BFF4F7AF090728BFA0E80C5044
:1005C00048BF0CC05DF804EB890028BF40F8042B3D
:1005D00008BF704748BF20F8022B11F0804F18BFAA
:1005E00000F8012B704770477047704710B500F056
:1005F00009F8006810BD10B5044600F003F8046067
:1006000010BD000000487047A867002000487047F0
:10061000A86700207546FFF7F9FFAE46050069465A
:10062000534620F00700854618B020B5FFF792FE2C
:10063000BDE820404FF000064FF000074FF00008E3
:100640004FF0000B21F00701AC46ACE8C009ACE864
:10065000C009ACE8C009ACE8C0098D46704710B5C8
:100660000446AFF300802046BDE81040FFF7FDBD13
:1006700001491820ABBEFEE72600020070470000CB
:1006800010B5002202211D4800F05AFE012000F0A2
:1006900055FD0122C0211A4800F052FE002201211E
:1006A000164800F04DFE00224FF48041154800F03E
:1006B00047FE01225103144800F042FE012291033B
:1006C000114800F03DFE00224FF480510E4800F02A
:1006D00037FE00224FF400610B4800F031FE00228B
:1006E0004FF48061084800F02BFE012202210348EC
:1006F00000F026FE042000F021FD10BD0018004887
:1007000000080048001000480004004870B5064684
:100710000C461546304600F001F9012005F0E0F9DD
:10072000012291032D4800F00BFE012005F0D8F9BD
:1007300000224FF48041294800F002FE00BF4FF430
:100740000041264800F0F4FD0128F8D00122910371
:10075000224800F0F5FD012005F0C2F900224FF417
:1007600080411E4800F0ECFD00BF4FF400411B48E3
:1007700000F0DEFD0128F8D000224FF400511848A7
:1007800000F0DEFD00224FF48041154800F0D8FD56
:10079000012005F0A5F902F097FF208001229103C6
:1007A0000F4800F0CDFD012005F09AF900224FF42A
:1007B00080410B4800F0C4FD012005F091F902F0E2
:1007C00083FF288001229103054800F0B9FD012232
:1007D0005103034800F0B4FD70BD00000010004854
:1007E000000400487CB50546002410E06A4601A9D3
:1007F0002046FFF78BFFBDF8040025F81400BDF874
:100800000000C4F10F0125F81100601CC4B2082CCF
:10081000ECDB7CBD10B5044604F001024FF48051BE
:100820003A4800F08DFDC4F340024FF400613748B0
:1008300000F086FDC4F380024FF48061334800F07D
:100840007FFD012005F04CF901229103304800F0B2
:1008500077FD012005F044F900224FF480412C4837
:1008600000F06EFD00BF4FF40041294800F060FD2C
:100870000128F8D001229103254800F061FD0120F4
:1008800005F02EF900224FF48041214800F058FD78
:1008900000BF4FF400411E4800F04AFD0128F8D087
:1008A00000224FF40051194800F04AFD00224FF495
:1008B0008041164800F044FD012005F011F902F0D6
:1008C00003FF1449088001229103104800F038FD0D
:1008D000012005F005F900224FF480410B4800F09B
:1008E0002FFD012005F0FCF802F0EEFE0A49088019
:1008F00001229103054800F023FD01225103034822
:1009000000F01EFD0348B0F9000010BD00040048CF
:1009100000100048160000201800002010B5044602
:10092000072C00DD0024C4F380024FF480610948E5
:1009300000F006FDC4F340024FF40061054800F0EA
:10094000FFFC04F001024FF48051024800F0F8FC73
:1009500010BD00000004004800BFFEE730B50246AD
:100960000B460020002100244FF6FF7000BF12E06C
:10097000555C684000240AE000F0010525B14AF208
:10098000010585EA600000E04010651CECB2082C0F
:10099000F2DB4D1CE9B29942EADB051205EB0025BA
:1009A000A8B230BD704770477047000070B504466C
:1009B0000A4D4FF48066C4F380023146284600F0A9
:1009C000BFFCC4F340023146284600F0B9FC04F0F5
:1009D00001023146284600F0B3FC70BD001000480B
:1009E00070B50446044D4FF4007604F00102314620
:1009F000284600F0A5FC70BD00100048F8B504467C
:100A00000D461646012C20D100200090E00340EA5C
:100A10000530C6F30B01084387B238128DF8000089
:100A2000F8B28DF80100002261032C4800F088FC28
:100A300040F6FF7302226946294801F079FE01223F
:100A40005103264800F07CFC47E0022C20D1002016
:100A50000090A00340EA0530C6F30B01084387B2BB
:100A600038128DF80000F8B28DF801000022E10282
:100A70001A4800F065FC40F6FF73022269461848E8
:100A800001F056FE01221103144800F059FC24E045
:100A9000032C22D1002000904FF4004040EA0530A2
:100AA000C6F30B01084387B238128DF80000F8B284
:100AB0008DF8010000224FF40061084800F040FC6E
:100AC00040F6FF7302226946054801F031FE01221B
:100AD000D102024800F034FC00BFF8BD001000480D
:100AE000E813002010B5024800F0DEF910BD000048
:100AF000B014002010B5024800F0D6F910BD000077
:100B00001015002030B50E4D0468AC4201D20D49DD
:100B100001E00C4920310B460478083C1425B4FB55
:100B2000F5F2446CA40803EB84048464054C80341F
:100B3000C46402F01F050124AC40046530BD000010
:100B4000080402400008024001794A1E064B03EBEC
:100B500082024265044A403282654A1E02F01F0347
:100B600001229A40C26570470009024030B5D0E9C1
:100B700013546C60446D14B1D0E916546C6090F855
:100B8000444004F01F050124AC40056C6C6004680F
:100B900063608468102C04D10468A2600468E1607A
:100BA00003E00468A1600468E26030BD70B50446EB
:100BB000184DC4F3C0128021284600F0C1FBC4F3D5
:100BC00080124021284600F0BBFBC4F340122021D4
:100BD000284600F0B5FBC4F300121021284600F0AF
:100BE000AFFBC4F3C0020821284600F0A9FBC4F300
:100BF00080020421284600F0A3FBC4F34002022136
:100C0000284600F09DFB04F001020121284600F077
:100C100097FB70BD00100048704772B600BFFEE73A
:100C200010B5012251023D4800F08AFB0122510219
:100C30003B4800F085FB01221021394800F080FB81
:100C400001229102374800F07BFB012211034FF093
:100C5000904000F075FB01220421334800F070FB46
:100C6000012240212D4800F06BFB012251022E4849
:100C700000F066FB0122D1024FF0904000F060FBD3
:100C800001221146284800F05BFB0122082124487C
:100C900000F056FB01228021214800F051FB012287
:100CA00011021E4800F04CFB012211021E4800F008
:100CB00047FB01222021194800F042FB01220821B4
:100CC000194800F03DFB00224FF480614FF0904046
:100CD00000F036FB00220221134800F031FB002215
:100CE00020210F4800F02CFB002240210C4800F08E
:100CF00027FB00228021094800F022FB002210215E
:100D0000064800F01DFB00224021064800F018FBB9
:100D100000220421034800F013FB10BD0018004816
:100D200000040048001400480008004810B50446BC
:100D3000012C05D1002208210A4800F001FB0FE038
:100D4000022C05D100228021064800F0F9FA07E0C4
:100D5000032C05D100224FF48071034800F0F0FA13
:100D600010BD0000000400480018004870B504469B
:100D70000D46012D17D1012C05D101221021174854
:100D800000F0DEFA28E0022C05D1012240211448AF
:100D900000F0D6FA20E0032C1ED1012204211048D5
:100DA00000F0CEFA18E0022D16D1012C05D1002258
:100DB00021020C4800F0C4FA0EE0022C05D10022FA
:100DC0002021064800F0BCFA06E0032C04D10022E2
:100DD0000821044800F0B4FA70BD00000018004873
:100DE000001400480008004810B50446012C06D144
:100DF0000022C1024FF0904000F0A2FA06E0022C5F
:100E000004D100220121024800F09AFA10BD00002E
:100E10000008004870B50446002594F82500022813
:100E20000BD00420E063012084F8250000BF0020DF
:100E300084F8240000BF012534E02068006820F019
:100E40000E00216808602068006820F00100216819
:100E50000860A06C006820F48070A16C086094F8B1
:100E6000440000F01F0101208840216C4860D4E953
:100E700013104860606D40B1606D006820F48070B0
:100E8000616D0860D4E916104860012084F82500DF
:100E900000BF002084F8240000BFA06B10B12046E2
:100EA000A16B8847284670BD70B50446206C056864
:100EB0002068066894F8440000F01F010420884070
:100EC0002840E0B106F00400C8B12068006800F0D6
:100ED000200028B92068006820F00400216808601C
:100EE00094F8440000F01F0104208840216C486001
:100EF000206B002856D02046216B884752E094F89A
:100F0000440000F01F0102208840284018B306F07A
:100F1000020000B32068006800F0200040B920689B
:100F2000006820F00A0021680860012084F825008C
:100F300094F8440000F01F0102208840216C4860B2
:100F400000BF002084F8240000BFE06A50B32046B0
:100F5000E16A884726E094F8440000F01F01082069
:100F600088402840F0B106F00800D8B12068006839
:100F700020F00E002168086094F8440000F01F0182
:100F800001208840216C48600120E06384F825003E
:100F900000BF002084F8240000BF606B10B1204621
:100FA000616B884770BD000070B504460CB9012024
:100FB00070BD2F49206888420BD22E492068401A04
:100FC0001421B0FBF1F0800060642A4808382064E6
:100FD0000AE027492068401A1421B0FBF1F0800094
:100FE0006064234808382064022084F825002068C3
:100FF000056847F6F0708543D4E90201084321698A
:10100000084361690843A1690843E1690843216A0B
:1010100008430543206805602046FFF773FDA0687C
:10102000B0F5804F01D1002060602079A16C08608C
:10103000D4E913104860606860B16068042809D87A
:101040002046FFF781FD0020616D0860D4E916108D
:10105000486003E000206065A065E0650020E06373
:10106000012084F82500002084F8240000BF9FE7B9
:1010700008040240080002402DE9F04104460D46F4
:1010800016461F464FF0000800BF94F824000128C0
:1010900002D10220BDE8F081012084F8240000BFC5
:1010A00094F8250001283FD1022084F82500002073
:1010B000E0632068006820F00100216808603B467A
:1010C000324629462046FFF751FD206B30B120689B
:1010D000006840F00E00216808600BE0206800689E
:1010E00020F00400216808602068006840F00A00D1
:1010F00021680860A06C006800F4803028B1A06C02
:10110000006840F48070A16C0860606D28B1606D6B
:10111000006840F48070616D08602068006840F0ED
:1011200001002168086006E000BF002084F8240068
:1011300000BF4FF002084046ACE7000070B504461F
:1011400000F004F906462546681C10B10448006802
:10115000054400BF00F0FAF8801BA842FAD370BD26
:101160006400002078B502460B460021CAE0012643
:101170008E401D6805EA0604002C73D01D7905F029
:101180000305012D04D01D7905F00305022D13D1AF
:1011900090684E000325B540A8434E00DD68B54079
:1011A00028439060506801258D40A8431D79C5F300
:1011B00000158D40284350601D7905F00305032D6F
:1011C00009D0D0684E000325B540A8434E009D6865
:1011D000B5402843D0601D7905F00305022D13D1D9
:1011E000CE0802F1200555F826004D07EE0E0F251A
:1011F000B540A8434E07F60E1D69B5402843CE08FA
:1012000002F1200545F8260010684E000325B54080
:10121000A8431D7905F003054E00B5402843106032
:101220005D6805F44035002D6BD000BF384D2D6E44
:1012300045F00105364E356635462D6E05F0010543
:10124000009500BF00BF4FEAB6358E0855F826005E
:101250008D072E0F0F25B540A843B2F1904F02D154
:1012600000251AE04DE02B4DAA4201D1012514E0E2
:10127000294DAA4201D102250FE0284DAA4201D1F1
:1012800003250AE0264DAA4201D1042505E0254D9B
:10129000AA4201D1052500E006258E07360FB5408C
:1012A0002843214D8E0845F82600204D2868A0438C
:1012B0005D6805F4801505B120431C4D28602D1D87
:1012C0002868A0435D6805F4001505B12043174D5B
:1012D0002D1D2860154D2D1F2868A0435D6805F45D
:1012E000003505B12043114D2D1F28602D1F2868A2
:1012F000A0435D6805F4803505B120430B4D083DE2
:101300002860491C1D68CD40002D7FF430AF78BDAA
:10131000001002400004004800080048000C00488B
:101320000010004800140048080001400804014073
:10133000024613690B400BB1012000E0002070470A
:101340000AB1816100E081627047000001480068D5
:10135000704700005C0000200348006803490968EA
:1013600008440149086070475C00002064000020C8
:1013700010B50024032000F0D1F80F2000F008F889
:1013800008B1012401E000F051F8204610BD000032
:10139000F0B587B004460026002700BF1E48806DC8
:1013A00040F020001C4988650846806D00F0200050
:1013B000009000BF00BF01A902A800F077FC00F078
:1013C0009DFC06461548B6FBF0F0471E144815492B
:1013D000086040F2E7311348C160476000210161B5
:1013E000816001F0E5FB054695B90E4801F018FC57
:1013F00005466DB9372000F03FF8102C07D20022C7
:101400002146372000F04CF80748046000E0012531
:10141000284607B0F0BD00000010024040420F0017
:1014200000140040041600206000002008B500BF32
:101430001048006E40F001000E4908660846006E34
:1014400000F00100009000BF00BF00BF0846806DA3
:1014500040F0805088650846806D00F08050009014
:1014600000BF00BF00220F21901E00F019F800F00D
:10147000F5F808BD001002400146084600280DDBC3
:1014800000BF00BF00F01F0301229A4043099B00E8
:1014900003F1E023C3F8002100BF00BF00BF704785
:1014A0002DE9F05F80460D46164603F005FC074621
:1014B00039462A46334601F00700C0F1070ABAF15F
:1014C000040F02D94FF0040A01E0C0F1070AD14627
:1014D00000F1040ABAF1070F02D24FF0000A01E04E
:1014E000A0F1030AD4464FF0010A0AFA09FAAAF158
:1014F000010A0AEA020A0AFA0CFA4FF0010B0BFA87
:101500000CFBABF1010B0BEA030B4AEA0B0421467F
:10151000404603F0D9FBBDE8F09F000000BF00F09B
:101520000702064B19684FF6FF031940044B0B43A3
:1015300043EA0221014B196000BF70470CED00E047
:101540000000FA0502468ABB4148006800F4C0600A
:10155000B0F5806F2BD13E488030006820F4807059
:101560003B4BC3F880001846006820F4C06040F48C
:10157000007018603748006832235843364BB0FB80
:10158000F3F0411C00E0491E3148406900F48060DE
:10159000B0F5806F01D10029F5D12D48406900F4E4
:1015A0008060B0F5806F51D10320704708E0284873
:1015B0008030006820F48070254BC3F8800045E03F
:1015C000B2F5007F3AD12248006800F4C060B0F55F
:1015D000806F2AD11E488030006840F480701C4B18
:1015E000C3F880001846006820F4C06040F4007022
:1015F00018601848006832235843174BB0FBF3F0CB
:10160000411C00E0491E1248406900F48060B0F5BA
:10161000806F01D10029F5D10D48406900F4806048
:10162000B0F5806F12D10320BFE709488030006811
:1016300040F48070064BC3F8800007E0044800685F
:1016400020F4C06040F48060014B18600020ACE7DB
:10165000007000406800002040420F00034880688E
:1016600040F48040014988607047000000700040ED
:101670002DE9F84304460027B846206800F400200E
:10168000B0F5002F73D1B946FD48806D00F0805051
:1016900078B900BFFA48806D40F08050F8498865FD
:1016A0000846806D00F08050009000BF00BF4FF0F2
:1016B0000109F448006840F48070F2490860FFF7BF
:1016C00045FE064606E0FFF741FE801B022801D9D1
:1016D000032705E0EB48006800F480700028F2D092
:1016E00000BF002F46D1E6489030006800F44075F6
:1016F000CDB1206DA84216D0E1489030006820F4AA
:101700004075DF48D0F8900040F48030DC49C1F8E3
:1017100090000846D0F8900020F48030C1F8900086
:101720000846C0F8905005F00100A0B1FFF70EFE8A
:10173000064608E0FFF70AFE801B41F28831884226
:1017400001D9032706E0CE489030006800F002007F
:101750000028EFD000BF5FB9C9489030006820F47E
:101760004070216D0843C649C1F8900003E00CE0C9
:10177000B84600E0B846B9F1010F05D1C048806D08
:1017800020F08050BE49886500BF207800F001003D
:1017900048B1BB488830006820F003006168084306
:1017A000B749C1F88800207800F00200022809D16A
:1017B000B3488830006820F00C00A1680843B049A5
:1017C000C1F88800207800F00400042809D1AC4852
:1017D0008830006820F03000E1680843A849C1F86B
:1017E0008800207800F00800082809D1A448883033
:1017F000006820F0C00021690843A149C1F88800B1
:10180000207800F01000102809D19D488830006829
:1018100020F44070616908439949C1F88800207834
:1018200000F02000202809D195488830006820F475
:101830004060A16908439249C1F88800207800F00F
:101840004000402809D18E488830006820F440507C
:10185000E16908438A49C1F88800207800F08000D7
:10186000802809D186488830006820F44040216AE9
:1018700008438349C1F88800208800F48070B0F5DF
:10188000807F09D17E488830006820F44030616A4A
:1018900008437B49C1F88800206800F40030B0F5A7
:1018A000003F09D176489C30006820F00300A16A0F
:1018B00008437349C1F89C00208800F40070B0F51B
:1018C000007F09D16E488830006820F44020E16A2A
:1018D00008436B49C1F88800208800F48060B0F5A7
:1018E000806F13D166488830006820F44010216B67
:1018F0000843634988310860206BB0F5801F05D12B
:101900005F48C06840F480105D49C860208800F4DA
:101910000060B0F5006F13D159488830006820F49A
:101920004000616B0843564988310860606BB0F530
:10193000800F05D15248C06840F480105049C860FB
:10194000208800F48050B0F5805F13D14C48883077
:10195000006820F04070A16B084349498831086055
:10196000A06BB0F1807F05D14548C06840F480107D
:101970004349C860208800F40050B0F5005F13D1DF
:101980003F488830006820F04060E16B08433C49E4
:1019900088310860E06BB0F1006F05D13848C0684D
:1019A00040F480103649C860208800F48040B0F5CB
:1019B000804F13D132488830006820F04060216C9D
:1019C00008432F4988310860206CB0F1006F05D1C1
:1019D0002B48C06840F480102949C860208800F472
:1019E0000040B0F5004F13D125488830006820F042
:1019F0004050616C0843224988310860606CB0F146
:101A0000805F05D11E48C06840F480301C49C86022
:101A1000206800F48030B0F5803F13D1184888303A
:101A2000006820F04040A16C0843154988310860E7
:101A3000A06CB0F1804F05D11148C06840F48030EF
:101A40000F49C860206800F48020B0F5802F13D1C2
:101A50000B489C30006820F44010E16C08430849B2
:101A60009C310860E06CB0F5001F05D10448C068E7
:101A700040F480100249C8604046BDE8F883000089
:101A800000100240007000402DE9F04104460D4670
:101A90004FF0000814B90120BDE8F0817D480068CE
:101AA00000F00F00A8420ED27A48006820F00F0024
:101AB0002843784908600846006800F00F00A842F3
:101AC00001D00120E8E7207800F00100002864D070
:101AD0006068032823D17048006800F0007008B9DE
:101AE0000120D9E701F0BCFD06466C48864237D993
:101AF0006948806800F0F00030B1207800F0020002
:101B000002282DD1A06858BB6348806820F0F000FF
:101B100040F08000604988604FF0800820E06068F5
:101B2000022806D15C48006800F4003040B901206A
:101B3000B2E75948006800F4806008B90120ABE7BB
:101B400000F000F906465548864209D95248806897
:101B500020F0F00040F080004F4988604FF080088E
:101B60004D48806820F00300616808434A49886056
:101B7000FFF7ECFB074608E0FFF7E8FBC01B41F26C
:101B80008831884201D9032086E74348806800F005
:101B90000C006168B0EB810FEED1207800F00200FC
:101BA000022820D1207800F00400042805D13A480A
:101BB000806840F4E06038498860207800F00800D0
:101BC000082807D13448806820F4605040F4E06071
:101BD000314988603048806820F0F000A1680843EF
:101BE0002D49886008E0B8F1800F05D12A48806847
:101BF00020F0F000284988602648006800F00F00B7
:101C0000A84219D92348006820F00F002843214931
:101C10000860FFF79BFB074608E0FFF797FBC01B38
:101C200041F28831884201D9032035E7194800681C
:101C300000F00F00A842F0D1207800F00400042842
:101C400007D11548806820F4E060E1680843124934
:101C50008860207800F00800082808D10E488068C5
:101C600020F46050216940EAC1000B49886000F00F
:101C700069F809498968C1F30311094A515C01F007
:101C80001F01C8400749086007480068FFF780FB4C
:101C900002E70000002002400010024000B4C4042B
:101CA0005086000868000020600000200F220260BB
:101CB0000D4A926802F0030242600B4A926802F0F9
:101CC000F0028260084A926802F4E062C260064A4A
:101CD000926802F46052D2080261044A126802F06B
:101CE0000F020A607047000000100240002002400E
:101CF00001480068704700006800002000B5FFF749
:101D0000F7FF05498968C1F30221044A515C01F0DB
:101D10001F01C84000BD000000100240608600089E
:101D200000B5FFF7E5FF05498968C1F3C221044A00
:101D3000515C01F01F01C84000BD000000100240CE
:101D40006086000870B5224DAD6805F00C05042DC5
:101D500001D120483AE01E4DAD6805F00C05082D74
:101D600001D11D4832E01A4DAD6805F00C050C2D6F
:101D70002BD1174DED6805F00304154DED68C5F343
:101D800003156A1C022C0CD0032C09D1124DB5FB93
:101D9000F2F50F4EF668C6F3062605FB06F10AE0DB
:101DA00000BF0C4DB5FBF2F5094EF668C6F30626EA
:101DB00005FB06F100BF00BF054DED68C5F34165A9
:101DC0006D1C6B00B1FBF3F000E0002070BD000063
:101DD000001002400024F40000127A002DE9F843BC
:101DE000044614B90120BDE8F883207800F0010012
:101DF000002865D0FC48806800F00C07FA48C068ED
:101E000000F003060C2F01D1032E01D0082F0AD1B8
:101E1000F548006800F40030002851D060680028C0
:101E20004ED10120DFE700BF6068B0F5803F06D1EA
:101E3000ED48006840F48030EB4908601AE06068C3
:101E4000B0F5A02F0BD1E848006840F48020E649A7
:101E500008600846006840F4803008600AE0E24804
:101E6000006820F48030E04908600846006820F4EB
:101E70008020086000BF606888B1FFF767FA0546F8
:101E800006E0FFF763FA401B642801D90320AAE7A4
:101E9000D548006800F400300028F2D010E0FFF7C9
:101EA00055FA054606E0FFF751FA401B642801D9B0
:101EB000032098E7CC48006800F400300028F2D1F5
:101EC000207800F00200022860D1C748806800F046
:101ED0000C07C548C06800F003060C2F01D1022E84
:101EE00001D0042F18D1C048006800F4806018B1F8
:101EF000E06808B9012076E7BB48406820F0FE4062
:101F0000217C40EA0160B8494860B8480068FFF7A2
:101F10003FFA18B3012066E7E06800B3B2480068F2
:101F200040F48070B0490860FFF710FA054606E0FB
:101F3000FFF70CFA401B022801D9032053E7AA48F7
:101F4000006800F480600028F2D0A748406820F0C4
:101F5000FE40217C40EA0160A349486016E0A248A7
:101F6000006820F48070A0490860FFF7EFF905468B
:101F700006E0FFF7EBF9401B022801D9032032E706
:101F80009948006800F480600028F2D1207800F0C1
:101F90000800082836D16069D0B1934894300068B1
:101FA00040F001009049C1F89400FFF7CFF90546D1
:101FB00006E0FFF7CBF9401B022801D9032012E706
:101FC00089489430006800F002000028F1D019E040
:101FD00085489430006820F001008349C1F89400DE
:101FE000FFF7B4F9054606E0FFF7B0F9401B0228F9
:101FF00001D90320F7E67C489430006800F0020025
:102000000028F1D1207800F00400042872D14FF0AC
:1020100000087548806D012121EA107078B100BF79
:102020007148806D40F080506F4988650846806D2A
:1020300000F08050009000BF00BF4FF001086C48D6
:10204000006800F48070B0B96948006840F480709E
:1020500067490860FFF77AF9054606E0FFF776F969
:10206000401B022801D90320BDE66148006800F446
:1020700080700028F2D000BFA068012808D15A481B
:102080009030006840F001005749C1F8900021E00D
:10209000A06805280FD154489030006840F0040033
:1020A0005149C1F890000846D0F8900040F0010076
:1020B000C1F890000EE04C489030006820F001001C
:1020C0004949C1F890000846D0F8900020F004007B
:1020D000C1F8900000BFA068A8B1FFF737F9054626
:1020E00009E0FFF733F9401B41F28831884202D9F9
:1020F000032078E625E03C489030006800F00200BC
:102100000028EED013E0FFF721F9054608E0FFF7BD
:102110001DF9401B41F28831884201D9032062E653
:1021200031489030006800F002000028EFD1B8F18B
:10213000010F05D12C48806D20F080502A49886518
:1021400000BF207800F02000202836D1A069D0B14F
:1021500025489830006840F001002349C1F89800F4
:10216000FFF7F4F8054606E0FFF7F0F8401B0228F9
:1021700001D9032037E61C489830006800F00200BF
:102180000028F1D019E018489830006820F00100CC
:102190001549C1F89800FFF7D9F8054606E0FFF7A2
:1021A000D5F8401B022801D903201CE60E489830C0
:1021B000006800F002000028F1D1E069002860D03A
:1021C0000948806800F00C000C287AD0E0690228E9
:1021D00058D10548006820F0807003490860FFF777
:1021E000B5F805460DE00000001002406000002038
:1021F00000700040FFF7AAF8401B022801D9032015
:10220000F1E54A48006800F000700028F2D1D4E9F6
:102210000810401E41EA0011A06A41EA0021208E08
:102220000122C2EB500041EA40513420005DC2EB74
:10223000500041EA40612C20005D41EAC0603B490A
:10224000C9683B4A114008433849C86008460068DD
:1022500040F0807008600846C06840F08070C86038
:10226000FFF774F8054606E0FFF770F8401B0228F8
:1022700001D90320B7E52D48006800F00070002860
:10228000F2D051E02948006820F0807027490860AA
:10229000FFF75CF8054606E0FFF758F8401B0228F8
:1022A00001D903209FE52148006800F00070002854
:1022B000F2D11E48C0681F4908401C49C86033E07D
:1022C000FFE7E069012800D18DE51848C66806F0EF
:1022D0000301206A814225D106F0F001606A401EA8
:1022E000B1EB001F1ED106F4FE41A06AB1EB002F36
:1022F00018D106F078412C20005DB1EBC06F11D1F0
:1023000006F4C001208E0122C2EB5000B1EB405F09
:1023100008D106F0C0613420005DC2EB5000B1EB83
:10232000406F01D001205EE500205CE50010024016
:102330000C809F01FCFFEEFE70470000F8B50446DC
:102340002068466820688568C5F3801048B905F0A4
:10235000010030B1C6F3801018B12046E16C884707
:10236000F8BDC5F3400030B1C6F3C01018B1204627
:10237000216D8847F4E7C5F3401030B9C5F38010EC
:1023800018B9C5F3002000287CD0C6F340100028FF
:102390007DD0C5F38010F0B194F85D0003280ED015
:1023A000206E40F00400206600BF002000902068EE
:1023B000C068009020688068009000BF0BE000BFFC
:1023C000002000902068C06800902068806800901D
:1023D00000BF00BFC4E7C5F3401088B1206E40F0D5
:1023E0000100206600BF00200090206880680090F7
:1023F0002068006820F040002168086000BF00BF2E
:10240000C5F3002058B1206E40F00800206600BFE0
:102410000020009020688068009000BF00BF206E00
:1024200078B32068406820F0E0002168486001200F
:1024300084F85D0006F00200022802D006F00100D8
:1024400008B32068406820F0030021684860A06D50
:1024500050B11048A16D8863A06DFEF7DBFC18B188
:10246000206E40F040002066606D50B10948616DFB
:102470008863606DFEF7CEFC18B1206E40F040001E
:10248000206603E003E02046FFF756FF68E700BF41
:1024900066E70000B137000870B504460CB90120AA
:1024A00070BD606A38B96068B0F5827F00D105E020
:1024B0000021E16102E00021216161610021A1624E
:1024C00094F85D0028B9002084F85C00204600F0F4
:1024D00061F8022084F85D002068006820F0400068
:1024E00021680860E068B0F5E06F01D9002501E0DF
:1024F0004FF48055E068B0F5706F05D0E068B0F536
:10250000E06F01D00021A162A08800F482702189CF
:1025100001F404410843217C01F002010843217DBC
:1025200001F001010843218B01F400710843217F70
:1025300001F0380108432021095D01F080010843C2
:10254000218D01F400510843216808600421A0692D
:1025500001EA104094F8241001F01001084394F8A7
:10256000341001F008010843A18901F470610843A7
:1025700005F480510843216848602068C06920F450
:1025800000602168C86100202066012084F85D0099
:10259000002085E710B586B00446142101A8FDF798
:1025A000FBFF5B492068884229D100BF5948006E73
:1025B00040F48050574908660846006E00F4805089
:1025C000009000BF00BF00BF0846C06C40F0010093
:1025D000C8640846C06C00F00100009000BF00BF56
:1025E000E02001900220029000200390049005203A
:1025F000059001A94FF09040FEF7B4FD86E04649F2
:1026000020688842FAD100BF4248806D40F4004003
:10261000404988650846806D00F40040009000BF86
:1026200000BF00BF0846C06C40F00100C864084607
:10263000C06C00F00100009000BF00BF00BF084662
:10264000C06C40F00400C8640846C06C00F0040090
:10265000009000BF00BF4FF40040019002200290A4
:102660000020039004900620059001A94FF09040AF
:10267000FEF778FD4FF4E050019002200290002018
:10268000039004900620059001A92448FEF76AFDF6
:102690002348244908600F204860102121488160A8
:1026A0000021C16080210161002141618161C1611E
:1026B0000162FEF779FC08B1FEF7AFFA00BF1948D6
:1026C0006065846200BF16481430174908600E2008
:1026D0004860002114488160C160802101610021AF
:1026E00041618161C1610162FEF75EFC08B1FEF7E4
:1026F00094FA00BF0C48A065846200BF0022052147
:102700003320FEF7CDFE3320FEF7B6FE06B010BD37
:102710000030014000100240003C0040000800482A
:1027200008000240B01400201015002070477047C8
:102730002DE9F84304460F4616461D46FEF706FEF1
:102740008046B14694F85D00012802D00220BDE821
:10275000F88307B10EB90120F9E700BF94F85C00D7
:10276000012801D10220F2E7012084F85C0000BFBB
:10277000032084F85D0000202066A763A687E68713
:102780002064A4F84400A4F846002065E064A06832
:10279000B0F5004F0BD12068006820F040002168A0
:1027A00008602068006840F4804021680860206864
:1027B000006800F04000402805D02068006840F024
:1027C000400021680860E068B0F5E06F37D96068C4
:1027D00010B1B9F1010F09D1A06B00882168C86060
:1027E000A06B801CA063E08F401EE08723E0206880
:1027F000806800F0020002280AD1A06B00882168DE
:10280000C860A06B801CA063E08F401EE08712E0D0
:10281000FEF79CFDA0EB0800A84201D3681C00B99C
:102820004DB9012084F85D0000BF002084F85C00F1
:1028300000BF03208BE7E08F0028D8D152E060680A
:1028400010B1B9F1010F17D1E08F01280AD9A06B9F
:1028500000882168C860A06B801CA063E08F801E88
:10286000E08709E0A06B007821680873A06B401C2A
:10287000A063E08F401EE08731E02068806800F0B0
:102880000200022818D1E08F01280AD9A06B008825
:102890002168C860A06B801CA063E08F801EE08769
:1028A0001DE0A06B007821680873A06B401CA0633A
:1028B000E08F401EE08712E0FEF748FDA0EB080025
:1028C000A84201D3681C00B94DB9012084F85D000D
:1028D00000BF002084F85C0000BF032037E7E08FD2
:1028E0000028CAD142462946204601F041F808B1E5
:1028F00020202066A06850B900BF0020009020680A
:10290000C068009020688068009000BF00BF012070
:1029100084F85D0000BF002084F85C0000BF206EDA
:1029200008B1012013E7002011E700002DE9F0476E
:1029300004460E4617461D4694F85D80D4F8049070
:10294000B8F1010F0AD0B9F5827F04D1A06810B99F
:10295000B8F1040F02D00220BDE8F0870EB107B134
:102960000DB90120F8E700BF94F85C00012801D1FF
:102970000220F1E7012084F85C0000BF94F85D00BC
:10298000042802D0052084F85D0000202066A6639C
:10299000A587E5872764A4F84450A4F84650E0646E
:1029A00020652068406820F4C04021684860E068E5
:1029B000B0F5E06F06D92068406820F480502168A7
:1029C00048604DE02068406840F4805021684860CD
:1029D000606D8069B0F5806F19D194F83C0000F00B
:1029E000010048B92068406820F4804021684860B0
:1029F000E08F4010E0870AE02068406840F48040A3
:102A000021684860E08F012101EB6000E087A06D44
:102A10008069B0F5806F23D12068406820F4805031
:102A200021684860B4F8460000F0010058B92068F9
:102A3000406820F4005021684860B4F84600401017
:102A4000A4F846000CE02068406840F4005021687B
:102A50004860B4F84600012101EB6000A4F846008C
:102A600094F85D00042806D13548A16D0863354807
:102A7000A16DC86205E03448A16D08633348A16DBB
:102A8000C8623348A16D48630020A16D8863B4F823
:102A90004630D4F800C00CF10C01226CA06DFEF79A
:102AA000EBFA50B1206E40F01000206600BF00200D
:102AB00084F85C0000BF01204EE72068406840F0C9
:102AC0000100216848600020616D0863616DC86283
:102AD000616D4863616D8863E38FD4F800C00CF1C9
:102AE0000C02A16B606DFEF7C7FA50B1206E40F08A
:102AF0001000206600BF002084F85C0000BF0120A9
:102B00002AE72068006800F04000402805D02068CF
:102B1000006840F040002168086000BF002084F891
:102B20005C0000BF2068406840F0200021684860D9
:102B30002068406840F002002168486000200BE7F0
:102B4000EF3700080B380008FD3700088738000809
:102B5000C737000810B504460B492068884211D1D8
:102B600014220A490A48FDF77EFC0948C078032868
:102B700005D01423054A07490748FFF7D7FE01206F
:102B80000649087010BD0000003C0040E809002024
:102B9000E80A0020E80500204C1400200000002076
:102BA000704770477047704770477047704770476D
:102BB00010B504460CB9012010BD94F83D0028B9A9
:102BC000002084F83C00204600F029F8022084F818
:102BD0003D00211D206801F04FFC012084F84800D1
:102BE00000BF84F83E0001213F20015540200155DF
:102BF00041200155422001554320015500BF00BF2F
:102C0000012084F844004520015546200155472005
:102C1000015500BF012084F83D000020CCE770473B
:102C2000014691F83D00012801D0012070470220A3
:102C300081F83D000868C06840F001000B68D8606A
:102C40001C4B086898421BD00868B0F1804F17D021
:102C5000194B0868984213D0184B086898420FD057
:102C6000174B086898420BD0164B0868984207D05B
:102C7000154B0868984203D0144B0868984210D14D
:102C800008688068124B00EA0302062A0FD0B2F5EA
:102C9000803F0CD00868006840F001000B681860A5
:102CA00005E00868006840F001000B68186000202B
:102CB000BCE70000002C0140000400400008004078
:102CC000000C004000340140004001400050014031
:102CD00007000100704770B504462068C668206888
:102CE000056905F00200022819D106F00200022849
:102CF00015D1401F21680861012020772068806974
:102D000000F0030018B12046FFF7E4FF05E020467D
:102D100000F0F1F8204600F0EFF80020207705F0F1
:102D20000400042819D106F00400042815D1C0437A
:102D300021680861022020772068806900F44070D3
:102D400018B12046FFF7C6FF05E0204600F0D3F893
:102D5000204600F0D1F80020207705F00800082870
:102D600019D106F00800082815D1C0432168086170
:102D7000042020772068C06900F0030018B12046C5
:102D8000FFF7A8FF05E0204600F0B5F8204600F068
:102D9000B3F80020207705F01000102819D106F0B4
:102DA0001000102815D1C043216808610820207741
:102DB0002068C06900F4407018B12046FFF78AFF10
:102DC00005E0204600F097F8204600F095F8002036
:102DD000207705F0010048B106F0010030B16FF036
:102DE000010021680861204600F088F805F08000A5
:102DF000802804D005F40050B0F5005F0AD106F039
:102E00008000802806D16FF40250216808612046B6
:102E1000FFF7C8FE05F48070B0F5807F0AD106F098
:102E20008000802806D16FF48070216808612046F8
:102E3000FFF7B7FE05F04000402809D106F040003A
:102E4000402805D1C04321680861204600F062F89F
:102E500005F02000202809D106F02000202805D107
:102E6000C043216808612046FFF79DFE05F48010ED
:102E7000B0F5801F0BD106F48010B0F5801F06D18D
:102E80006FF48010216808612046FFF78EFE05F47C
:102E90000010B0F5001F0BD106F40010B0F5001FB4
:102EA00006D16FF40010216808612046FFF77CFE10
:102EB00005F48000B0F5800F0BD106F48000B0F56A
:102EC000800F06D16FF48000216808612046FFF76B
:102ED0006DFE05F40000B0F5000F0BD106F4000004
:102EE000B0F5000F06D16FF400002168086120469C
:102EF000FFF75DFE70BD70477047000010B50446D7
:102F000003492068884201D1FEF726FA10BD00006F
:102F1000001400407047014600BF91F8840001286A
:102F200001D102207047012081F8840000BF2420D5
:102F3000C1F88800086802680868006820F001008D
:102F40000B68186022F00052002048660868026092
:102F50002020C1F8880000BF002081F8840000BF55
:102F600000BFDFE770B504460D4600BF94F884004B
:102F7000012801D1022070BD012084F8840000BF27
:102F80002420C4F88800206806682068006820F0C3
:102F90000100216808602068806820F06060284394
:102FA00021688860204601F0DFFA20680660202052
:102FB000C4F8880000BF002084F8840000BF00BF70
:102FC000D9E770B504460D4600BF94F88400012887
:102FD00001D1022070BD012084F8840000BF2420AC
:102FE000C4F88800206806682068006820F00100A6
:102FF000216808602068806820F0604028432168CC
:103000008860204601F0B0FA206806602020C4F8ED
:10301000880000BF002084F8840000BF00BFD9E70B
:1030200010B504460CB9012010BDA06900B100E044
:1030300000BFD4F8880028B9002084F88400204616
:1030400000F02AF82420C4F888002068006820F0E6
:10305000010021680860A06A10B1204601F0B0FAB2
:10306000204601F0D5FB012800D1DDE7206840684B
:1030700020F49040216848602068806820F02A0091
:10308000216888602068006840F0010021680860BD
:10309000204601F011FBC7E710B59CB0044614218F
:1030A00017A8FDF779FA542102A8FDF775FA1C4913
:1030B0002068884231D1012002900020039002A8AC
:1030C000FEF7D6FA08B1FDF7A8FD00BF1548006E5F
:1030D00040F48040134908660846006E00F48040C2
:1030E000019000BF00BF00BF0846C06C40F0040064
:1030F000C8640846C06C00F00400019000BF00BF27
:103100003020179002201890002019901A90072064
:103110001B9017A90448FEF725F81CB010BD00004D
:1031200000380140001002400008004800BFFEE7E0
:1031300010B5012251030848FEF702F90122D1031C
:103140000548FEF7FDF84EF6602002F0C9FC0020AD
:1031500000F000FB10BD00000008004808B500BFEB
:103160001548806C40F00400134988640846806C60
:1031700000F00400009000BF00BF00BF0846806C54
:1031800040F0010088640846806C00F00100009067
:1031900000BF00BF002205210B20FEF781F90B20A4
:1031A000FEF76AF9002205210C20FEF779F90C20C0
:1031B000FEF762F908BD00000010024000B59DB0A6
:1031C0002E4800681C90002201211CA802F01EFD60
:1031D0002B4908602948001D00681B90002201212E
:1031E0001BA802F013FD2749086024480830006836
:1031F0001A90002201211AA802F008FD2249086055
:1032000014221E490C3115A8FDF772F9002115A8EA
:1032100002F0E4FC1D49086014221849203110A86E
:10322000FDF766F9002110A802F0D8FC18490860E3
:103230001422124934310BA8FDF75AF900210BA8CA
:1032400002F0CCFC1349086014220C49483106A84E
:10325000FDF74EF9002106A802F0C0FC0E490860F7
:10326000142206495C3101A8FDF742F9002101A8AA
:1032700002F0B4FC094908601DB000BDB885000823
:103280005000002054000020580000203C00002086
:103290004000002044000020480000204C00002096
:1032A00000B587B0142102A8FDF776F900BFA14848
:1032B000C06C40F010009F49C8640846C06C00F024
:1032C0001000019000BF00BF00BF0846C06C40F076
:1032D0000400C8640846C06C00F00400019000BF00
:1032E00000BF00BF0846C06C40F02000C86408461C
:1032F000C06C00F02000019000BF00BF00BF084676
:10330000C06C40F04000C8640846C06C00F040004B
:10331000019000BF00BF00BF0846C06C40F0010034
:10332000C8640846C06C00F00100019000BF00BFF7
:1033300000BF0846C06C40F00200C8640846C06C7C
:1033400000F00200019000BF00BF00BF0846C06C43
:1033500040F00800C8640846C06C00F00800019006
:1033600000BF00BF002244F2FF717348FDF7E8FF81
:1033700000224AF2CF317148FDF7E2FF002240F20D
:1033800054616F48FDF7DCFF012240F202416D48B5
:10339000FDF7D6FF01224FF460416948FDF7D0FFE9
:1033A00001224FF460516448FDF7CAFF002249F63C
:1033B000F8616548FDF7C4FF01224FF4C04162483F
:1033C000FDF7BEFF002240F2F9315E48FDF7B8FF7D
:1033D00000224FF4F8514FF09040FDF7B1FF43F653
:1033E000FF7002900120039000200490059002A934
:1033F0005148FDF7B7FE4AF2CF300290012003900A
:1034000000200490059002A94C48FDF7ABFE4FF454
:103410008040029000200390049002A94748FDF7E5
:10342000A1FE2820029000200390049002A94448A5
:10343000FDF798FE4EF254600290012003900020A8
:103440000490059002A93E48FDF78CFE40F2FA7008
:1034500002900120039000200490059002A93948B1
:10346000FDF780FE1820029000200390049002A92E
:103470004FF09040FDF776FE04200290002003906C
:10348000049002A93048FDF76DFE4FF48040029091
:1034900001200390002004900220059002A92648F4
:1034A000FDF760FE4FF4004002900020039004906E
:1034B00002A92148FDF756FE4FF4F8400290012082
:1034C0000390002004900220059002A91E48FDF7F9
:1034D00049FE48F2F8200290012003900020049059
:1034E000059002A91848FDF73DFE4FF6FF700290C7
:1034F00000200390049002A91448FDF733FE012038
:1035000002900390002004900220059002A90D482B
:10351000FDF728FE4FF4F8500290012003900020A0
:103520000490059002A94FF09040FDF71BFE07B0F4
:1035300000BD0000001002400010004800080048D4
:10354000001400480018004800040048000C00481F
:1035500010B51248124908604FF48270486000218B
:103560000F4881604FF4E061C160022101610021D8
:1035700041614FF4007181612021C161002101622C
:10358000416281620721C162002101630821416318
:10359000FEF782FF08B1FDF740FB10BD003001408F
:1035A000E813002010B50F480F490860002048605C
:1035B00000210D4881604FF4E061C160022101618A
:1035C0000121416100218161016241628162072123
:1035D000C162002101634163FEF75EFF08B1FDF7A0
:1035E0001CFB10BD003C00404C14002010B51848D6
:1035F000184908604FF4E1304860002115488160A7
:10360000C16001610C21416100218161C1610162E0
:10361000416200200F4988620846FFF701FD08B1AA
:10362000FDF7FBFA00210B48FFF7CBFC08B1FDF7D3
:10363000F4FA00210748FFF795FC08B1FDF7EDFA11
:103640000448FFF768FC08B1FDF7E7FA10BD000079
:10365000003801407015002000BFFEE700BFFEE704
:1036600070B5164DED6805F00304144DED68C5F313
:1036700003156B1C022C0CD0032C09D1104DB5FB8B
:10368000F3F50E4EF668C6F3062605FB06F10AE0D2
:1036900000BF0C4DB5FBF3F5084EF668C6F30626E1
:1036A00005FB06F100BF00BF044DED68C5F34165A1
:1036B0006D1C6A00B1FBF2F070BD0000001002400A
:1036C00000127A000024F400214A11680020C1F39E
:1036D000C0121043C1F3801240EA4200C1F340120D
:1036E00040EA8200C1F3001240EAC200C1F3C00206
:1036F00040EA0210C1F3800240EA4210C1F34002E6
:1037000040EA821001F0010240EAC210C1F3C03267
:1037100040EA0220C1F3803240EA4220C1F3403245
:1037200040EA8220C1F3003240EAC220C1F3C02245
:1037300040EA0230C1F3802240EA4230C1F3402225
:1037400040EA82300A0A40EAC23210B270470000F2
:10375000100C004810B50446012000F013F80120B9
:10376000FDF73EF90120FDF721FA0220FDF71EF9D1
:103770000020FDF735F90020FDF718FA0220FDF7CB
:1037800015F910BD70B50446044D4FF4807604F071
:10379000010231462846FDF7D3FD70BD00100048F8
:1037A00010B50248FEF7CAFD10BD00004C14002001
:1037B00070B50546AC6A0020A4F84600E0872046B4
:1037C000FEF7BAFD70BD70B50546AC6A206840686A
:1037D00020F0030021684860206E40F01000206651
:1037E000012084F85D002046FEF7A6FD70BD70B58F
:1037F0000446A56A2846FEF79AFF70BD70B50446D8
:10380000A56A2846FFF7CCF970BD70B50546AC6ACD
:10381000FDF79CFD06462868006800F0200020287F
:103820002CD02068406820F0200021684860A06803
:1038300050B96068B0F5827F06D12068406820F0FA
:1038400003002168486005E02068406820F001001E
:103850002168486032466421204600F048F808B1EB
:10386000202020660020A4F84600012084F85D0096
:10387000206E18B12046FEF75FFD70BD2046FEF7B2
:1038800055FF00BFF9E770B50546AC6AFDF75EFD70
:1038900006462868006800F02000202822D0206812
:1038A000406820F0200021684860324664212046AC
:1038B00000F05EF818B1206E40F02000206620680D
:1038C000406820F00300216848600020E087A4F8E9
:1038D0004600012084F85D00206E18B12046FEF7F6
:1038E0002BFD70BD2046FFF735F900BFF9E7F8B5AD
:1038F00004460E4615466068B0F5827F0DD1A0687B
:10390000B0F5004F03D0A068B0F5806F05D12068F6
:10391000006820F0400021680860334600228021C2
:103920002046009500F0D2F828B1206E40F020002B
:1039300020660320F8BD6068B0F5827F16D1A068CC
:10394000B0F5004F03D0A068B0F5806F0ED13346BC
:1039500000224FF4C0612046009500F03BF828B1EA
:10396000206E40F0200020660320E3E70020E1E71E
:10397000F8B504460E461546334600224FF4C051B2
:103980002046009500F026F828B1206E40F0200077
:1039900020660320F8BD3346002280212046009592
:1039A00000F094F828B1206E40F02000206603203B
:1039B000F0E7334600224FF4C0612046009500F046
:1039C00009F828B1206E40F0200020660320E1E7CE
:1039D0000020DFE72DE9FC5F04460D4616461F4632
:1039E000DDF8309000200090FDF7B0FCA0EB09005E
:1039F000A7EB0008FDF7AAFC8246206800F10C0B3B
:103A000031480068C0EBC00000EB8000000D00FBF7
:103A100008F0019050E0B5F5C06F05D126B99BF8CC
:103A2000000000909DF80000781C002844D0FDF7AD
:103A30008DFCA0EB0A00404502D2B8F1000F34D152
:103A40002068406820F0E000216848606068B0F5B8
:103A5000827F0DD1A068B0F5004F03D0A068B0F50B
:103A6000806F05D12068006820F040002168086060
:103A7000A06AB0F5005F0DD100BF2068006820F497
:103A80000050216808602068006840F400502168F8
:103A9000086000BF012084F85D0000BF002084F8AA
:103AA0005C0000BF0320BDE8FC9F019808B94FF0FF
:103AB00000080198401E0190206880682840B042AC
:103AC000A9D10020EFE70000680000202DE9F84FA1
:103AD00004460D4690461E46DDF82890FDF736FC5C
:103AE000A0EB0900371AFDF731FC82462C4800682C
:103AF000C0F3CB307843009045E0701C002842D0E2
:103B0000FDF724FCA0EB0A00B84200D2A7BB206856
:103B1000406820F0E000216848606068B0F5827F6E
:103B20000DD1A068B0F5004F03D0A068B0F5806F4C
:103B300005D12068006820F0400021680860A06A74
:103B4000B0F5005F0DD100BF2068006820F4005080
:103B5000216808602068006840F40050216808600F
:103B600000BF012084F85D0000BF002084F85C00E5
:103B700000BF0320BDE8F88FFFE7009800B90027D9
:103B80000098401E0090206880682840A84201D11B
:103B9000012000E000204045AFD10020EAE700000E
:103BA0006800002070B505460C460120FFF7EAFDCD
:103BB0000120FCF715FF0720FCF7F8FF0220FCF7B7
:103BC000F5FE0020FCF70CFF2846FCF7EFFF022073
:103BD000FCF7ECFE0020FCF703FF2046FCF7E6FFB5
:103BE0000220FCF7E3FE70BD2DE9FC5F05460E46A2
:103BF0002C46374600205AE02118002826DB4028B2
:103C000024DA82464FEAE07E00EB5E7E4FEAEE0E5B
:103C1000CDF804E04FEAE07E00EB5E7E4FEAEE0E68
:103C2000A0EBCE0ECDF800E0DFF8CCA0BAF800E0B3
:103C3000DDF804A0F244DFF8C4E01EF80AA0DDF8C5
:103C400000E04AFA0EFA0AF0010B00BFBBF1000FC8
:103C500001D1012300E002238A464FEAE17E01EB15
:103C60009E7E4FEAAE024FEAE17E01EB9E7E4FEA76
:103C7000AE0EA1EB8E0E4FEA4E0CDFF884A01AF8C0
:103C800002A04FF0030E0EFA0CFE2AEA0E0ADFF82D
:103C900070E00EF802A0F2461AF802A003FA0CFE39
:103CA0004AEA0E0ADFF858E00EF802A0401CB842BB
:103CB000A2DB2046E11704EB91714FEAA108E1195C
:103CC000481EC11700EB91714FEAA109C24608E0F6
:103CD0000B4A12F80A100AF0FF00FFF763FF0AF11F
:103CE000010ACA45F4DD04480088064909780844F9
:103CF00001490880BDE8FC9F12000020E800002078
:103D0000E80400200E00002010B504460120FFF753
:103D100039FD0120FCF764FE1120FCF747FF02206B
:103D2000FCF744FE0020FCF75BFE2046FCF73EFF5C
:103D30000220FCF73BFE10BD2DE9F0412DED088B74
:103D400004460E462046E11704EB9171C1F3870744
:103D5000304604F06DF841EC190B2546E11704EBF1
:103D600091718910A4EB810004F04BF841EC1B0B1E
:103D7000B0EE4B1AF0EE6B1A9FED230B00F0B8FF7C
:103D8000B0EE40AAF0EE60AA53EC192B51EC1A0BDE
:103D900004F09EF841EC180B04F006F800F0FF0860
:103DA0000120FFF7EFFC0120FCF71AFE0520FCF7CD
:103DB000FDFE0220FCF7FAFD0020FCF711FE38465C
:103DC000FCF7F4FE0220FCF7F1FD0020FCF708FEF2
:103DD0004046FCF7EBFE0220FCF7E8FD0120FCF773
:103DE000FFFD0820FCF7E2FE0220FCF7DFFD0020CB
:103DF000FCF7F6FD3846FCF7D9FE0220FCF7D6FDAD
:103E0000BDEC088BBDE8F081000000000000104010
:103E10002DE9F0412DED088B04460E462046E117B2
:103E200004EB5171C1F3C707304604F001F841ECCF
:103E3000190B2546E11704EB5171C910A4EBC10021
:103E400003F0DFFF41EC1B0BB0EE4B1AF0EE6B1AE8
:103E50009FED230B00F04CFFB0EE40AAF0EE60AAFD
:103E600053EC192B51EC1A0B04F032F841EC180BFF
:103E700003F09AFF00F0FF080120FFF783FC012008
:103E8000FCF7AEFD0620FCF791FE0220FCF78EFD4C
:103E90000020FCF7A5FD3846FCF788FE0220FCF761
:103EA00085FD0020FCF79CFD4046FCF77FFE0220CC
:103EB000FCF77CFD0120FCF793FD0920FCF776FE62
:103EC0000220FCF773FD0020FCF78AFD3846FCF762
:103ED0006DFE0220FCF76AFDBDEC088BBDE8F081A9
:103EE000000000000000004000BF01224FF46041CC
:103EF0000848FDF725FA4FF4FA7001F05EFE002243
:103F00004FF460410348FDF71BFA4FF4FA7001F0DB
:103F100054FEEAE70014004800BF9E4800780128DC
:103F200076D19D480078552871D19B484078AA28C1
:103F3000FAD19948807CAA28F6D19748C07C5528A8
:103F4000F2D10E219448801CFCF708FD9249097CAF
:103F5000B1EB102FE8D10E218F48801CFCF7FEFC3E
:103F6000C0B28D49497C8842DED18B48C078012897
:103F70004FD1894840798849097940EA0120874929
:103F800008808548C0798449897940EA01208449BC
:103F900008808148407A8049097A40EA01208149B5
:103FA00008807D48C07A7C49897A40EA01207E49B0
:103FB000088000207D49087001210846FCF7D6FEE4
:103FC00000224FF480714FF09040FDF7B9F90022C4
:103FD0004FF400714FF09040FDF7B2F90022082134
:103FE0007348FDF7ADF902216E480088FFF7A4FE83
:103FF00001216C480088FFF70BFF69490988C81D3B
:10400000C11700EB5171C1F3C7016A4A1170BAE0E0
:10401000BCE06148C07802281BD15F4880786549C0
:1040200009788842F3D163480178002009E0021D35
:10403000594B9A5C604B1B880344604CE254421C11
:10404000D0B28842F3DB5C48008808445A4A1080AA
:1040500099E05148C078032803D1012058490870DD
:1040600091E04D48C078042834D10020FFF772FB5E
:104070000020534908704949088049490880494946
:104080000880494908804F4908804A4908704A49D0
:1040900008804D4908704D490870444908704FF434
:1040A00080614648FCF756FA4FF400614848FCF737
:1040B00051FA4FF480714748FCF74CFA4FF4806195
:1040C0004548FCF747FA00224FF400714348FDF7DA
:1040D00037F958E03048C078052854D12E48407947
:1040E0002D49097940EA01202C4908802A48C079E5
:1040F0002949897940EA0120294908802648007A1F
:10410000314908702448407A304908702E480078B8
:10411000FFF7FAFD012211023148FDF711F90022E3
:1041200010212348FDF70CF9012211024FF09040B5
:10413000FDF706F9012251024FF09040FDF700F91A
:10414000012208211A48FDF7FBF815490988C81D06
:10415000C11700EB5171C1F3C701164A1170002459
:1041600009E01948007800EB8415A8B20121FFF797
:104170004FFE601CC4B2102CF3DB012001F01DFDCA
:1041800001200A490870002002490870052001F04A
:1041900014FDC2E600000020E80A00200200002012
:1041A0000400002006000020080000200B00002072
:1041B000001800480E00002010000020E800002039
:1041C00014000020120000200A0000200F00002030
:1041D000E80B0020E8040020E80500200014004857
:1041E0000008004888B000BF62480078012853D119
:1041F00061480078F0B9002410E060480188604808
:104200000088FFF7F1FC0A2001F0D7FC0020FCF742
:1042100001FB5C4921F81400601C84B25A480088F4
:104220005A49097890FBF1F0A042E6DC022051499E
:10423000087031E05048007801282DD1524800889C
:104240005249097890FBF1F085B2002600241DE068
:104250004A4801884A480088FFF7C6FC0A2001F056
:10426000ACFC6846FCF7BEFA002009E03DF81030CF
:104270003146721C96B2434A22F81130411CC8B232
:10428000434909788842F1DB601C84B2AC42DFDB31
:1042900002203849087000BF36480078022858D1FB
:1042A0000424394800883949097890FBF1F087B235
:1042B0003148007808B93D4603E035480078784336
:1042C00085B2552033490870AA2048706806000E50
:1042D00088700320C870002011E02A4A32F81010BC
:1042E0004FEA112C2246631CDCB22A4B03F802C0B1
:1042F0002246631CDCB2274B9954411C88B2A84269
:10430000EBDBA01EC1B22348801CFCF727FB06464E
:10431000320A2046611CCCB21E490A542046611C58
:10432000CCB21C490E54AA222146601CC4B21948C2
:10433000425455222046611CCCB216490A5403202F
:104340000C4908702346144A12491448FEF7EEFA45
:1043500000BF08480078032807D101225102104805
:10436000FCF7EEFF042003490870052001F025FC4E
:104370003AE70000140000200B0000200400002099
:1043800002000020E80B0020100000200E0000209A
:104390000F000020E8050020E80900204C14002050
:1043A0000014004800BF1E2001F007FCFBE700BF1F
:1043B0001E2001F002FCFBE710B500BF502080F387
:1043C0001188BFF34F8FBFF36F8F00BF03F06EF8FC
:1043D00018B14FF080500449086000BF002080F3FE
:1043E000118800BF10BD000004ED00E000B593B0DF
:1043F000382105A8FCF7D0F814216846FCF7CCF862
:104400000020FDF79FF8012005900004069002208F
:104410000C9003210D9102210E9155210F91022143
:1044200010911191129105A8FDF7D8FC08B1FCF785
:10443000F4FB0F20009003200190002002900390D5
:10444000049004216846FDF71FFB08B1FCF7E5FB6B
:1044500013B000BD0348006840F4700001490860D3
:104460007047000088ED00E010B50248FEF733FC0D
:1044700010BD00000416002010B50268314B9842B0
:1044800011D0B0F1804F0ED02F4B98420BD02F4B54
:10449000984208D02E4B984205D02E4B984202D01D
:1044A0002D4B984203D122F070024B681A43254BE2
:1044B00098421AD0B0F1804F17D0234B984214D0B5
:1044C000224B984211D0224B98420ED0214B984259
:1044D0000BD0224B984208D0214B984205D0214B5B
:1044E000984202D01C4B984203D122F44072CB6810
:1044F0001A4322F080034C6943EA040202608B688D
:10450000C3620B6883620F4B98420ED0114B9842E6
:104510000BD0124B984208D0114B984205D0114B4A
:10452000984202D00C4B984201D10B6903630123DE
:104530004361036903F001031BB1036923F0010325
:10454000036110BD002C0140000400400008004041
:10455000000C004000340140005001400040014088
:10456000004401400048014070B5456E2DB9012559
:10457000A0F86A50A0F868501CE0082308240568D9
:10458000AD68C5F342610568AD686A0F0A4DAD5C60
:1045900015FB04F5094EB65C95FBF6F5A0F86A50DC
:1045A000054D6D5C15FB03F5044E765C95FBF6F549
:1045B000A0F8685070BD00004086000848860008DA
:1045C00090F8281001F00801082907D1016849680E
:1045D00021F40041826B11430268516090F8281069
:1045E00001F0010139B10168496821F40031C26A62
:1045F00011430268516090F8281001F0020102296D
:1046000007D10168496821F48031026B11430268C7
:10461000516090F8281001F00401042907D10168C5
:10462000496821F48021426B11430268516090F87F
:10463000281001F01001102907D10168896821F4C0
:104640008051C26B11430268916090F8281001F00C
:104650002001202907D10168896821F40051026CEA
:1046600011430268916090F8281001F04001402940
:1046700013D10168496821F48011426C114302682A
:104680005160416CB1F5801F07D10168496821F480
:10469000C001826C11430268516090F8281001F04B
:1046A0008001802907D10168496821F40021C26C8A
:1046B000114302685160704738B504460020C4F8C1
:1046C0009000FCF743FE05462068006800F00800F3
:1046D000082821D16FF07E402B4600224FF40011B4
:1046E0000090204600F078FAB0B100BF00BF21680A
:1046F00051E8001F21F08000226842E800010029F3
:10470000F5D100BF2020C4F8880000BF002084F845
:10471000840000BF032038BD2068006800F004005A
:10472000042830D16FF07E402B4600224FF48001E8
:104730000090204600F050FA28B300BF00BF216867
:1047400051E8001F21F49070226842E8000100291E
:10475000F5D100BF00BF00BF2168083151E8001F3C
:1047600021F001002168083141E80002002AF3D15C
:1047700000BF2020C4F88C0000BF002084F8840013
:1047800000BF0320C7E72020C4F88800C4F88C00CD
:104790000020E066206700BF84F8840000BF00BFEF
:1047A000B9E7000000BF00BF026852E8002F22F402
:1047B0009071036843E80012002AF5D100BF00BFE2
:1047C00000BF0268083252E8002F104B02EA0301D2
:1047D0000268083242E80013002BF2D100BFC16E1C
:1047E00001290CD100BF00BF026852E8002F22F05F
:1047F0001001036843E80012002AF5D100BF202110
:10480000C0F88C100021C16641677047FEFFFFEFC2
:104810002DE9FE4F044600200290E44920688842BA
:1048200000D100E000BF2169A06808436169084326
:10483000E16940EA010820680068DD49084040EA73
:104840000800216808602068406820F44050E16852
:10485000084321684860D4F81880D4492068884209
:1048600002D0206A40EA080820688068D1490840E0
:1048700040EA0800216888602068C06A20F00F00C4
:10488000616A08432168C86200BFCB49206888423A
:1048900016D1CA48006800F0030030B1012808D0E2
:1048A000022804D0032808D105E0012507E00225ED
:1048B00005E0042503E0082501E0102500BF8DE098
:1048C000BF492068884216D1BC48006800F00C003F
:1048D00030B1042808D0082804D00C2808D105E0FD
:1048E000002507E0022505E0042503E0082501E096
:1048F000102500BF72E0B3492068884216D1AF4846
:10490000006800F0300030B1102808D0202804D012
:10491000302808D105E0002507E0022505E0042540
:1049200003E0082501E0102500BF57E0A6492068F4
:10493000884216D1A148006800F0C00030B140287C
:1049400008D0802804D0C02808D105E0002507E061
:10495000022505E0042503E0082501E0102500BF3D
:104960003CE09A492068884219D19448006800F4D4
:10497000407048B1B0F5807F0AD0B0F5007F05D017
:10498000B0F5407F08D105E0002507E0022505E0ED
:10499000042503E0082501E0102500BF1EE083493F
:1049A0002068884219D18548006800F4406048B109
:1049B000B0F5806F0AD0B0F5006F05D0B0F5406F4C
:1049C00008D105E0002507E0022505E0042503E005
:1049D000082501E0102500BF00E0102500BF734945
:1049E000206888425BD135B1022D08D0042D08D053
:1049F000082D0DD109E0FDF781F906460CE0744E53
:104A00000AE0FDF79FF9064606E04FF4004603E092
:104A100000260120029000BF00BF002E10D06D497B
:104A2000606A31F81000B6FBF0F9606800EB4000F6
:104A3000484503D860680003484502D2012002902F
:104A4000A8E06449606A31F810C06246002330462D
:104A50001946FBF791FC4FF4807C0022A0FB0C3B35
:104A600001FB0CB100FB0210616849085918504164
:104A7000CDE90010D4F804C062460023084601992D
:104A8000FBF77AFC0746B7F5407F05D3B7F5801FE3
:104A900002D22068C7607DE0012002907AE0E069E0
:104AA000B0F5004F3FD1092D17D2DFE805F0050919
:104AB0000D160F1616161300FDF720F9064610E026
:104AC000FDF72EF906460CE0414E0AE0FDF73AF9F3
:104AD000064606E04FF4004603E00026012002905F
:104AE00000BF00BF86B33B49606A31F81000B6FBD7
:104AF000F0F04000616800EB5100B0FBF1F7102FBF
:104B00000ED3B7F5803F0BD24FF6F07007EA000ADC
:104B1000C7F342004AEA000A2068C0F80CA039E056
:104B20000120029036E0092D18D2DFE805F00509D2
:104B30000E17101717171400FDF7E0F8064611E0DE
:104B4000FDF7EEF806460DE024E0214E0AE0FDF701
:104B5000F9F8064606E04FF4004603E0002601207F
:104B6000029000BF00BFAEB11A49606A31F8100070
:104B7000B6FBF0F0616800EB5100B0FBF1F7102FCD
:104B800006D3B7F5803F03D2B8B22168C86001E010
:104B9000012002900120A4F86A00A4F86800002017
:104BA0006067A0670298BDE8FE8F000000800040AB
:104BB000F369FFCFFFF4FF11003801408810024075
:104BC0000044004000480040004C004000500040BD
:104BD0000024F400288600082DE9F04104460D4623
:104BE00017469846069E41E0701C00283ED0FCF710
:104BF000ADFBA0EB0800B04200D816B90320BDE819
:104C0000F0812068006800F0040070B3802D2DD082
:104C1000402D2BD02068C069C0F3C00078B10820B7
:104C2000216808622046FFF7BDFD0820C4F8900007
:104C300000BF002084F8840000BF0120DFE7206867
:104C4000C069C0F3C02080B14FF4006021680862E1
:104C50002046FFF7A7FD2020C4F8900000BF0020E9
:104C600084F8840000BF0320C9E7FFE72068C0691B
:104C70002840A84201D1012000E00020B842B3D072
:104C80000020BCE700BFFEE703B401984100009894
:104C900050EAC12018BF04204A0D18BF40F001009F
:104CA00040F2FF72B2EB515F08BF40F002000128F2
:104CB00008BF052002B0704702480068C0F3022018
:104CC000704700000CED00E010B5002804DB0A0777
:104CD000130E054A135406E00A07140E034A00F0A7
:104CE0000F031B1FD45410BD00E400E018ED00E0DA
:104CF0002DE9F04D2DED040B2DED0E8B96B0DDE979
:104D00002550279CDDF890A025F0004624F00048AF
:104D1000BAF1000F14BF0121002101EB4502FC494B
:104D200053184A1093422AD3002814BF01230023AA
:104D300003EB44030B44F7498B4220D358EA0001AC
:104D40009FEDF59B76D0DFF8D8B35D4503D1BAF17E
:104D5000000F05D188E0BAF1000F08BF002100D094
:104D6000012101EB450111F5001F08D8002814BFEF
:104D70000121002101EB440111F5001F0BD99DED2C
:104D8000261B9DED240B16B0BDEC0E8B04B0BDE8C8
:104D9000F04D00F069BE0027002DBCBFE1498845F9
:104DA00021DAE1498845A8BF02271CDAC3451ADC8D
:104DB000DE4901EB2851142908DDC1F1340220FA43
:104DC00002F101FA02F282420DD108E058B9C1F1B4
:104DD000140228FA02F101FA02F2424503D101F06D
:104DE0000101C1F1020756EA0A0124D1002C22DA9E
:104DF000002D18BF022F01D0012F0AD00220FBF78F
:104E0000FAFB16B0BDEC0E8B04B0BDE8F04D00F01F
:104E100013BE0220FBF7EFFB00F00EFE51EC100B6F
:104E200002F0A2FD41EC100B16B0BDEC0E8B04B0ED
:104E3000BDE8F08D18E09FEDBEAB9FEDBF8B002865
:104E400071D1B848804522D105F1804010F580101D
:104E500008BFBAF1000F07D0B3450ADC002CA8BF89
:104E60009DED260BE0DA0DE0B0EE490AF0EE690A9E
:104E7000DAE7002C06DA9DED260B51EC100B02F060
:104E800073FD6FE0AE48784490ED000BCCE7D84559
:104E90004DD1002C48DA2EB186423AD1BAF1000F3A
:104EA00042D126E0BAF1000F13D00220FBF7A3FB9A
:104EB00000F0F6FD8DED020B9DED240B8DED000B4A
:104EC00010EE900A039961F31E0003909DED020B12
:104ED000AAE78DED02AB9DED240B1AEE901A10EEB1
:104EE000900A8DED000B61F31E0003909DED020B07
:104EF0009AE78DED028B9DED240B18EE901A10EEC3
:104F0000900A8DED000B61F31E0003909DED020BE6
:104F10008AE709DA9DED240B51EC190B53EC102BA9
:104F200002F0EAFD1EE020E09DED240B7CE78642C6
:104F30001BDAB4F1804F0DD0A4F10050B0F1FF5056
:104F400013D1002D11DB9DED240B51EC100B01F062
:104F500035FC07E09DED240B53EC102B51EC100BAE
:104F600000F0C2BC41EC100B5EE79DED240B51EC50
:104F7000100B00F0C4FDBAF1000FCDE90E0142D1D3
:104F80009FED710B46B3A6F1E040B0F17F600CD00D
:104F90005E4538D1002D00DAA7B3022F0CBF0120E7
:104FA0004FF0FF3002F02DFFDCE7002D01DD002C7B
:104FB0000DDA002D01DD002C1FDB002D16DA002C90
:104FC00014DB012F08BF9FED620B3FF42DAFB0EE55
:104FD0004A0AF0EE6A0A27E7022F18BF002D0CD00C
:104FE000012F0AD1002DFFF61FAF06E0002DB8BF3C
:104FF000002C08DA012F3FF417AFB0EE480AF0EEAC
:10500000680A11E71BE0012000EBE57050EA070198
:1050100015D0791EB0EE498AF0EE698A084308BFC0
:105020009FED4D8B4E480025804570DD4D494E4823
:10503000884514DDB0420DDB002C19DB2FE0012088
:10504000FBF7D9FA16B0BDEC0E8B04B0BDE8F04DFD
:1050500000F016BDB34502DC002C09DC1FE08642DF
:1050600002DA002C1BDA03E05E452BDD002C16DD96
:105070000220FBF7C0FA00F013FD8DED020B53EC9C
:105080001A2B51EC180B02F023FFCDE90001039914
:10509000019861F31E0003909DED020BC4E602200F
:1050A000FBF7A9FA00F00CFD10EE901A18EE900A2A
:1050B0008DED020B8DED008B61F31E0003909DEDD5
:1050C000020BB1E69DED0E0B53EC192B51EC100BBE
:1050D00003F00AF99FED260BCDE9080153EC102BE4
:1050E0009DED080B51EC100B02F0F2FE9FED221B20
:1050F00053EC112B03F020F89DED081B53EC112B02
:1051000002F0E6FE9FED1E1B53EC112B3CE08CE001
:10511000FFFF1F00FFFF0F00000000000000F03F36
:105120000000F03F0000F07F0000404301FCFFFF63
:10513000000000000000F07F000000000000000000
:105140006638000000000000000000000000008041
:10515000000000000000F0FF000000000000F0BFB1
:105160000000E0410000F043FFFFEF3F00000000BF
:10517000000000000000D03F555555555555D53F0E
:10518000000000000000E03F02F0D6FF9DED080B9C
:1051900041EC1A0B53EC102B51EC100B02F098FE63
:1051A00053EC1A2B02F094FE41EC1A0B9FEDFE0B10
:1051B00053EC102B9DED080B51EC100B02F088FE08
:1051C00041EC1B0B9FEDFA0B51EC1A0B53EC102B1F
:1051D00002F07EFE41EC1A0B9FEDF70B53EC102B07
:1051E0009DED080B51EC100B02F072FE53EC1A2BE4
:1051F00003F07AF841EC1A0B51EC1B0B53EC1A2B11
:1052000002F0BEFB0690CDE906519DED060B53EC76
:105210001B2B51EC100B03F067F853EC1A2B02F028
:105220008BFF41EC100B00F0A1B90020B6F5801FF8
:105230000EDA9FEDE30B53EC102B9DED0E0B51ECB2
:10524000100B02F045FECDE90E016FF034000E4662
:1052500000EB2650A0F2FF37C6F31300DA4940F006
:105260007F6646F040568842D8BF002408DDD74903
:105270008142C8BF012403DC0024A6F580167F1CF0
:10528000D348784400EBC4000F9690ED00CB9DED21
:105290000E0B53EC1C2B51EC100B03F025F89DED7D
:1052A0000E0B41EC1B0B53EC1C2B51EC100B02F0C2
:1052B00067FB41EC100B51EC190B53EC102B02F077
:1052C0001BFC41EC1D0B51EC1B0B53EC1D2B02F096
:1052D000FFFD41EC1A0BBF488DED10AB78441095E3
:1052E00090ED000B4FF0005040EA660000EB844068
:1052F0008DED080B00F5002009909DED080B53EC97
:105300001C2B51EC100B02F0EFFF9DED0E1B53EC2C
:10531000112B02F011FF41EC100B53EC102B9DED03
:10532000100B51EC100B02F0D3FD9DED080B41EC7E
:105330001C0B53EC102B9DED100B51EC100B02F0DD
:10534000C7FD53EC1B2B02F0F7FE53EC1C2B02F0B5
:10535000CBFF53EC1D2B02F0BBFD41EC1C0B53ECBF
:105360001A2B51EC1A0B02F0B3FD41EC1B0B9A48BF
:105370000621B0EE4B0AF0EE6B0A784400F0E0FA3A
:10538000B0EE401AF0EE601AB0EE41DAF0EE61DAFB
:1053900053EC1B2B51EC1B0B02F09AFD53EC1D2B15
:1053A00002F096FD9DED100B41EC1B0B53EC1A2BFC
:1053B00051EC100B02F0E4FA53EC1C2B02F088FDC8
:1053C00053EC1B2B02F0DCFA9DED100B41EC1B0B98
:1053D00053EC102B51EC100B02F07AFD41EC1D0B3D
:1053E0009FED7FEB53EC1E2B02F0CAFA53EC1B2B04
:1053F00002F0C6FA0890CDE908519DED080B53EC78
:105400001E2B51EC100B02F06FFF53EC1D2B02F022
:105410006BFF53EC1B2B02F08FFE9DED080B41EC54
:105420001D0B53EC102B9DED100B51EC100B02F0EB
:105430004FFD41EC1B0B53EC1A2B51EC1D0B02F0F2
:1054400047FD9DED080B41EC1A0B53EC102B51EC72
:105450001C0B02F03DFD53EC1A2B02F091FA41ECCB
:105460001A0B51EC1B0B53EC1A2B02F089FA0C901F
:10547000CDE90C519DED0C0B53EC1B2B51EC100B9B
:1054800002F032FF53EC1A2B02F056FE41EC1B0BDC
:105490009FED550B53EC102B9DED0C0B51EC100BAD
:1054A00002F016FD41EC1A0B9FED510B51EC1B0B5A
:1054B00053EC102B02F00CFD41EC1B0B9FED4E0B3F
:1054C00053EC102B9DED0C0B51EC100B02F000FD7A
:1054D00053EC1B2B02F054FA41EC100B4848784473
:1054E00000EBC40090ED001B51EC100B53EC112BA2
:1054F00002F046FA41EC1B0B384602F082FCCDE983
:10550000080153EC1B2B51EC1A0B02F039FA41EC59
:10551000100B3C48784400EBC40090ED00CB51ECFC
:10552000100B53EC1C2B02F02BFA9DED081B53ECD7
:10553000112B02F025FA0690CDE906519DED080BDE
:1055400053EC102B9DED060B51EC100B02F0CCFE32
:1055500053EC1C2B02F0C8FE53EC1A2B02F0C4FED5
:1055600053EC1B2B02F0E8FD41EC100B9DED261BCC
:1055700053EC102B8DED001B00959DED260B51EC8F
:10558000100B02F0A5FC9DED000B41EC1A0B53EC47
:10559000102B9DED260B51EC100B02F0A5FE9DED9E
:1055A000061B53EC112B2FE0000000604715F73F5E
:1055B000FE822B654715F73F44DF5DF80BAE543E86
:1055C00000000000000040438E9803007AB60B00F4
:1055D000E2330000103400001A3300000000000025
:1055E0000000000000000840000000E009C7EE3F96
:1055F000FD033ADC09C7EE3FF5015B14E02F3EBE28
:10560000A63100006031000002F062FC53EC1A2B5E
:1056100002F0B6F99DED060B41EC1A0B53EC102B82
:105620009DED000B51EC100B02F052FCCDE90C018A
:105630009DED0C0B51EC1A0B53EC102B02F0A0F962
:10564000CDE902010C46AA498C422FDB611A0843BE
:1056500018D19DED0C0B53EC102B9DED020B51EC72
:10566000100B02F041FE41EC1B0B9FEDA30B51EC24
:105670001A0B53EC102B02F083F953EC1B2B02F0A6
:1056800025FD2DD20220FAF7B6FF00F009FA10EE40
:10569000901A18EE900A8DED020B8DED008B61F3E0
:1056A0001E0003909DED020BFFF7BEBB944A24F051
:1056B0000041914214D39349214408437FF4EFAC55
:1056C0009DED0C0B53EC102B9DED020B51EC100BD0
:1056D00002F00AFE53EC1A2B02F0F8FC7FF6DFAC66
:1056E00024F000408849894A002601EB205182427B
:1056F0002BDA481C4FF4801121FA00F02044844A30
:10570000C0F30A517A44A1F2FF3192ED000B814AB5
:105710008DED080BCA4020EA0202C0F3130040F4EA
:105720008010C1F1140120FA01F60992002CB8BFD3
:1057300076429DED080B53EC102B9DED0C0B51ECBC
:10574000100B02F0D1FDCDE90C019DED0C0B51ECDD
:105750001A0B53EC102B02F013F99FED6F0B08900E
:10576000CDE9085153EC102B9DED080B51EC100BBB
:1057700002F0AEFB41EC1B0B9FED690B53EC102BC1
:105780009DED080B51EC100B02F0A2FB9DED0C0BF4
:1057900041EC1C0B53EC102B9DED080B51EC100B46
:1057A00002F0A2FD53EC1A2B02F0C6FC9FED5E1B2B
:1057B00053EC112B02F08CFB53EC1C2B02F0E0F8A5
:1057C00041EC1A0B51EC1B0B53EC1A2B02F0D8F8DE
:1057D000CDE902019DED020B53EC1B2B51EC100B9C
:1057E00002F082FD53EC1A2B02F0A6FC9DED020B99
:1057F00041EC1A0B53EC102B51EC100B02F068FB30
:10580000CDE908014A489DED080B0521784400F0D8
:1058100097F89DED081B51EC100B53EC112B02F087
:1058200057FB9DED021B53EC112B02F085FCCDE9DB
:1058300006019DED020B53EC1A2B51EC100B02F0FC
:1058400047FB53EC1A2B02F09BF89FED3B0B41EC0E
:105850001A0B53EC102B9DED060B51EC100B02F0C4
:1058600043FD9DED060B41EC1B0B53EC102B9DED06
:10587000020B51EC100B02F02BFB53EC1B2B02F034
:105880003BF953EC1A2B02F02FFD9DED021B53EC5C
:10589000112B02F029FD53EC192B02F04DFCCDE940
:1058A000020101EB065001150029C8BF039015DC69
:1058B0009DED020B324651EC100B02F036FEFFF765
:1058C000E3F9042808BF00F0FBF832469DED020B17
:1058D00051EC100B02F029FECDE902019DED020B07
:1058E00051EC180B53EC102B02F0F2FAFFF73ABB15
:1058F0000000904000000000FE822B654715973C99
:1059000000CC904000346F3F01FCFFFF0000E03FFF
:10591000E82F0000FFFF0F0000000000432EE63FCD
:10592000396CA80C615C20BEEF39FAFE422EE63FCE
:10593000B82E000000000000000000000000004041
:1059400070B504462DED028B4D1E00EBC500B0EE88
:10595000408AF0EE608A90ED000B35F0060017D01B
:1059600053EC182B51EC100B02F0B2FA41EC100B77
:105970006D1E04EBC50090ED001B51EC100B53ECB9
:10598000112B01F0FDFF41EC100B35F00600E7D1C3
:10599000022D36D0042D1CD0062D1CBFBDEC028B71
:1059A00070BD53EC182B51EC100B02F091FA94EDF2
:1059B0000A1B53EC112B01F0E3FF53EC182B02F000
:1059C00087FA94ED081B53EC112B01F0D9FF41EC41
:1059D000100B53EC182B51EC100B02F079FA94EDEC
:1059E000061B53EC112B01F0CBFF53EC182B02F0EC
:1059F0006FFA94ED040B53EC102B01F0C1FF41EC56
:105A0000100B53EC182B51EC100B02F061FA94EDD3
:105A1000021B53EC112B01F0B3FF53EC182B02F0D7
:105A200057FA94ED001B53EC112B01F0A9FFBDECCC
:105A3000028B41EC100B70BD9FED070B10B553ECC2
:105A4000102B9FED070B51EC100B02F055F841ECB9
:105A5000100B10BD0000000000000000000000005E
:105A6000000000000000F03F10B553EC112B51EC8A
:105A7000100B01F085FF41EC100B10BD0000000081
:105A80009FED050B10B553EC102B51EC100B02F0F1
:105A900033F841EC100B10BD0000000000000000C6
:105AA0009FED050B10B553EC102B51EC100B02F0D1
:105AB0000FFA41EC100B10BD000000000000007058
:105AC0009FED050B10B553EC102B51EC100B02F0B1
:105AD000FFF941EC100B10BD0000000000000010A9
